{
  "_format": "hh-sol-artifact-1",
  "contractName": "METACONCERT",
  "sourceName": "contracts/METACONCERT.sol",
  "abi": [
    {
      "inputs": [],
      "stateMutability": "nonpayable",
      "type": "constructor"
    },
    {
      "anonymous": false,
      "inputs": [
        {
          "indexed": true,
          "internalType": "address",
          "name": "owner",
          "type": "address"
        },
        {
          "indexed": true,
          "internalType": "address",
          "name": "spender",
          "type": "address"
        },
        {
          "indexed": false,
          "internalType": "uint256",
          "name": "amount",
          "type": "uint256"
        }
      ],
      "name": "Approval",
      "type": "event"
    },
    {
      "anonymous": false,
      "inputs": [
        {
          "indexed": true,
          "internalType": "address",
          "name": "burned",
          "type": "address"
        },
        {
          "indexed": false,
          "internalType": "uint256",
          "name": "amount",
          "type": "uint256"
        }
      ],
      "name": "Burn",
      "type": "event"
    },
    {
      "anonymous": false,
      "inputs": [
        {
          "indexed": true,
          "internalType": "address",
          "name": "target",
          "type": "address"
        }
      ],
      "name": "Freeze",
      "type": "event"
    },
    {
      "anonymous": false,
      "inputs": [
        {
          "indexed": true,
          "internalType": "address",
          "name": "from",
          "type": "address"
        },
        {
          "indexed": false,
          "internalType": "uint256",
          "name": "amount",
          "type": "uint256"
        },
        {
          "indexed": false,
          "internalType": "uint256",
          "name": "due",
          "type": "uint256"
        }
      ],
      "name": "Lock",
      "type": "event"
    },
    {
      "anonymous": false,
      "inputs": [
        {
          "indexed": true,
          "internalType": "address",
          "name": "currentOwner",
          "type": "address"
        },
        {
          "indexed": true,
          "internalType": "address",
          "name": "newOwner",
          "type": "address"
        }
      ],
      "name": "OwnershipTransferred",
      "type": "event"
    },
    {
      "anonymous": false,
      "inputs": [],
      "name": "Paused",
      "type": "event"
    },
    {
      "anonymous": false,
      "inputs": [
        {
          "indexed": true,
          "internalType": "address",
          "name": "from",
          "type": "address"
        },
        {
          "indexed": true,
          "internalType": "address",
          "name": "to",
          "type": "address"
        },
        {
          "indexed": false,
          "internalType": "uint256",
          "name": "amount",
          "type": "uint256"
        }
      ],
      "name": "Transfer",
      "type": "event"
    },
    {
      "anonymous": false,
      "inputs": [
        {
          "indexed": true,
          "internalType": "address",
          "name": "target",
          "type": "address"
        }
      ],
      "name": "Unfreeze",
      "type": "event"
    },
    {
      "anonymous": false,
      "inputs": [
        {
          "indexed": true,
          "internalType": "address",
          "name": "from",
          "type": "address"
        },
        {
          "indexed": false,
          "internalType": "uint256",
          "name": "amount",
          "type": "uint256"
        }
      ],
      "name": "Unlock",
      "type": "event"
    },
    {
      "anonymous": false,
      "inputs": [],
      "name": "Unpaused",
      "type": "event"
    },
    {
      "inputs": [
        {
          "internalType": "address",
          "name": "owner",
          "type": "address"
        },
        {
          "internalType": "address",
          "name": "spender",
          "type": "address"
        }
      ],
      "name": "allowance",
      "outputs": [
        {
          "internalType": "uint256",
          "name": "remaining",
          "type": "uint256"
        }
      ],
      "stateMutability": "view",
      "type": "function"
    },
    {
      "inputs": [
        {
          "internalType": "address",
          "name": "spender",
          "type": "address"
        },
        {
          "internalType": "uint256",
          "name": "amount",
          "type": "uint256"
        }
      ],
      "name": "approve",
      "outputs": [
        {
          "internalType": "bool",
          "name": "success",
          "type": "bool"
        }
      ],
      "stateMutability": "nonpayable",
      "type": "function"
    },
    {
      "inputs": [
        {
          "internalType": "address",
          "name": "owner",
          "type": "address"
        }
      ],
      "name": "balanceOf",
      "outputs": [
        {
          "internalType": "uint256",
          "name": "balance",
          "type": "uint256"
        }
      ],
      "stateMutability": "view",
      "type": "function"
    },
    {
      "inputs": [
        {
          "internalType": "uint256",
          "name": "amount",
          "type": "uint256"
        }
      ],
      "name": "burn",
      "outputs": [
        {
          "internalType": "bool",
          "name": "success",
          "type": "bool"
        }
      ],
      "stateMutability": "nonpayable",
      "type": "function"
    },
    {
      "inputs": [
        {
          "internalType": "address",
          "name": "burned",
          "type": "address"
        },
        {
          "internalType": "uint256",
          "name": "amount",
          "type": "uint256"
        }
      ],
      "name": "burnFrom",
      "outputs": [
        {
          "internalType": "bool",
          "name": "success",
          "type": "bool"
        }
      ],
      "stateMutability": "nonpayable",
      "type": "function"
    },
    {
      "inputs": [],
      "name": "decimals",
      "outputs": [
        {
          "internalType": "uint8",
          "name": "tokenDecimals",
          "type": "uint8"
        }
      ],
      "stateMutability": "pure",
      "type": "function"
    },
    {
      "inputs": [
        {
          "internalType": "address",
          "name": "target",
          "type": "address"
        }
      ],
      "name": "freeze",
      "outputs": [
        {
          "internalType": "bool",
          "name": "success",
          "type": "bool"
        }
      ],
      "stateMutability": "nonpayable",
      "type": "function"
    },
    {
      "inputs": [
        {
          "internalType": "address",
          "name": "target",
          "type": "address"
        }
      ],
      "name": "isFrozen",
      "outputs": [
        {
          "internalType": "bool",
          "name": "frozen",
          "type": "bool"
        }
      ],
      "stateMutability": "view",
      "type": "function"
    },
    {
      "inputs": [
        {
          "internalType": "address",
          "name": "locked",
          "type": "address"
        },
        {
          "internalType": "uint256",
          "name": "index",
          "type": "uint256"
        }
      ],
      "name": "lockInfo",
      "outputs": [
        {
          "internalType": "uint256",
          "name": "amount",
          "type": "uint256"
        },
        {
          "internalType": "uint256",
          "name": "due",
          "type": "uint256"
        }
      ],
      "stateMutability": "view",
      "type": "function"
    },
    {
      "inputs": [],
      "name": "name",
      "outputs": [
        {
          "internalType": "string",
          "name": "tokenName",
          "type": "string"
        }
      ],
      "stateMutability": "pure",
      "type": "function"
    },
    {
      "inputs": [],
      "name": "owner",
      "outputs": [
        {
          "internalType": "address",
          "name": "ownerAddress",
          "type": "address"
        }
      ],
      "stateMutability": "view",
      "type": "function"
    },
    {
      "inputs": [],
      "name": "pause",
      "outputs": [
        {
          "internalType": "bool",
          "name": "success",
          "type": "bool"
        }
      ],
      "stateMutability": "nonpayable",
      "type": "function"
    },
    {
      "inputs": [],
      "name": "paused",
      "outputs": [
        {
          "internalType": "bool",
          "name": "",
          "type": "bool"
        }
      ],
      "stateMutability": "view",
      "type": "function"
    },
    {
      "inputs": [
        {
          "internalType": "address",
          "name": "from",
          "type": "address"
        }
      ],
      "name": "releaseLock",
      "outputs": [
        {
          "internalType": "bool",
          "name": "success",
          "type": "bool"
        }
      ],
      "stateMutability": "nonpayable",
      "type": "function"
    },
    {
      "inputs": [],
      "name": "renounceOwnership",
      "outputs": [
        {
          "internalType": "bool",
          "name": "success",
          "type": "bool"
        }
      ],
      "stateMutability": "nonpayable",
      "type": "function"
    },
    {
      "inputs": [],
      "name": "symbol",
      "outputs": [
        {
          "internalType": "string",
          "name": "tokenSymbol",
          "type": "string"
        }
      ],
      "stateMutability": "pure",
      "type": "function"
    },
    {
      "inputs": [
        {
          "internalType": "address",
          "name": "locked",
          "type": "address"
        }
      ],
      "name": "totalLocked",
      "outputs": [
        {
          "internalType": "uint256",
          "name": "amount",
          "type": "uint256"
        },
        {
          "internalType": "uint256",
          "name": "length",
          "type": "uint256"
        }
      ],
      "stateMutability": "view",
      "type": "function"
    },
    {
      "inputs": [],
      "name": "totalSupply",
      "outputs": [
        {
          "internalType": "uint256",
          "name": "total",
          "type": "uint256"
        }
      ],
      "stateMutability": "view",
      "type": "function"
    },
    {
      "inputs": [
        {
          "internalType": "address",
          "name": "to",
          "type": "address"
        },
        {
          "internalType": "uint256",
          "name": "amount",
          "type": "uint256"
        }
      ],
      "name": "transfer",
      "outputs": [
        {
          "internalType": "bool",
          "name": "success",
          "type": "bool"
        }
      ],
      "stateMutability": "nonpayable",
      "type": "function"
    },
    {
      "inputs": [
        {
          "internalType": "address",
          "name": "from",
          "type": "address"
        },
        {
          "internalType": "address",
          "name": "to",
          "type": "address"
        },
        {
          "internalType": "uint256",
          "name": "amount",
          "type": "uint256"
        }
      ],
      "name": "transferFrom",
      "outputs": [
        {
          "internalType": "bool",
          "name": "success",
          "type": "bool"
        }
      ],
      "stateMutability": "nonpayable",
      "type": "function"
    },
    {
      "inputs": [
        {
          "internalType": "address",
          "name": "newOwner",
          "type": "address"
        }
      ],
      "name": "transferOwnership",
      "outputs": [
        {
          "internalType": "bool",
          "name": "success",
          "type": "bool"
        }
      ],
      "stateMutability": "nonpayable",
      "type": "function"
    },
    {
      "inputs": [
        {
          "internalType": "address",
          "name": "recipient",
          "type": "address"
        },
        {
          "internalType": "uint256",
          "name": "amount",
          "type": "uint256"
        },
        {
          "internalType": "uint256",
          "name": "due",
          "type": "uint256"
        }
      ],
      "name": "transferWithLockUp",
      "outputs": [
        {
          "internalType": "bool",
          "name": "success",
          "type": "bool"
        }
      ],
      "stateMutability": "nonpayable",
      "type": "function"
    },
    {
      "inputs": [
        {
          "internalType": "address",
          "name": "target",
          "type": "address"
        }
      ],
      "name": "unFreeze",
      "outputs": [
        {
          "internalType": "bool",
          "name": "success",
          "type": "bool"
        }
      ],
      "stateMutability": "nonpayable",
      "type": "function"
    },
    {
      "inputs": [],
      "name": "unPause",
      "outputs": [
        {
          "internalType": "bool",
          "name": "success",
          "type": "bool"
        }
      ],
      "stateMutability": "nonpayable",
      "type": "function"
    },
    {
      "inputs": [
        {
          "internalType": "address",
          "name": "from",
          "type": "address"
        },
        {
          "internalType": "uint256",
          "name": "idx",
          "type": "uint256"
        }
      ],
      "name": "unlock",
      "outputs": [
        {
          "internalType": "bool",
          "name": "success",
          "type": "bool"
        }
      ],
      "stateMutability": "nonpayable",
      "type": "function"
    },
    {
      "inputs": [
        {
          "internalType": "address",
          "name": "from",
          "type": "address"
        }
      ],
      "name": "unlockAll",
      "outputs": [
        {
          "internalType": "bool",
          "name": "success",
          "type": "bool"
        }
      ],
      "stateMutability": "nonpayable",
      "type": "function"
    }
  ],
  "bytecode": "0x60806040523480156200001157600080fd5b50620000467f27f6888e68809cffd107c6d6cd9330ad00d3ab2683d0bc460a37cc6d15b2d4e360001b6200028b60201b60201c565b6200007a7f7f3742095077cccaa3582a028877eeef819bf77fba393af551462842e42363d160001b6200028b60201b60201c565b620000ae7faab8ac08ed7eda70c304fc3d27763697ad7d15b0eadb53ff1d83f81c73e25aff60001b6200028b60201b60201c565b33600360006101000a81548173ffffffffffffffffffffffffffffffffffffffff021916908373ffffffffffffffffffffffffffffffffffffffff160217905550620001237f4b07da9d0fb033c0435dcb930f4db429cc327f13d13f603e5d852d6a7ef2e01b60001b6200028b60201b60201c565b620001577f9fab8e02d6a51a353362b22f8f42db9b55a516b1701529b89916ebb03c39579b60001b6200028b60201b60201c565b3373ffffffffffffffffffffffffffffffffffffffff16600073ffffffffffffffffffffffffffffffffffffffff167f8be0079c531659141344cd1fd0a4f28419497f9722a3daafe3b4186f6b6457e060405160405180910390a3620001e67f72278cf4ff2018f533bfb67fb7c3e17939448b310488a6a9a6d23fcef7ca204760001b6200028e60201b60201c565b6200021a7fe724dd49629714013129eb328d27f6b4ef00f7221b6c82a9aa62274424da345560001b6200028e60201b60201c565b6200024e7f67c50a209f57354978be66b78db639521855f256bf57a0d2225a30f76d05ad9060001b6200028e60201b60201c565b6200028433601260ff16600a62000266919062000668565b64012a05f200620002789190620007a5565b6200029160201b60201c565b506200084c565b50565b50565b6000620002c77ff5b34b4ba2e581dbce219c0a3075fffab2bbd2ea0f4aa8e27de13620ec95d78b60001b6200057f60201b60201c565b620002fb7f96311f78ecde7ddaeb9fd6c4cc32fbf4e2786df6f9c67451654a9caa4c9dd55c60001b6200057f60201b60201c565b6200032f7f0ba3eebba90166cba365632e6ebe2da7b3ac516ec833bfa20b0932b14368bcfb60001b6200057f60201b60201c565b816000546200033f9190620005b0565b600081905550620003797fafa61fc01ee0a41c6aed2063265d2684183f79464d1aacf6165810d944de317160001b6200057f60201b60201c565b620003ad7febe25b48ce599c57771eaa5b4cf0636bc70d3933b55c20a1cc5ca7042f323f0660001b6200057f60201b60201c565b81600160008573ffffffffffffffffffffffffffffffffffffffff1673ffffffffffffffffffffffffffffffffffffffff16815260200190815260200160002054620003fa9190620005b0565b600160008573ffffffffffffffffffffffffffffffffffffffff1673ffffffffffffffffffffffffffffffffffffffff16815260200190815260200160002081905550620004717f656a02f4132daefef8002b2be28eec8c412d4706e777985b06ff337261acc70c60001b6200057f60201b60201c565b620004a57fd2ec0ac2dfa374a79eb0f51555b94917173b8d4ec4abd91a1fc6a0eba544b5ef60001b6200057f60201b60201c565b8273ffffffffffffffffffffffffffffffffffffffff16600073ffffffffffffffffffffffffffffffffffffffff167fddf252ad1be2c89b69c2b068fc378daa952ba7f163c4a11628f55a4df523b3ef8460405162000505919062000593565b60405180910390a3620005417ffd62fac21eb5e3da6e4bf74f521cb8ddf72b1d1cdf5661983814e1b7b259e23760001b6200057f60201b60201c565b620005757f23486ab4771e7b1bdb825993239a1c8780f7f534af4acb01db818847b5c8660c60001b6200057f60201b60201c565b6001905092915050565b50565b6200058d8162000806565b82525050565b6000602082019050620005aa600083018462000582565b92915050565b6000620005bd8262000806565b9150620005ca8362000806565b9250827fffffffffffffffffffffffffffffffffffffffffffffffffffffffffffffffff0382111562000602576200060162000810565b5b828201905092915050565b6000808291508390505b60018511156200065f5780860481111562000637576200063662000810565b5b6001851615620006475780820291505b808102905062000657856200083f565b945062000617565b94509492505050565b6000620006758262000806565b9150620006828362000806565b9250620006b17fffffffffffffffffffffffffffffffffffffffffffffffffffffffffffffffff8484620006b9565b905092915050565b600082620006cb57600190506200079e565b81620006db57600090506200079e565b8160018114620006f45760028114620006ff5762000735565b60019150506200079e565b60ff84111562000714576200071362000810565b5b8360020a9150848211156200072e576200072d62000810565b5b506200079e565b5060208310610133831016604e8410600b84101617156200076f5782820a90508381111562000769576200076862000810565b5b6200079e565b6200077e84848460016200060d565b9250905081840481111562000798576200079762000810565b5b81810290505b9392505050565b6000620007b28262000806565b9150620007bf8362000806565b9250817fffffffffffffffffffffffffffffffffffffffffffffffffffffffffffffffff0483118215151615620007fb57620007fa62000810565b5b828202905092915050565b6000819050919050565b7f4e487b7100000000000000000000000000000000000000000000000000000000600052601160045260246000fd5b60008160011c9050919050565b616a7e806200085c6000396000f3fe608060405234801561001057600080fd5b506004361061018e5760003560e01c80638456cb59116100de578063c4f3a85311610097578063dd62ed3e11610071578063dd62ed3e14610525578063e583983614610555578063f2fde38b14610585578063f7b188a5146105b55761018e565b8063c4f3a85314610494578063d1c46916146104c4578063d8fb9337146104f45761018e565b80638456cb59146103a95780638d1fdf2f146103c75780638da5cb5b146103f757806395d89b4114610415578063a9059cbb14610433578063b2520a7c146104635761018e565b806342966c681161014b578063715018a611610125578063715018a6146102fb57806379cc6790146103195780637eee288d1461034957806383cfab42146103795761018e565b806342966c681461027d5780635c975abb146102ad57806370a08231146102cb5761018e565b806306fdde0314610193578063095ea7b3146101b157806318160ddd146101e157806323b872dd146101ff578063313ce5671461022f57806338b820921461024d575b600080fd5b61019b6105d3565b6040516101a89190616618565b60405180910390f35b6101cb60048036038101906101c69190615f8b565b610694565b6040516101d891906165fd565b60405180910390f35b6101e96108a8565b6040516101f691906167da565b60405180910390f35b61021960048036038101906102149190615f3c565b610936565b60405161022691906165fd565b60405180910390f35b6102376110fd565b604051610244919061681e565b60405180910390f35b61026760048036038101906102629190615fc7565b61118a565b60405161027491906165fd565b60405180910390f35b61029760048036038101906102929190616016565b61159b565b6040516102a491906165fd565b60405180910390f35b6102b561188c565b6040516102c291906165fd565b60405180910390f35b6102e560048036038101906102e09190615ed7565b611927565b6040516102f291906167da565b60405180910390f35b6103036119f4565b60405161031091906165fd565b60405180910390f35b610333600480360381019061032e9190615f8b565b611c21565b60405161034091906165fd565b60405180910390f35b610363600480360381019061035e9190615f8b565b611fa2565b60405161037091906165fd565b60405180910390f35b610393600480360381019061038e9190615ed7565b6121b4565b6040516103a091906165fd565b60405180910390f35b6103b1612526565b6040516103be91906165fd565b60405180910390f35b6103e160048036038101906103dc9190615ed7565b61299a565b6040516103ee91906165fd565b60405180910390f35b6103ff612d0c565b60405161040c91906165e2565b60405180910390f35b61041d612dba565b60405161042a9190616618565b60405180910390f35b61044d60048036038101906104489190615f8b565b612e7b565b60405161045a91906165fd565b60405180910390f35b61047d60048036038101906104789190615f8b565b613556565b60405161048b9291906167f5565b60405180910390f35b6104ae60048036038101906104a99190615ed7565b61374b565b6040516104bb91906165fd565b60405180910390f35b6104de60048036038101906104d99190615ed7565b613aba565b6040516104eb91906165fd565b60405180910390f35b61050e60048036038101906105099190615ed7565b613e6f565b60405161051c9291906167f5565b60405180910390f35b61053f600480360381019061053a9190615f00565b613fda565b60405161054c91906167da565b60405180910390f35b61056f600480360381019061056a9190615ed7565b6140e5565b60405161057c91906165fd565b60405180910390f35b61059f600480360381019061059a9190615ed7565b6141bf565b6040516105ac91906165fd565b60405180910390f35b6105bd61450d565b6040516105ca91906165fd565b60405180910390f35b60606106017f038e2ee8a7d09ede5e854cbddb8ba3e91676f0f916ce8e23bcc017f05422899a60001b614980565b61062d7f66c81af586ed14c841b9022d6027ffb843784f1c88d1ee36b80a778b2084127a60001b614980565b6106597fd90940530f784a7ced40a72774eeef46d947e5e4e2043e5044b0dab4b54e0fce60001b614980565b6040518060400160405280600c81526020017f4d45544120434f4e434552540000000000000000000000000000000000000000815250905090565b60006106c27f79ece27512dcafd4a2e84d16140fd293497168f6898a7767aab53b455653aa2e60001b614980565b6106ee7faf82ae8cd78c780b0ff1a039b051dd5813c2bc1ed0301297da95fd638fd36fee60001b614980565b61071a7f070c0399185f74b16fce0e93879e8511cdb0b5307a152f8eaa90782db2c2ebe360001b614980565b6107467f4138117d35aa0ce6328740fd7b4ec8c50ae10d35b8adf009552bb53e1d3df4b560001b614980565b600073ffffffffffffffffffffffffffffffffffffffff168373ffffffffffffffffffffffffffffffffffffffff1614156107b6576040517f08c379a00000000000000000000000000000000000000000000000000000000081526004016107ad9061665a565b60405180910390fd5b6107e27f5bc066c18b227eaad9b70e90a77491975f8bfd3022ab2131ce2a5893465ed35a60001b614980565b61080e7f802788552ae412d1e7ac83560088a7130d7eb21bf9de3ba355dc0be676868ea060001b614980565b61083a7ffafbe14bca7603dda65c0f1cdcc7f04a4e4a9d47c6243a7c61e598547bf2d3c960001b614980565b610845338484614983565b506108727fe14b3545f1bbec2cc6eb03cfd3c7c82e9743dd4be41f19806a48ed63413650c260001b614980565b61089e7f98615477d898e422126fe81ce52b10eeee91f1d366b8d928183e202767a052db60001b614980565b6001905092915050565b60006108d67f4bd0717e43b8925d8dc9141772f6f7636d0a0433f73e026e820647b8542f642860001b614baa565b6109027f6139b5f12a832006485094b9ab0b86ab709b2e24393460d219c038de945a1c2060001b614baa565b61092e7fa923e4a0fadcfa145eb2c46659577bdf2a694b551fa185a45d26646a9fb2d58760001b614baa565b600054905090565b6000836109657f7857655e54e638e4d11460115aaa038d07429f5112ebc2fbed6e4997fe1f80ff60001b614bad565b6109917fa53034f14a99f9d75f722c0c6361c35f8d9a4d1bea6293be2b5c1be1a0b5ead760001b614bad565b6109bd7f48b439b3118506b0f04db61a990896493af16a7543fcc204267fcde6222b280b60001b614bad565b6109e97f07d0c9da2a5b6d6e6501d51501602d6d297e1c2791fc1df7236e809ba9535bab60001b614bad565b600760008273ffffffffffffffffffffffffffffffffffffffff1673ffffffffffffffffffffffffffffffffffffffff16815260200190815260200160002060009054906101000a900460ff1615610a76576040517f08c379a0000000000000000000000000000000000000000000000000000000008152600401610a6d9061677a565b60405180910390fd5b610aa27fd468095937d422d9505cf758f253d2940975442bc402128b219ed77f722dcb6e60001b614bad565b610ace7f1bbef53f1d34145e2b39cd5630468dd99cd5a9e16721d21654210825751e099860001b614bad565b610afa7f2d141b28692a95ba911e4c36d8e55eadb8a2ed3561fdca6ffdcf5e425d3cb9ed60001b614bb0565b610b267f762fc2e5cc6fc1796b65928689cc0599aa664dc802ac9e349dc4e9006907ca9760001b614bb0565b610b527f2408833b8485e1714d9b9c6da0fe93acc9bb6855dbc2e185ff21c26941f92b7460001b614bb0565b610b7e7f9157306eb06bf3a910b8c10f5c650afc09326ba985a50c059040c50d180aa9a860001b614bb0565b600660009054906101000a900460ff1615610bce576040517f08c379a0000000000000000000000000000000000000000000000000000000008152600401610bc5906166fa565b60405180910390fd5b610bfa7f55f8034b329988d55d671e0e19dd83a05fc76ecf0db9c244131cb1364548e77160001b614bb0565b610c267fb075144e5752c7969f50f287c9343f26e4dfdd364ba0325d053d40a9dacfd3a260001b614bb0565b8483610c547f815389bb9cfc926a45c1e951b018788f507acd9feb32746931f278a279e69c9660001b614bb3565b610c807f7c3cd08a781998598e069c81e0e2e7f4b0ca3737522cb63e1957769fd8ea82e760001b614bb3565b610cac7f6b808c6201dd471626107b8b6f489335aa5f9da0b602c58664878c06b4fbaef960001b614bb3565b610cd87f12d24acfa9a515212ba02da453dab0cdeef7bfc834a6d477357987e1056e1b8e60001b614bb3565b80600560008473ffffffffffffffffffffffffffffffffffffffff1673ffffffffffffffffffffffffffffffffffffffff16815260200190815260200160002054610d239190616855565b600160008473ffffffffffffffffffffffffffffffffffffffff1673ffffffffffffffffffffffffffffffffffffffff168152602001908152602001600020541015610da4576040517f08c379a0000000000000000000000000000000000000000000000000000000008152600401610d9b9061675a565b60405180910390fd5b610dd07fe52166e483f7fcb1c7ac73cb94e699bcd9779f70f417d4b8b058dc93a242e8d860001b614bb3565b610dfc7fa58f134bd38321e4292e3fd3541bbafd3c7d0de03dd6dabba902dfa1a466d71160001b614bb3565b610e287f63bf2b8589bc54a16238de0bee844fae3384966dff4568b83213353bc5b6741a60001b614980565b610e547fe7e254050ffc3e568cbc59cf9c549b4503195bb9cb0b5cbca1139767d630df0960001b614980565b610e807fc4370a7a27d9b9fe51d226745f01a24da6e261471d7dc377b64032abbe8e493e60001b614980565b610eac7f5b2a09ffe510e082d17bcdfedb667db86ffb2cc90d40fb7fdaa85cd6ad0ad4a760001b614980565b600073ffffffffffffffffffffffffffffffffffffffff168673ffffffffffffffffffffffffffffffffffffffff161415610f1c576040517f08c379a0000000000000000000000000000000000000000000000000000000008152600401610f13906166da565b60405180910390fd5b610f487fb1d03881507a13a4ee3495c4e0bc08faa5bfa447b46d547d2da532f6ca3f999c60001b614980565b610f747f1ba22df690e337b07c2a5c336d1df272d36ea714375675d3265a518e95c5e96a60001b614980565b610fa07ff86b3e8b16258b24b30aa358e0415146abe0b49936713d856773c0778d1b9d3460001b614980565b610fab878787614bb6565b50610fd87f9c75478380016476b8e9f0a0846549ef0abda84d7dffe37ffd90753635d3834660001b614980565b6110047fc83608c154c963a122be0716e5c29c501bca4f3715a19a8f4b3978fd4ad6454660001b614980565b611096873387600260008c73ffffffffffffffffffffffffffffffffffffffff1673ffffffffffffffffffffffffffffffffffffffff16815260200190815260200160002060003373ffffffffffffffffffffffffffffffffffffffff1673ffffffffffffffffffffffffffffffffffffffff1681526020019081526020016000205461109191906168ab565b614983565b506110c37ff9daceb6de2c856afca16cf2902305185b16e3cb6df1b7661370d55224d25fb760001b614980565b6110ef7fd7c8693eef558ba7881aa1e7c2f800793c081485eb4ca1ac2c8fd66f56167adf60001b614980565b600193505050509392505050565b600061112b7fa9706dcb43bbc150605fdc90bf88f3ed99f9dc82de910b2e4c22a9f9cca9ed5560001b614980565b6111577f4879be81a006df5d74a6e7441e3e91dd0598bb24c88eb8e120e092433477c03860001b614980565b6111837fc6a03c0d6bc78f018f632f564c6703cbfbbf41ea127ca1fd53d61746656e349d60001b614980565b6012905090565b60006111b87f602d703e7a3463d0b2913b4d7c736d6e93aa47c592d30130a5fb23661f387fc560001b614ed0565b6111e47fd92ca58ca8f09a1b909bdd3af2a5255217324a2fb94d5c63dfd72706b1f0c2be60001b614ed0565b6112107fce58fdce94a345ca7f0205ee619845552d0f91153b411c934a02dbc4471def9b60001b614ed0565b61123c7fa8e66ddad752fa23ae2c4293ded6f9402ffa751c96d0218df08bfc9b09099cfb60001b614ed0565b600360009054906101000a900473ffffffffffffffffffffffffffffffffffffffff1673ffffffffffffffffffffffffffffffffffffffff163373ffffffffffffffffffffffffffffffffffffffff16146112cc576040517f08c379a00000000000000000000000000000000000000000000000000000000081526004016112c39061671a565b60405180910390fd5b6112f87fbc9e3da51dfef2b8eac39e6513e991b832dd324794e59c2d2638ed90f8474e0960001b614ed0565b6113247f3b1220f6016edd4d18672df61176b4c84e8e5f2fb05b76c1da9435d0ddb5aa1760001b614ed0565b6113507fba47def93d88035397c38c4776884af68ca95e44d0b173add97c2e76543a973e60001b614bb3565b61137c7f82d4057625e8d5b1a6f7f7f35da24c14f9c91cfed2259e6222de98fc170e438560001b614bb3565b6113a87f55637d5c6a13d6fd30dce6914f1c5fc3c1a54e2da400f72cdbc94186acb16c8a60001b614bb3565b6113d47ffe69b6584f988e9b17ff4b67d8173616b1d12a55ccc8ddb652830da52254986e60001b614bb3565b600073ffffffffffffffffffffffffffffffffffffffff168473ffffffffffffffffffffffffffffffffffffffff161415611444576040517f08c379a000000000000000000000000000000000000000000000000000000000815260040161143b9061663a565b60405180910390fd5b6114707ff22ca7bdfa34aebef057c9ccade46943c7154b3819034114dd6f80e8642173ed60001b614bb3565b61149c7f20dc8f27e9df4bb1a8a978262d9379ab59e215b4a29a43d50200c80922ce289060001b614bb3565b6114c87f5fc3a7fdaf7d01685827c677c0e2a22f213fa993c110f6b62826be9e7785344060001b614bb3565b6114d3338585614bb6565b506115007f7d4bcfcdf79be615c36a20b0eb976463ff06b6179a6368fe8c589114c860f3b960001b614bb3565b61152c7fa25ddc085c7fd8e703efb58ebe9f1cf08f580c55c455c5810d7fd6b4d4ddc6b060001b614bb3565b611537848484614ed3565b506115647f86b91e70df8c5b115c380de31a7090bcf614df7d37750e6e651b14938dab88d060001b614bb3565b6115907f94e9d9106edddc2c6952b0f78cdf5c287beedb3ce6fdc04ca3bcd2a46738003e60001b614bb3565b600190509392505050565b60006115c97f2d141b28692a95ba911e4c36d8e55eadb8a2ed3561fdca6ffdcf5e425d3cb9ed60001b614bb0565b6115f57f762fc2e5cc6fc1796b65928689cc0599aa664dc802ac9e349dc4e9006907ca9760001b614bb0565b6116217f2408833b8485e1714d9b9c6da0fe93acc9bb6855dbc2e185ff21c26941f92b7460001b614bb0565b61164d7f9157306eb06bf3a910b8c10f5c650afc09326ba985a50c059040c50d180aa9a860001b614bb0565b600660009054906101000a900460ff161561169d576040517f08c379a0000000000000000000000000000000000000000000000000000000008152600401611694906166fa565b60405180910390fd5b6116c97f55f8034b329988d55d671e0e19dd83a05fc76ecf0db9c244131cb1364548e77160001b614bb0565b6116f57fb075144e5752c7969f50f287c9343f26e4dfdd364ba0325d053d40a9dacfd3a260001b614bb0565b6117217f4c5db109ab78930fe6fc6a3ceb55aad96d1bf3976a5ffa77f131ee58bc8fd12e60001b61544b565b61174d7fd24186510cadf12a18c9eb69e39d741861ecb83a335b2b8cef311b49eaad28e260001b61544b565b6117797f3e8350ebba81c7029a90e706fb3310d07cd0b23f4df0d90210e2ada8839f8c5a60001b61544b565b611783338361544e565b90506117b17fdc270d59eedc78cafaef337d6d0b458f4d52417c531f8eb71f3c7903f12a81ce60001b61544b565b6117dd7fec88da6f6b12b163b2a12479ae0cbfae63ab77749111da93baadb3126259a48e60001b61544b565b3373ffffffffffffffffffffffffffffffffffffffff167fcc16f5dbb4873280815c1ee09dbd06736cffcc184412cf7a71a0fdb75d397ca58360405161182391906167da565b60405180910390a26118577f08dec0902065d68a5aab6f91c1680a581ee4897480fecd9193b2800e6d04906d60001b61544b565b6118837fa04d743f65c0670c9319038f1aee60ed2dfaa35ee78ae0ec2dcc82eb38c4e54a60001b61544b565b60019050919050565b60006118ba7f18fd889876da8653209424c3b48aae05037c99148444d1f123285764514a163160001b614bb0565b6118e67fdea3630ec8ab224c78df94ac29eb2adbe43b3863cd21e7e33b99a13233d84e1b60001b614bb0565b6119127f3867282a1046a33e7eebcd0cf7ee7c84d175483b315e64aa4fad22062072eaf760001b614bb0565b600660009054906101000a900460ff16905090565b60006119557f63d295beaeb28bdbc193016cc8db2dd674fa62e4c9eb2adede324b4ed0dcc13a60001b614baa565b6119817fef8017e2b9dd0981fba78692d267a31bf202fd38eed3b29f2fcc070b07e83c8660001b614baa565b6119ad7fef4aecba4f8d960f10deeca16d897ebc96fee031ac05337eecf578cbe9d24fb760001b614baa565b600160008373ffffffffffffffffffffffffffffffffffffffff1673ffffffffffffffffffffffffffffffffffffffff168152602001908152602001600020549050919050565b6000611a227f602d703e7a3463d0b2913b4d7c736d6e93aa47c592d30130a5fb23661f387fc560001b614ed0565b611a4e7fd92ca58ca8f09a1b909bdd3af2a5255217324a2fb94d5c63dfd72706b1f0c2be60001b614ed0565b611a7a7fce58fdce94a345ca7f0205ee619845552d0f91153b411c934a02dbc4471def9b60001b614ed0565b611aa67fa8e66ddad752fa23ae2c4293ded6f9402ffa751c96d0218df08bfc9b09099cfb60001b614ed0565b600360009054906101000a900473ffffffffffffffffffffffffffffffffffffffff1673ffffffffffffffffffffffffffffffffffffffff163373ffffffffffffffffffffffffffffffffffffffff1614611b36576040517f08c379a0000000000000000000000000000000000000000000000000000000008152600401611b2d9061671a565b60405180910390fd5b611b627fbc9e3da51dfef2b8eac39e6513e991b832dd324794e59c2d2638ed90f8474e0960001b614ed0565b611b8e7f3b1220f6016edd4d18672df61176b4c84e8e5f2fb05b76c1da9435d0ddb5aa1760001b614ed0565b611bba7fd764470c5f1e167ee15b7406c44263326240f7563185d01bd33b2c797dd027ee60001b614ed0565b611be67f8f16fcf9404736cc2c98959dffb406e3830524cb6ae5b0677efc25b2eb013c6460001b614ed0565b611c127f758e43c9c4a47855d429841245d665751688631e371a85e157efba320518824660001b614ed0565b611c1c60006156ee565b905090565b6000611c4f7f2d141b28692a95ba911e4c36d8e55eadb8a2ed3561fdca6ffdcf5e425d3cb9ed60001b614bb0565b611c7b7f762fc2e5cc6fc1796b65928689cc0599aa664dc802ac9e349dc4e9006907ca9760001b614bb0565b611ca77f2408833b8485e1714d9b9c6da0fe93acc9bb6855dbc2e185ff21c26941f92b7460001b614bb0565b611cd37f9157306eb06bf3a910b8c10f5c650afc09326ba985a50c059040c50d180aa9a860001b614bb0565b600660009054906101000a900460ff1615611d23576040517f08c379a0000000000000000000000000000000000000000000000000000000008152600401611d1a906166fa565b60405180910390fd5b611d4f7f55f8034b329988d55d671e0e19dd83a05fc76ecf0db9c244131cb1364548e77160001b614bb0565b611d7b7fb075144e5752c7969f50f287c9343f26e4dfdd364ba0325d053d40a9dacfd3a260001b614bb0565b611da77f47c7aad33cc5a40ef611f699135a32711124813682e054b5023ec1292b50ceb060001b61544b565b611dd37fdad56fbd3863dc503713b0e85a2136f9c5e6d70c9a351fccd580381bcab50b1360001b61544b565b611dff7ff3f2b26be29701236e5cb1e2f95c0178b369ca42192276f5449679607438f4ca60001b61544b565b611e09838361544e565b50611e367f725d68408a52aa8d84dae04894944bc642ebd49987d0b007a370d24762e9eee160001b61544b565b611e627ffe4bdbf2b503d8d13c3647ae7e052db8696bf0fdd4d3157285014f50e11a6acc60001b61544b565b8273ffffffffffffffffffffffffffffffffffffffff167fcc16f5dbb4873280815c1ee09dbd06736cffcc184412cf7a71a0fdb75d397ca583604051611ea891906167da565b60405180910390a2611edc7fdfed24d914de80a3f42f93340858a5e4ab4dd5cee6dc6d5c18edf4843f890ff560001b61544b565b611f087f129233e6f18dc128892cd53e960338936db17c26295b27af4a941a5e5f0e1a3460001b61544b565b611f9a833384600260008873ffffffffffffffffffffffffffffffffffffffff1673ffffffffffffffffffffffffffffffffffffffff16815260200190815260200160002060003373ffffffffffffffffffffffffffffffffffffffff1673ffffffffffffffffffffffffffffffffffffffff16815260200190815260200160002054611f9591906168ab565b614983565b905092915050565b6000611fd07f2cb6d3d0ab2664b744ed3cf0e1dfc11060dad291fe6f93a5caddcd9d5ddb68a360001b614bb3565b611ffc7f96718cc81e6bb2a3336aab3e071d488699bd3596c3db07fd80debedc8a3495a360001b614bb3565b6120287fe97541d45abd2dccb071cf4f4a870844ff42122be3682702291ebf12a4bec0a160001b614bb3565b6120547f6353e0b4029406c4d9755b56c832999480e5976ba639b0e425f82d899b12554b60001b614bb3565b42600460008573ffffffffffffffffffffffffffffffffffffffff1673ffffffffffffffffffffffffffffffffffffffff16815260200190815260200160002083815481106120cc577f4e487b7100000000000000000000000000000000000000000000000000000000600052603260045260246000fd5b9060005260206000209060020201600101541061211e576040517f08c379a0000000000000000000000000000000000000000000000000000000008152600401612115906166ba565b60405180910390fd5b61214a7f6341a8aab2469629fac9fabe6db5149bab01908fd51c79a76af7209fe1ea264060001b614bb3565b6121767f1f8e89514257959043627d81ed3a8cde4aaa29fa561858c4d4ea42c69c9e54b660001b614bb3565b6121a27f080ec25b6df4b84275c1bb5e2df67e0fa1aec7a386182695f1ac5e76f279dfbf60001b614bb3565b6121ac83836158ea565b905092915050565b60006121e27f602d703e7a3463d0b2913b4d7c736d6e93aa47c592d30130a5fb23661f387fc560001b614ed0565b61220e7fd92ca58ca8f09a1b909bdd3af2a5255217324a2fb94d5c63dfd72706b1f0c2be60001b614ed0565b61223a7fce58fdce94a345ca7f0205ee619845552d0f91153b411c934a02dbc4471def9b60001b614ed0565b6122667fa8e66ddad752fa23ae2c4293ded6f9402ffa751c96d0218df08bfc9b09099cfb60001b614ed0565b600360009054906101000a900473ffffffffffffffffffffffffffffffffffffffff1673ffffffffffffffffffffffffffffffffffffffff163373ffffffffffffffffffffffffffffffffffffffff16146122f6576040517f08c379a00000000000000000000000000000000000000000000000000000000081526004016122ed9061671a565b60405180910390fd5b6123227fbc9e3da51dfef2b8eac39e6513e991b832dd324794e59c2d2638ed90f8474e0960001b614ed0565b61234e7f3b1220f6016edd4d18672df61176b4c84e8e5f2fb05b76c1da9435d0ddb5aa1760001b614ed0565b61237a7ff0c77d6e6316d02d885bb02d2073b3da8b4692c1d6b4f920db0a641b44e0a83a60001b614bad565b6123a67f77e13b8593e7e12310c1452823e7a02ecc5a463cec3ecbde2ff8192321733ab760001b614bad565b6123d27f94397dda418c4bf79ed52425a25acc479fbabf59d4ea8bc951fbed1c9dee7a4460001b614bad565b6000600760008473ffffffffffffffffffffffffffffffffffffffff1673ffffffffffffffffffffffffffffffffffffffff16815260200190815260200160002060006101000a81548160ff0219169083151502179055506124567fe5603880c1820625865f991adc14b2c344665b4e33b23ee9b52b97e82ce5a2d960001b614bad565b6124827f3031eaef18d5ee8a2dad1b53ddada3bd685cc8d319dc3b7e8b7771e817c9846d60001b614bad565b8173ffffffffffffffffffffffffffffffffffffffff167fca5069937e68fd197927055037f59d7c90bf75ac104e6e375539ef480c3ad6ee60405160405180910390a26124f17f9fcd398c5bfca0bb92365b10bfc906453efb0366249a322ffab9bfbc1409957a60001b614bad565b61251d7f2052f7d2abc32702f2f1512468c4c1dba227e7234c8297f7497302eea5d8884260001b614bad565b60019050919050565b60006125547f602d703e7a3463d0b2913b4d7c736d6e93aa47c592d30130a5fb23661f387fc560001b614ed0565b6125807fd92ca58ca8f09a1b909bdd3af2a5255217324a2fb94d5c63dfd72706b1f0c2be60001b614ed0565b6125ac7fce58fdce94a345ca7f0205ee619845552d0f91153b411c934a02dbc4471def9b60001b614ed0565b6125d87fa8e66ddad752fa23ae2c4293ded6f9402ffa751c96d0218df08bfc9b09099cfb60001b614ed0565b600360009054906101000a900473ffffffffffffffffffffffffffffffffffffffff1673ffffffffffffffffffffffffffffffffffffffff163373ffffffffffffffffffffffffffffffffffffffff1614612668576040517f08c379a000000000000000000000000000000000000000000000000000000000815260040161265f9061671a565b60405180910390fd5b6126947fbc9e3da51dfef2b8eac39e6513e991b832dd324794e59c2d2638ed90f8474e0960001b614ed0565b6126c07f3b1220f6016edd4d18672df61176b4c84e8e5f2fb05b76c1da9435d0ddb5aa1760001b614ed0565b6126ec7f2d141b28692a95ba911e4c36d8e55eadb8a2ed3561fdca6ffdcf5e425d3cb9ed60001b614bb0565b6127187f762fc2e5cc6fc1796b65928689cc0599aa664dc802ac9e349dc4e9006907ca9760001b614bb0565b6127447f2408833b8485e1714d9b9c6da0fe93acc9bb6855dbc2e185ff21c26941f92b7460001b614bb0565b6127707f9157306eb06bf3a910b8c10f5c650afc09326ba985a50c059040c50d180aa9a860001b614bb0565b600660009054906101000a900460ff16156127c0576040517f08c379a00000000000000000000000000000000000000000000000000000000081526004016127b7906166fa565b60405180910390fd5b6127ec7f55f8034b329988d55d671e0e19dd83a05fc76ecf0db9c244131cb1364548e77160001b614bb0565b6128187fb075144e5752c7969f50f287c9343f26e4dfdd364ba0325d053d40a9dacfd3a260001b614bb0565b6128447f76a5140ff0247dc1ba8a606a206b28f3204ecd77bfb9ecb27a7d553698b46e7c60001b614bb0565b6128707f1bcb12a35870af49fb090346f3d97b2d068f7582ce3dd60a0a741ed7402e4bd560001b614bb0565b61289c7fb989a1d399a256e44550fa1481eb65a46a81d357a6b4e9040900dca15e3ebf8960001b614bb0565b6001600660006101000a81548160ff0219169083151502179055506128e37fcd28e02d93b5b30e76b3471922c6f1322431d2a44ca9b1d543da466503fa09b560001b614bb0565b61290f7feb1b4ccaa584c0835d2f3e1afaad46e5a838b3f9af857f712eed2d992e2c5b2160001b614bb0565b7f9e87fac88ff661f02d44f95383c817fece4bce600a3dab7a54406878b965e75260405160405180910390a16129677f10a26c6ae28c5b9694d106abe68cd705dda9f73b2f2010874909e3f928310bf060001b614bb0565b6129937f3818f8279eec71808d8732a3d9cf8e5310febfec66e5cddb162882e7e37063c160001b614bb0565b6001905090565b60006129c87f602d703e7a3463d0b2913b4d7c736d6e93aa47c592d30130a5fb23661f387fc560001b614ed0565b6129f47fd92ca58ca8f09a1b909bdd3af2a5255217324a2fb94d5c63dfd72706b1f0c2be60001b614ed0565b612a207fce58fdce94a345ca7f0205ee619845552d0f91153b411c934a02dbc4471def9b60001b614ed0565b612a4c7fa8e66ddad752fa23ae2c4293ded6f9402ffa751c96d0218df08bfc9b09099cfb60001b614ed0565b600360009054906101000a900473ffffffffffffffffffffffffffffffffffffffff1673ffffffffffffffffffffffffffffffffffffffff163373ffffffffffffffffffffffffffffffffffffffff1614612adc576040517f08c379a0000000000000000000000000000000000000000000000000000000008152600401612ad39061671a565b60405180910390fd5b612b087fbc9e3da51dfef2b8eac39e6513e991b832dd324794e59c2d2638ed90f8474e0960001b614ed0565b612b347f3b1220f6016edd4d18672df61176b4c84e8e5f2fb05b76c1da9435d0ddb5aa1760001b614ed0565b612b607f40ae5d150755cd45b9e6ce16271e7f8857404a011dd48932dfd1d28c2cfc2fab60001b614bad565b612b8c7f3aef4d35d2c04975f114d0caa963fe27dabd580738491fe6571f388ecfc63e4660001b614bad565b612bb87f4ffa4d66e4a6f3cec9dea2efc5c21294acc2ca51e8efad91a72e932373ec675560001b614bad565b6001600760008473ffffffffffffffffffffffffffffffffffffffff1673ffffffffffffffffffffffffffffffffffffffff16815260200190815260200160002060006101000a81548160ff021916908315150217905550612c3c7f1eb3d2ce26039a182ef37cc932abd4377c5885adebefb4bca082fad5424cd1ac60001b614bad565b612c687f0419125394d5ce89924afcb515f704cd85e783b2341493a21bece0db95f12d9e60001b614bad565b8173ffffffffffffffffffffffffffffffffffffffff167faf85b60d26151edd11443b704d424da6c43d0468f2235ebae3d1904dbc32304960405160405180910390a2612cd77fb3503f87b1b84cfafbbd50892f9b79871748329c82534d03b2aa200de4996de460001b614bad565b612d037ff11f632d7f30cace63dfed659e395e5a057f42019bd01f67c5538b356c1de7ac60001b614bad565b60019050919050565b6000612d3a7faa4946c997c8d9e185e5bd336239e1538bdf6277c9ed07f24cb161390305e91a60001b614ed0565b612d667fd6f35532eb599961386a69d528965512fde632ded832cc75c4c00c3940329d5460001b614ed0565b612d927f8bca74d9c11ad28e5835b85881063c665f723ad95fc5562a92463eb078e4f3d860001b614ed0565b600360009054906101000a900473ffffffffffffffffffffffffffffffffffffffff16905090565b6060612de87f247a38103a3f2a7fce27989584771642376e2a8a3755da0b18e76ac48f281c6b60001b614980565b612e147f5a43c107e08e396f80c0b4878a11c0fad11ecc091d3e22e60441ab93bef55e1d60001b614980565b612e407fbfb4fb29ec7e522e9efce878f4e81d3997b73f9a51b33f4b4ea4f8dd2a5acb7260001b614980565b6040518060400160405280600481526020017f4d45434f00000000000000000000000000000000000000000000000000000000815250905090565b600033612eaa7f7857655e54e638e4d11460115aaa038d07429f5112ebc2fbed6e4997fe1f80ff60001b614bad565b612ed67fa53034f14a99f9d75f722c0c6361c35f8d9a4d1bea6293be2b5c1be1a0b5ead760001b614bad565b612f027f48b439b3118506b0f04db61a990896493af16a7543fcc204267fcde6222b280b60001b614bad565b612f2e7f07d0c9da2a5b6d6e6501d51501602d6d297e1c2791fc1df7236e809ba9535bab60001b614bad565b600760008273ffffffffffffffffffffffffffffffffffffffff1673ffffffffffffffffffffffffffffffffffffffff16815260200190815260200160002060009054906101000a900460ff1615612fbb576040517f08c379a0000000000000000000000000000000000000000000000000000000008152600401612fb29061677a565b60405180910390fd5b612fe77fd468095937d422d9505cf758f253d2940975442bc402128b219ed77f722dcb6e60001b614bad565b6130137f1bbef53f1d34145e2b39cd5630468dd99cd5a9e16721d21654210825751e099860001b614bad565b61303f7f2d141b28692a95ba911e4c36d8e55eadb8a2ed3561fdca6ffdcf5e425d3cb9ed60001b614bb0565b61306b7f762fc2e5cc6fc1796b65928689cc0599aa664dc802ac9e349dc4e9006907ca9760001b614bb0565b6130977f2408833b8485e1714d9b9c6da0fe93acc9bb6855dbc2e185ff21c26941f92b7460001b614bb0565b6130c37f9157306eb06bf3a910b8c10f5c650afc09326ba985a50c059040c50d180aa9a860001b614bb0565b600660009054906101000a900460ff1615613113576040517f08c379a000000000000000000000000000000000000000000000000000000000815260040161310a906166fa565b60405180910390fd5b61313f7f55f8034b329988d55d671e0e19dd83a05fc76ecf0db9c244131cb1364548e77160001b614bb0565b61316b7fb075144e5752c7969f50f287c9343f26e4dfdd364ba0325d053d40a9dacfd3a260001b614bb0565b33836131997f815389bb9cfc926a45c1e951b018788f507acd9feb32746931f278a279e69c9660001b614bb3565b6131c57f7c3cd08a781998598e069c81e0e2e7f4b0ca3737522cb63e1957769fd8ea82e760001b614bb3565b6131f17f6b808c6201dd471626107b8b6f489335aa5f9da0b602c58664878c06b4fbaef960001b614bb3565b61321d7f12d24acfa9a515212ba02da453dab0cdeef7bfc834a6d477357987e1056e1b8e60001b614bb3565b80600560008473ffffffffffffffffffffffffffffffffffffffff1673ffffffffffffffffffffffffffffffffffffffff168152602001908152602001600020546132689190616855565b600160008473ffffffffffffffffffffffffffffffffffffffff1673ffffffffffffffffffffffffffffffffffffffff1681526020019081526020016000205410156132e9576040517f08c379a00000000000000000000000000000000000000000000000000000000081526004016132e09061675a565b60405180910390fd5b6133157fe52166e483f7fcb1c7ac73cb94e699bcd9779f70f417d4b8b058dc93a242e8d860001b614bb3565b6133417fa58f134bd38321e4292e3fd3541bbafd3c7d0de03dd6dabba902dfa1a466d71160001b614bb3565b61336d7ff52b2496ad91d5139b5168e965f3e47b674296496985f98011c358a5e3ff188260001b614980565b6133997fc62751e48026ce0a0be98c9df960b1dd45bddba999b66ff2efb8c865b70aeee960001b614980565b6133c57fa3f1a2ac07308569067133b8debb904853dbed9d0acea090736b7cee2251fd4260001b614980565b6133f17ffff26741587fdaa162f01c499996b03fa687bab76800497ae9555e8e7e27ead260001b614980565b600073ffffffffffffffffffffffffffffffffffffffff168673ffffffffffffffffffffffffffffffffffffffff161415613461576040517f08c379a00000000000000000000000000000000000000000000000000000000081526004016134589061673a565b60405180910390fd5b61348d7f139ed574547a938087f4dc83189532f3386d1f3541e475415fbf70201ea0f1a060001b614980565b6134b97f5933a7a6371ac2f2bfcf1a7b1df67a020a8c44ad831f33b9ea2d3eb85c21d0ea60001b614980565b6134e57f5e9dc7c6a7be2f1d272ff2deaa24a17bf4fa821759c5d356beef7a51bd56c3c260001b614980565b6134f0338787614bb6565b5061351d7f4c83a9bc3ae4a5b3aebcee579c292c65a96e7c8982730dc8582dcf1ec4de9e0260001b614980565b6135497f997d1bd6989dd45f6bc1f2c57ec9c2243680ec16f792c832b82e468f211dc26360001b614980565b6001935050505092915050565b6000806135857f6e45e45aa31c82f93a33b6b3f79a2d8e40c6e6355e3e51dbe0cf6243e549d8d860001b614bb3565b6135b17f4888ffae917628a5d0a712431154f7e4f225e89aec9870b421cd033b66df38a860001b614bb3565b6135dd7f2384bfeb18fbdd94a47f67cb48af8ba61d3d5766f014efa8333d4782aa062f0160001b614bb3565b6000600460008673ffffffffffffffffffffffffffffffffffffffff1673ffffffffffffffffffffffffffffffffffffffff1681526020019081526020016000208481548110613656577f4e487b7100000000000000000000000000000000000000000000000000000000600052603260045260246000fd5b90600052602060002090600202016040518060400160405290816000820154815260200160018201548152505090506136b17f061794d2bfc65a1d91cdb4c5bbfe4b109acaabbb92f66f91cfcfdddbc3f7e32560001b614bb3565b6136dd7ff46b7b207cc404d7171e21a67541cd66ecacbd1b2e653621c42ddad33a98f88d60001b614bb3565b806000015192506137107fc8138c4a59323194c7890ec4e2aba4b0d192fae17c6d5b4bcbc9936637c1a3be60001b614bb3565b61373c7ff96398c032804ecd8e75332b674654b049e87435a60f859adaf575706eee30ef60001b614bb3565b80602001519150509250929050565b60006137797fef85e393a629d0ff1964640f94474fc097edc281cf58b02fef4ea63f978b522960001b614bb3565b6137a57f2a51f727c3a0ebc9151982199a652dbabcf50447b963c7a34d6eb05cb2a25dc060001b614bb3565b6137d17fff3b2bf4bf8540a6aa5a1f9ecc7289086caf39f767a84ddbfab5cdc91cc18e2b60001b614bb3565b60005b600460008473ffffffffffffffffffffffffffffffffffffffff1673ffffffffffffffffffffffffffffffffffffffff16815260200190815260200160002080549050811015613a585761384a7f491b85396a193b9092daeff0fda6ccfed2c721f9d0cd08cc0c76fe3b022e2ab660001b614bb3565b808061385590616991565b9150506138847f247774f1210b7836027adda9b91788f5a7d319013b0f8aa1419e3590c720029960001b614bb3565b6138b07faa316729f9aac31f059044054807c1aa3442609b6c3451d873221228d7f9072160001b614bb3565b42600460008573ffffffffffffffffffffffffffffffffffffffff1673ffffffffffffffffffffffffffffffffffffffff1681526020019081526020016000206001836138fd91906168ab565b81548110613934577f4e487b7100000000000000000000000000000000000000000000000000000000600052603260045260246000fd5b9060005260206000209060020201600101541015613a26576139787f10b9085aa10efbd9e61e94413cb9b37bc666d901d8952b4dfeb52bf5544813a360001b614bb3565b6139a47fb08a2f47e4975cc3395acce44770772220c5739e87a246115cd5713a72a2539860001b614bb3565b6139d07f8be31f783ea83ad622c82d1b68903b6765fda2d9a7607a570fe102097ec25b6b60001b614bb3565b6139e6836001836139e191906168ab565b6158ea565b50613a137f41b13b19b40e38ea0f4f6a376b40193f0a8b19ae0e7a66955defd8ffde86bc8c60001b614bb3565b8080613a1e90616967565b915050613a53565b613a527f4c8a3d5bdc08530fa25105cde3e104c4db1d641d9f254a69dce84603c8be83a160001b614bb3565b5b6137d4565b50613a857fd4fc5e7149f65df763de19c3dcdde71f14e056b809161bd06834db99e8d363bf60001b614bb3565b613ab17f502a592465df7506fcc1c6c593f6c9f8f0db179f2a663102da0f02d928bc63d560001b614bb3565b60019050919050565b6000613ae87f602d703e7a3463d0b2913b4d7c736d6e93aa47c592d30130a5fb23661f387fc560001b614ed0565b613b147fd92ca58ca8f09a1b909bdd3af2a5255217324a2fb94d5c63dfd72706b1f0c2be60001b614ed0565b613b407fce58fdce94a345ca7f0205ee619845552d0f91153b411c934a02dbc4471def9b60001b614ed0565b613b6c7fa8e66ddad752fa23ae2c4293ded6f9402ffa751c96d0218df08bfc9b09099cfb60001b614ed0565b600360009054906101000a900473ffffffffffffffffffffffffffffffffffffffff1673ffffffffffffffffffffffffffffffffffffffff163373ffffffffffffffffffffffffffffffffffffffff1614613bfc576040517f08c379a0000000000000000000000000000000000000000000000000000000008152600401613bf39061671a565b60405180910390fd5b613c287fbc9e3da51dfef2b8eac39e6513e991b832dd324794e59c2d2638ed90f8474e0960001b614ed0565b613c547f3b1220f6016edd4d18672df61176b4c84e8e5f2fb05b76c1da9435d0ddb5aa1760001b614ed0565b613c807f1f6444d565679ac7bc8c08a84a87b24c2dbce6105aac58f9ddfb05786f2de10660001b614bb3565b613cac7f1faf4aec25ef225184c2e9305d6497e13e1ff7a75370b36835a6ad70e2d0b19060001b614bb3565b613cd87fd66229d0a49088e9ef5108cae8a5069ea707a51e367ce8af3c3ebb40a63614c460001b614bb3565b60005b600460008473ffffffffffffffffffffffffffffffffffffffff1673ffffffffffffffffffffffffffffffffffffffff16815260200190815260200160002080549050811015613e0d57613d517f6548ca94d73b87075a5098ce9de9b6e1c61c6dd027486f41ddcbe31554fc98e160001b614bb3565b8080613d5c90616991565b915050613d8b7fdddc97b7ef9d6f2f0edf8b4e2e1bfa01a2b3d6e177e1cb81ba9d5a5897fc1a1560001b614bb3565b613db77f386edcedfd8e08882ae82335dfc87df01c33615c2fe8f839f1caa33136d64ad660001b614bb3565b613dcd83600183613dc891906168ab565b6158ea565b50613dfa7ffee7e60330b4f3fdd489fb56475049825d82455ce63975193680dc931415637b60001b614bb3565b8080613e0590616967565b915050613cdb565b50613e3a7f5d482ef02175ac7c7ba2736ff5aceb4446bfe56033ccb0f0c690cae0ea181dc560001b614bb3565b613e667f2ec09992bf087c2fb64da5ecba7c86c2c050f25d70871769294c001ee47fa4f160001b614bb3565b60019050919050565b600080613e9e7f7a0d2afff6449f72e1b35c1d6c1dd635afdd2aba935cc506919458fdac6a5ad560001b614bb3565b613eca7f9aa2b6cf4dbca338aa4ec83e92fc313e73f3c6b8b325a2c79af05c031199389360001b614bb3565b613ef67f9b950d50e4b0dff063535aeba35cc3dce098940da97056b678dc7795d3284adc60001b614bb3565b600560008473ffffffffffffffffffffffffffffffffffffffff1673ffffffffffffffffffffffffffffffffffffffff168152602001908152602001600020549150613f647fb762bb69d0c89821ac2e95b6ae533e76f72904d2ed5b89f8d8e33928bb1e4cd960001b614bb3565b613f907fa46e1e6faa373fba3d3d4125a57e456e6c1f013815da73692889f2e205472efa60001b614bb3565b600460008473ffffffffffffffffffffffffffffffffffffffff1673ffffffffffffffffffffffffffffffffffffffff168152602001908152602001600020805490509050915091565b60006140087fd7e854e760fb61f0f6f26b2aebf58ba7ab72424d4964aa93eb04381727de79db60001b614baa565b6140347fcebbe8c7b595ad5c80a9e711cc2d2989317c4c8a05089e7d7b3000289de356f960001b614baa565b6140607f61b265e2a9d0ec1ae64a510867bbd78a2d0f725f41fce59266f619c20bf2c6e360001b614baa565b600260008473ffffffffffffffffffffffffffffffffffffffff1673ffffffffffffffffffffffffffffffffffffffff16815260200190815260200160002060008373ffffffffffffffffffffffffffffffffffffffff1673ffffffffffffffffffffffffffffffffffffffff16815260200190815260200160002054905092915050565b60006141137fb0c2e6f183fe1e952f3a1517bdaca9797fbe580fb512587453105ebf263e8c9a60001b614bad565b61413f7f90033007c698997a884d17d522253ff019e3460ea75e849c661fe8959c26716260001b614bad565b61416b7fb9b578c89e4b429da2a14f91ada59a7b8933fc81af697fb5c2f49bfc7e2841cd60001b614bad565b600760008373ffffffffffffffffffffffffffffffffffffffff1673ffffffffffffffffffffffffffffffffffffffff16815260200190815260200160002060009054906101000a900460ff169050919050565b60006141ed7f602d703e7a3463d0b2913b4d7c736d6e93aa47c592d30130a5fb23661f387fc560001b614ed0565b6142197fd92ca58ca8f09a1b909bdd3af2a5255217324a2fb94d5c63dfd72706b1f0c2be60001b614ed0565b6142457fce58fdce94a345ca7f0205ee619845552d0f91153b411c934a02dbc4471def9b60001b614ed0565b6142717fa8e66ddad752fa23ae2c4293ded6f9402ffa751c96d0218df08bfc9b09099cfb60001b614ed0565b600360009054906101000a900473ffffffffffffffffffffffffffffffffffffffff1673ffffffffffffffffffffffffffffffffffffffff163373ffffffffffffffffffffffffffffffffffffffff1614614301576040517f08c379a00000000000000000000000000000000000000000000000000000000081526004016142f89061671a565b60405180910390fd5b61432d7fbc9e3da51dfef2b8eac39e6513e991b832dd324794e59c2d2638ed90f8474e0960001b614ed0565b6143597f3b1220f6016edd4d18672df61176b4c84e8e5f2fb05b76c1da9435d0ddb5aa1760001b614ed0565b6143857f9aa7cd56eb2ac8d3b9bf1f6e158294dd47d37dfe00f658a4b73daa0386d1f46860001b614ed0565b6143b17feefd7473f3aabb47af946cffca9d74e2dd864f3650e5b1ebfc69b804ace87cd660001b614ed0565b6143dd7fa51d59d286e7dccccb5b9b5278e33d0c86d8e76fb04ecc55e7ea55a6bf98e6b460001b614ed0565b6144097ff3325b1053562c6b0ac8b7f027861c875b61314777aaef9ee53f50787b867e6e60001b614ed0565b600073ffffffffffffffffffffffffffffffffffffffff168273ffffffffffffffffffffffffffffffffffffffff161415614479576040517f08c379a0000000000000000000000000000000000000000000000000000000008152600401614470906167ba565b60405180910390fd5b6144a57f7177fa699f1df126f12f33649e41ffd5caa883d0911fc942e721eaccb24e310260001b614ed0565b6144d17f15fdbcd8997f71a0a67378bd867901f94e00f560bd927bbb0f21a100b8c004a560001b614ed0565b6144fd7f73d28aa364c2a1dc068fa42fe1db16e2f7273cc3b0041c387fdccceca80c486960001b614ed0565b614506826156ee565b9050919050565b600061453b7f602d703e7a3463d0b2913b4d7c736d6e93aa47c592d30130a5fb23661f387fc560001b614ed0565b6145677fd92ca58ca8f09a1b909bdd3af2a5255217324a2fb94d5c63dfd72706b1f0c2be60001b614ed0565b6145937fce58fdce94a345ca7f0205ee619845552d0f91153b411c934a02dbc4471def9b60001b614ed0565b6145bf7fa8e66ddad752fa23ae2c4293ded6f9402ffa751c96d0218df08bfc9b09099cfb60001b614ed0565b600360009054906101000a900473ffffffffffffffffffffffffffffffffffffffff1673ffffffffffffffffffffffffffffffffffffffff163373ffffffffffffffffffffffffffffffffffffffff161461464f576040517f08c379a00000000000000000000000000000000000000000000000000000000081526004016146469061671a565b60405180910390fd5b61467b7fbc9e3da51dfef2b8eac39e6513e991b832dd324794e59c2d2638ed90f8474e0960001b614ed0565b6146a77f3b1220f6016edd4d18672df61176b4c84e8e5f2fb05b76c1da9435d0ddb5aa1760001b614ed0565b6146d37ffd6916811fb3fb2d16082f81a6e5b13357eff5c419296d6418a7f58888ffd70460001b614bb0565b6146ff7ffea925cad26b272546da964c995ad8ddb11e9aecf2a8271e41d8517373d23e7560001b614bb0565b61472b7f436ab2b9b1cf34302bfc4a2fd917cd7c2e2877385e1b48b1d4b494ec95ea492260001b614bb0565b6147577fe49e15a458202222d36dc25175a7b912d1ae384b509606ee33d90257a6f81e9160001b614bb0565b600660009054906101000a900460ff166147a6576040517f08c379a000000000000000000000000000000000000000000000000000000000815260040161479d9061679a565b60405180910390fd5b6147d27f9ce174943bba426312f9a91b853a0729dbf125fc11b7593f639e60af42af9ef960001b614bb0565b6147fe7f57390424b042e110cb9e6e38b35ec7c87a4872b0dce4e62be097bea398b0e87060001b614bb0565b61482a7f979768b8675c70ad1b286ef0075f49ae217e815a17e65c84f33b961d3e4cbe3a60001b614bb0565b6148567ffc1bc7679a34d1ecb0805263316778150e7df2b56a858de118193392b1f2d31260001b614bb0565b6148827f594e11142ce9fa56f49158fdfa6bfc0c7dbcd3f703c6f6f92df67ac1731f04d260001b614bb0565b6000600660006101000a81548160ff0219169083151502179055506148c97f6633106554df78980011ccef8fc89d7bf99dbad0b3f6cbc70bcb1595e386e48060001b614bb0565b6148f57f7860e6cb02f64c3bff67df62aebccaccc041bfb611f9c9c928b74c56ac33f4cc60001b614bb0565b7fa45f47fdea8a1efdd9029a5691c7f759c32b7c698632b563573e155625d1693360405160405180910390a161494d7f6a3ca1cb1b18fe7ccd0632490b87ebcefc8e417a0ac140f3d7e6143a081dea7260001b614bb0565b6149797fb6358665602b49e712ddbbe8764bbc693eefa2eb74b76e64c858f182af3b26bd60001b614bb0565b6001905090565b50565b60006149b17f33f3cba1c1e5643238af646b2f820eb3915b21dfaf29f150b9c5d3509b5e9eb860001b614baa565b6149dd7f7b107c46bd96a8d240501f45debdba717f96443fb26dbc57800b19ddaf03591d60001b614baa565b614a097f6198956d23c2f47fb18c22f65d748337b923d928f338c3dc5461a0770cb2f03b60001b614baa565b81600260008673ffffffffffffffffffffffffffffffffffffffff1673ffffffffffffffffffffffffffffffffffffffff16815260200190815260200160002060008573ffffffffffffffffffffffffffffffffffffffff1673ffffffffffffffffffffffffffffffffffffffff16815260200190815260200160002081905550614ab67f4b17817eaec0d0710dc61c4990dbb27be893ae85f59e39a0f042cfb97312f07660001b614baa565b614ae27f684f7ff8cdfe5604c0c766ac7fdc127440d54cf272a3190f6e8fae0d2c3a741660001b614baa565b8273ffffffffffffffffffffffffffffffffffffffff168473ffffffffffffffffffffffffffffffffffffffff167f8c5be1e5ebec7d5bd14f71427d1e84f3dd0314c0f7b2291e5b200ac8c7c3b92584604051614b3f91906167da565b60405180910390a3614b737f22d4eb550a8b23c248c58af0df9d713688102cee6fd6486ac69e06de4ef2617d60001b614baa565b614b9f7f7cf2d06a3848b92a2bf48bf7e92427ca062be9541a8763c4f591e30ac54f73b160001b614baa565b600190509392505050565b50565b50565b50565b50565b6000614be47f0e1d569c8d08235768f7d58b8053b45b8140a801e7920ecbb6bd627f01ecc99d60001b614baa565b614c107f7b3aac197fa4bbd55094466b3bd51e8405bdad6a42771f2d67e1d0fe15af3cc660001b614baa565b614c3c7faabe647ff9ac1d0a6c28882dfe74283d4b1ab6414cc3140f4a481414ef76a17760001b614baa565b81600160008673ffffffffffffffffffffffffffffffffffffffff1673ffffffffffffffffffffffffffffffffffffffff16815260200190815260200160002054614c8791906168ab565b600160008673ffffffffffffffffffffffffffffffffffffffff1673ffffffffffffffffffffffffffffffffffffffff16815260200190815260200160002081905550614cf67f55baddd9b71203ebc4e580086a00ed3e80e8b7b91ddd7757e98e002135b934e260001b614baa565b614d227ffd703893fbcde19fe2d4814f7a209acf8e53741a36ec436e267244955fa187d460001b614baa565b81600160008573ffffffffffffffffffffffffffffffffffffffff1673ffffffffffffffffffffffffffffffffffffffff16815260200190815260200160002054614d6d9190616855565b600160008573ffffffffffffffffffffffffffffffffffffffff1673ffffffffffffffffffffffffffffffffffffffff16815260200190815260200160002081905550614ddc7fdf5b421fe0e96563421c540f1f7c7c782c81e6f89b7786d4bf6d1c7b68dc868a60001b614baa565b614e087f4c43201c073182f3efc6ab66f1499310f3e543f0de5d4c0df82076217b6f3aea60001b614baa565b8273ffffffffffffffffffffffffffffffffffffffff168473ffffffffffffffffffffffffffffffffffffffff167fddf252ad1be2c89b69c2b068fc378daa952ba7f163c4a11628f55a4df523b3ef84604051614e6591906167da565b60405180910390a3614e997f32a80d106eb5e675772df47142949f745459bc4a74f86e9ec7befad50c47db9860001b614baa565b614ec57f4293ed5ebc243de390fd150d985b286eb51a46ee7d6b05301aa8793a004fc66060001b614baa565b600190509392505050565b50565b6000614f017fa3a24e4e9efa944dd19cb8f26ba33616698a075a59bda9fa0c8744674643e89160001b614bb3565b614f2d7f95d727d7c9fc4c2164f162b8bd217e415f95ac75e05a3557468028eb5eaa62fc60001b614bb3565b614f597f807f4f16c3b93aafd4518b533f39b06a03f3e45524b493991e97f8f53ec72f0e60001b614bb3565b614f857f0e8a7fa9068b4e39fecb9ce4fd13bea3de7ad4700e19f17d752846490ccc55e060001b614bb3565b428211614fc7576040517f08c379a0000000000000000000000000000000000000000000000000000000008152600401614fbe9061669a565b60405180910390fd5b614ff37f610400df25962a116f9e7b21427e42202ee81e8f629c618457bd337bf1ecc8e160001b614bb3565b61501f7f27de6b61dae9e1ea5a97311be3c5a04b4908cbb21a0e17a102c42b7cd1ecc2bd60001b614bb3565b61504b7f67978346c6302e4379408ecd09b8ec2c8a6b2a48431b34cdb1209f4d80a4761b60001b614bb3565b6150777f4dc05eaaa74fd5bef6b5d72d7bc20b0ba4af1734cf8b69ac03c55f6e61af72ab60001b614bb3565b600560008573ffffffffffffffffffffffffffffffffffffffff1673ffffffffffffffffffffffffffffffffffffffff16815260200190815260200160002054836150c29190616855565b600160008673ffffffffffffffffffffffffffffffffffffffff1673ffffffffffffffffffffffffffffffffffffffff168152602001908152602001600020541015615143576040517f08c379a000000000000000000000000000000000000000000000000000000000815260040161513a9061667a565b60405180910390fd5b61516f7ff208589d3470795ed2380c105f6a3e8fa721a2c90f5024a8efa279d6ffde029760001b614bb3565b61519b7fc0d8e749f0c6dc13ebd81a3170e447f00e99c2c4b9cf5e1bad8ce65c33c6e70c60001b614bb3565b6151c77f0410107923ffa8d91c971760efce30e79f4940a50bea82366377e8e8f84f989360001b614bb3565b82600560008673ffffffffffffffffffffffffffffffffffffffff1673ffffffffffffffffffffffffffffffffffffffff168152602001908152602001600020546152129190616855565b600560008673ffffffffffffffffffffffffffffffffffffffff1673ffffffffffffffffffffffffffffffffffffffff168152602001908152602001600020819055506152817f7b277c3e30954ded55759366433a83850617b11d141c2d22b50450cd8330668560001b614bb3565b6152ad7f4f87aa7f30af03c6212f4797caf55ad7694843d284827ce040edcd5e29485b8360001b614bb3565b600460008573ffffffffffffffffffffffffffffffffffffffff1673ffffffffffffffffffffffffffffffffffffffff16815260200190815260200160002060405180604001604052808581526020018481525090806001815401808255809150506001900390600052602060002090600202016000909190919091506000820151816000015560208201518160010155505061536c7f9e38198c313e6609e4e24968c4bdece1c2b714802a389d5be2f2f837d062bdc760001b614bb3565b6153987f28b5b2e7f1ab4d6b3eebae4f92f223d8912d12d29de02cb7e5b9b4035863db0360001b614bb3565b8373ffffffffffffffffffffffffffffffffffffffff167f49eaf4942f1237055eb4cfa5f31c9dfe50d5b4ade01e021f7de8be2fbbde557b84846040516153e09291906167f5565b60405180910390a26154147f4ec20439d5f1eebff88c296148f6c2b19fc22013b1da15e20502d5509a85687660001b614bb3565b6154407fab6441d39da930fe8a82dbcba476265b60551c1b48a1638e0a6e67bb1594c81d60001b614bb3565b600190509392505050565b50565b600061547c7fb09e2d2820e3dfe0614c4806134f6c92d6129e6b4acdf355aa9ec88e57c3059c60001b614baa565b6154a87f81550d9ecacda3a6c727ebcec73c06102c004e6c238e01e3802d7906a7cbe51260001b614baa565b6154d47f06482ec4395d44ed4a4c1b43d035b1702e387fdc22447d5f4a8300b6cb49c63f60001b614baa565b81600160008573ffffffffffffffffffffffffffffffffffffffff1673ffffffffffffffffffffffffffffffffffffffff1681526020019081526020016000205461551f91906168ab565b600160008573ffffffffffffffffffffffffffffffffffffffff1673ffffffffffffffffffffffffffffffffffffffff1681526020019081526020016000208190555061558e7f9f857bd235805b835cb5ec9aa7d80ede9ec2e0512873c7b4a1472c45f06a27fb60001b614baa565b6155ba7f313f7ca1caab3fbf02628ae35c8311f444a6fb5e19b4497888405878042a74ed60001b614baa565b816000546155c891906168ab565b6000819055506155fa7f13d301f7a3b584754b822f7583dbd506dfa4b3560499acfb48da7fd2bdc99a2160001b614baa565b6156267fb0bf6af58f19fc64dc3ddb41864b8b49cfaf37d0334663ffe55b48b7dce1347a60001b614baa565b600073ffffffffffffffffffffffffffffffffffffffff168373ffffffffffffffffffffffffffffffffffffffff167fddf252ad1be2c89b69c2b068fc378daa952ba7f163c4a11628f55a4df523b3ef8460405161568491906167da565b60405180910390a36156b87fb834186aeb560398cae59805ce2b8b85de6be145a26f8fe4134dc22ff0c40fd160001b614baa565b6156e47ff86514a579608e11139f809c07edf5b3d474c0873e7d6a58d178877f7a88ba6860001b614baa565b6001905092915050565b600061571c7fffbd551eda40f61b75fb62dbc2366015eaa140275f02aa75a64bb3624ca64bd460001b614ed0565b6157487fa3dc7e70b0578cc1633c282231ad7ee46b6b7bd2fa9608e891b7e79e5b3adec260001b614ed0565b6157747f953dd6cf33a824a0abf82953b205dec4a75ea9e79907ad371d317dde2b906e9e60001b614ed0565b8173ffffffffffffffffffffffffffffffffffffffff16600360009054906101000a900473ffffffffffffffffffffffffffffffffffffffff1673ffffffffffffffffffffffffffffffffffffffff167f8be0079c531659141344cd1fd0a4f28419497f9722a3daafe3b4186f6b6457e060405160405180910390a361581c7facd515e058d76ef4227325ace4506dd5297b07ace98a9d69fbba8f94ac80707560001b614ed0565b6158487fdb859cb4f5928267124b0c6414069ecdc975bef4ac6a8126595cdff120ddbb5c60001b614ed0565b81600360006101000a81548173ffffffffffffffffffffffffffffffffffffffff021916908373ffffffffffffffffffffffffffffffffffffffff1602179055506158b57f7d098a2222d95e17d6c6065057352a8ff1208ea7fc4d41fdf20464591d646cab60001b614ed0565b6158e17f18f09ccabdd02e9d02bbd82a7d4c54ced54e03711c605f8eb6f6bbdbf993b22660001b614ed0565b60019050919050565b60006159187f31a13f956124ecab9d5fd6487bbe1cf2e3d4b8c4d15737837a6bdaec723eb26760001b614bb3565b6159447fb3e29a4d22bdc7783bb4bbd8c796e76b0c2e73f9eaa135d0168c5981175b379260001b614bb3565b6159707f6a4379942a3862120740396c8d4538314d8f9c0920f6fc2f57509aea17421ec760001b614bb3565b6000600460008573ffffffffffffffffffffffffffffffffffffffff1673ffffffffffffffffffffffffffffffffffffffff16815260200190815260200160002083815481106159e9577f4e487b7100000000000000000000000000000000000000000000000000000000600052603260045260246000fd5b90600052602060002090600202019050615a257f8d0660fc8034d06212c7de2c12a1dee0eebcf3137a3c88794bf77ff7860d1c7960001b614bb3565b615a517fba154df6e07ea154d1f0644ea0d88eed0a774859dd633f114e2d8f5e6ec2d09b60001b614bb3565b8060000154600560008673ffffffffffffffffffffffffffffffffffffffff1673ffffffffffffffffffffffffffffffffffffffff16815260200190815260200160002054615aa091906168ab565b600560008673ffffffffffffffffffffffffffffffffffffffff1673ffffffffffffffffffffffffffffffffffffffff16815260200190815260200160002081905550615b0f7f7f1189d484113a9ff1cdc771bfb9bd89deb28489d621d58bc816085eccf8cb0a60001b614bb3565b615b3b7fc4ad37eaba050d0848e32a2faf9a5f19aca5568a493d2841bfd886298704c18460001b614bb3565b8373ffffffffffffffffffffffffffffffffffffffff167f6381d9813cabeb57471b5a7e05078e64845ccdb563146a6911d536f24ce960f18260000154604051615b8591906167da565b60405180910390a2615bb97f8e3bc901bce05d5b34fc9d7750a398a782349107c8a5a0dfa2eb5f6590f146d960001b614bb3565b615be57fcff011c2c4dd15b424820fa1bd9bba686278de746a33f3f01a2a31403214d4d160001b614bb3565b600460008573ffffffffffffffffffffffffffffffffffffffff1673ffffffffffffffffffffffffffffffffffffffff1681526020019081526020016000206001600460008773ffffffffffffffffffffffffffffffffffffffff1673ffffffffffffffffffffffffffffffffffffffff16815260200190815260200160002080549050615c7391906168ab565b81548110615caa577f4e487b7100000000000000000000000000000000000000000000000000000000600052603260045260246000fd5b9060005260206000209060020201600460008673ffffffffffffffffffffffffffffffffffffffff1673ffffffffffffffffffffffffffffffffffffffff1681526020019081526020016000208481548110615d2f577f4e487b7100000000000000000000000000000000000000000000000000000000600052603260045260246000fd5b90600052602060002090600202016000820154816000015560018201548160010155905050615d807f47c5f1dcdb925fa919361524bc46ed6abd247fae7fe6c569457a779c9a89a82a60001b614bb3565b615dac7ff6380285ac6003914b58a85e7762b36317de18085125772e68065a7727a2467360001b614bb3565b600460008573ffffffffffffffffffffffffffffffffffffffff1673ffffffffffffffffffffffffffffffffffffffff168152602001908152602001600020805480615e21577f4e487b7100000000000000000000000000000000000000000000000000000000600052603160045260246000fd5b6001900381819060005260206000209060020201600080820160009055600182016000905550509055615e767f41013fa6ad483130eb884124c549bbc4cc2820ffd1e0720df6a01fe341633d3f60001b614bb3565b615ea27f92cebed54f7f343956af482bfd0a9f0cdb0d9d3a42cd770e33ff7f7ba77c8a4160001b614bb3565b600191505092915050565b600081359050615ebc81616a1a565b92915050565b600081359050615ed181616a31565b92915050565b600060208284031215615ee957600080fd5b6000615ef784828501615ead565b91505092915050565b60008060408385031215615f1357600080fd5b6000615f2185828601615ead565b9250506020615f3285828601615ead565b9150509250929050565b600080600060608486031215615f5157600080fd5b6000615f5f86828701615ead565b9350506020615f7086828701615ead565b9250506040615f8186828701615ec2565b9150509250925092565b60008060408385031215615f9e57600080fd5b6000615fac85828601615ead565b9250506020615fbd85828601615ec2565b9150509250929050565b600080600060608486031215615fdc57600080fd5b6000615fea86828701615ead565b9350506020615ffb86828701615ec2565b925050604061600c86828701615ec2565b9150509250925092565b60006020828403121561602857600080fd5b600061603684828501615ec2565b91505092915050565b616048816168df565b82525050565b616057816168f1565b82525050565b600061606882616839565b6160728185616844565b9350616082818560208601616934565b61608b81616a09565b840191505092915050565b60006160a3603e83616844565b91507f45524332304c6f636b61626c652f7472616e73666572576974684c6f636b557060008301527f203a2043616e6e6f742073656e6420746f207a65726f206164647265737300006020830152604082019050919050565b6000616109602983616844565b91507f617070726f7665203a2053686f756c64206e6f7420617070726f7665207a657260008301527f6f206164647265737300000000000000000000000000000000000000000000006020830152604082019050919050565b600061616f604083616844565b91507f45524332304c6f636b61626c652f6c6f636b203a206c6f636b656420746f746160008301527f6c2073686f756c6420626520736d616c6c6572207468616e2062616c616e63656020830152604082019050919050565b60006161d5602b83616844565b91507f45524332304c6f636b61626c652f6c6f636b203a2043616e6e6f74207365742060008301527f64756520746f20706173740000000000000000000000000000000000000000006020830152604082019050919050565b600061623b602e83616844565b91507f45524332304c6f636b61626c652f756e6c6f636b3a2063616e6e6f7420756e6c60008301527f6f636b206265666f7265206475650000000000000000000000000000000000006020830152604082019050919050565b60006162a1602e83616844565b91507f7472616e7366657246726f6d203a2053686f756c64206e6f742073656e64207460008301527f6f207a65726f20616464726573730000000000000000000000000000000000006020830152604082019050919050565b6000616307603983616844565b91507f506175736564203a20546869732066756e6374696f6e2063616e206f6e6c792060008301527f62652063616c6c6564207768656e206e6f7420706175736564000000000000006020830152604082019050919050565b600061636d602f83616844565b91507f4f776e61626c65203a2046756e6374696f6e2063616c6c656420627920756e6160008301527f7574686f72697a656420757365722e00000000000000000000000000000000006020830152604082019050919050565b60006163d3602a83616844565b91507f7472616e73666572203a2053686f756c64206e6f742073656e6420746f207a6560008301527f726f2061646472657373000000000000000000000000000000000000000000006020830152604082019050919050565b6000616439603383616844565b91507f45524332304c6f636b61626c652f43616e6e6f742073656e64206d6f7265207460008301527f68616e20756e6c6f636b656420616d6f756e74000000000000000000000000006020830152604082019050919050565b600061649f601c83616844565b91507f467265657a61626c65203a207461726765742069732066726f7a656e000000006000830152602082019050919050565b60006164df603583616844565b91507f506175736564203a20546869732066756e6374696f6e2063616e206f6e6c792060008301527f62652063616c6c6564207768656e2070617573656400000000000000000000006020830152604082019050919050565b6000616545604583616844565b91507f4f776e61626c652f7472616e736665724f776e657273686970203a2063616e6e60008301527f6f74207472616e73666572206f776e65727368697020746f207a65726f20616460208301527f64726573730000000000000000000000000000000000000000000000000000006040830152606082019050919050565b6165cd8161691d565b82525050565b6165dc81616927565b82525050565b60006020820190506165f7600083018461603f565b92915050565b6000602082019050616612600083018461604e565b92915050565b60006020820190508181036000830152616632818461605d565b905092915050565b6000602082019050818103600083015261665381616096565b9050919050565b60006020820190508181036000830152616673816160fc565b9050919050565b6000602082019050818103600083015261669381616162565b9050919050565b600060208201905081810360008301526166b3816161c8565b9050919050565b600060208201905081810360008301526166d38161622e565b9050919050565b600060208201905081810360008301526166f381616294565b9050919050565b60006020820190508181036000830152616713816162fa565b9050919050565b6000602082019050818103600083015261673381616360565b9050919050565b60006020820190508181036000830152616753816163c6565b9050919050565b600060208201905081810360008301526167738161642c565b9050919050565b6000602082019050818103600083015261679381616492565b9050919050565b600060208201905081810360008301526167b3816164d2565b9050919050565b600060208201905081810360008301526167d381616538565b9050919050565b60006020820190506167ef60008301846165c4565b92915050565b600060408201905061680a60008301856165c4565b61681760208301846165c4565b9392505050565b600060208201905061683360008301846165d3565b92915050565b600081519050919050565b600082825260208201905092915050565b60006168608261691d565b915061686b8361691d565b9250827fffffffffffffffffffffffffffffffffffffffffffffffffffffffffffffffff038211156168a05761689f6169da565b5b828201905092915050565b60006168b68261691d565b91506168c18361691d565b9250828210156168d4576168d36169da565b5b828203905092915050565b60006168ea826168fd565b9050919050565b60008115159050919050565b600073ffffffffffffffffffffffffffffffffffffffff82169050919050565b6000819050919050565b600060ff82169050919050565b60005b83811015616952578082015181840152602081019050616937565b83811115616961576000848401525b50505050565b60006169728261691d565b91506000821415616986576169856169da565b5b600182039050919050565b600061699c8261691d565b91507fffffffffffffffffffffffffffffffffffffffffffffffffffffffffffffffff8214156169cf576169ce6169da565b5b600182019050919050565b7f4e487b7100000000000000000000000000000000000000000000000000000000600052601160045260246000fd5b6000601f19601f8301169050919050565b616a23816168df565b8114616a2e57600080fd5b50565b616a3a8161691d565b8114616a4557600080fd5b5056fea26469706673582212203b3df98eb77f294a8bbd7052dc647bafa9185574c0ccb286619f29612c88df1864736f6c63430008000033",
  "linkReferences": {},
  "deployedLinkReferences": {}
}