{
  "_format": "hh-sol-artifact-1",
  "contractName": "FreezableMock",
  "sourceName": "contracts/mocks/FreezableMock.sol",
  "abi": [
    {
      "inputs": [],
      "stateMutability": "nonpayable",
      "type": "constructor"
    },
    {
      "anonymous": false,
      "inputs": [
        {
          "indexed": true,
          "internalType": "address",
          "name": "target",
          "type": "address"
        }
      ],
      "name": "Freeze",
      "type": "event"
    },
    {
      "anonymous": false,
      "inputs": [
        {
          "indexed": true,
          "internalType": "address",
          "name": "currentOwner",
          "type": "address"
        },
        {
          "indexed": true,
          "internalType": "address",
          "name": "newOwner",
          "type": "address"
        }
      ],
      "name": "OwnershipTransferred",
      "type": "event"
    },
    {
      "anonymous": false,
      "inputs": [
        {
          "indexed": true,
          "internalType": "address",
          "name": "target",
          "type": "address"
        }
      ],
      "name": "Unfreeze",
      "type": "event"
    },
    {
      "inputs": [
        {
          "internalType": "address",
          "name": "target",
          "type": "address"
        }
      ],
      "name": "freeze",
      "outputs": [
        {
          "internalType": "bool",
          "name": "success",
          "type": "bool"
        }
      ],
      "stateMutability": "nonpayable",
      "type": "function"
    },
    {
      "inputs": [
        {
          "internalType": "address",
          "name": "target",
          "type": "address"
        }
      ],
      "name": "isFrozen",
      "outputs": [
        {
          "internalType": "bool",
          "name": "frozen",
          "type": "bool"
        }
      ],
      "stateMutability": "view",
      "type": "function"
    },
    {
      "inputs": [],
      "name": "owner",
      "outputs": [
        {
          "internalType": "address",
          "name": "ownerAddress",
          "type": "address"
        }
      ],
      "stateMutability": "view",
      "type": "function"
    },
    {
      "inputs": [],
      "name": "renounceOwnership",
      "outputs": [
        {
          "internalType": "bool",
          "name": "success",
          "type": "bool"
        }
      ],
      "stateMutability": "nonpayable",
      "type": "function"
    },
    {
      "inputs": [
        {
          "internalType": "address",
          "name": "newOwner",
          "type": "address"
        }
      ],
      "name": "transferOwnership",
      "outputs": [
        {
          "internalType": "bool",
          "name": "success",
          "type": "bool"
        }
      ],
      "stateMutability": "nonpayable",
      "type": "function"
    },
    {
      "inputs": [
        {
          "internalType": "address",
          "name": "target",
          "type": "address"
        }
      ],
      "name": "unFreeze",
      "outputs": [
        {
          "internalType": "bool",
          "name": "success",
          "type": "bool"
        }
      ],
      "stateMutability": "nonpayable",
      "type": "function"
    },
    {
      "inputs": [
        {
          "internalType": "address",
          "name": "target",
          "type": "address"
        }
      ],
      "name": "whenNotFrozenMock",
      "outputs": [],
      "stateMutability": "nonpayable",
      "type": "function"
    }
  ],
  "bytecode": "0x60806040523480156200001157600080fd5b50620000467f27f6888e68809cffd107c6d6cd9330ad00d3ab2683d0bc460a37cc6d15b2d4e360001b620001b760201b60201c565b6200007a7f7f3742095077cccaa3582a028877eeef819bf77fba393af551462842e42363d160001b620001b760201b60201c565b620000ae7faab8ac08ed7eda70c304fc3d27763697ad7d15b0eadb53ff1d83f81c73e25aff60001b620001b760201b60201c565b336000806101000a81548173ffffffffffffffffffffffffffffffffffffffff021916908373ffffffffffffffffffffffffffffffffffffffff160217905550620001227f4b07da9d0fb033c0435dcb930f4db429cc327f13d13f603e5d852d6a7ef2e01b60001b620001b760201b60201c565b620001567f9fab8e02d6a51a353362b22f8f42db9b55a516b1701529b89916ebb03c39579b60001b620001b760201b60201c565b3373ffffffffffffffffffffffffffffffffffffffff16600073ffffffffffffffffffffffffffffffffffffffff167f8be0079c531659141344cd1fd0a4f28419497f9722a3daafe3b4186f6b6457e060405160405180910390a3620001ba565b50565b6115cf80620001ca6000396000f3fe608060405234801561001057600080fd5b506004361061007d5760003560e01c80638d1fdf2f1161005b5780638d1fdf2f146100ec5780638da5cb5b1461011c578063e58398361461013a578063f2fde38b1461016a5761007d565b8063715018a61461008257806383cfab42146100a0578063861a9856146100d0575b600080fd5b61008a61019a565b60405161009791906114b8565b60405180910390f35b6100ba60048036038101906100b59190611324565b6103c5565b6040516100c791906114b8565b60405180910390f35b6100ea60048036038101906100e59190611324565b610735565b005b61010660048036038101906101019190611324565b6108cf565b60405161011391906114b8565b60405180910390f35b610124610c3e565b604051610131919061149d565b60405180910390f35b610154600480360381019061014f9190611324565b610cea565b60405161016191906114b8565b60405180910390f35b610184600480360381019061017f9190611324565b610dc4565b60405161019191906114b8565b60405180910390f35b60006101c87f602d703e7a3463d0b2913b4d7c736d6e93aa47c592d30130a5fb23661f387fc560001b611110565b6101f47fd92ca58ca8f09a1b909bdd3af2a5255217324a2fb94d5c63dfd72706b1f0c2be60001b611110565b6102207fce58fdce94a345ca7f0205ee619845552d0f91153b411c934a02dbc4471def9b60001b611110565b61024c7fa8e66ddad752fa23ae2c4293ded6f9402ffa751c96d0218df08bfc9b09099cfb60001b611110565b60008054906101000a900473ffffffffffffffffffffffffffffffffffffffff1673ffffffffffffffffffffffffffffffffffffffff163373ffffffffffffffffffffffffffffffffffffffff16146102da576040517f08c379a00000000000000000000000000000000000000000000000000000000081526004016102d1906114d3565b60405180910390fd5b6103067fbc9e3da51dfef2b8eac39e6513e991b832dd324794e59c2d2638ed90f8474e0960001b611110565b6103327f3b1220f6016edd4d18672df61176b4c84e8e5f2fb05b76c1da9435d0ddb5aa1760001b611110565b61035e7fd764470c5f1e167ee15b7406c44263326240f7563185d01bd33b2c797dd027ee60001b611110565b61038a7f8f16fcf9404736cc2c98959dffb406e3830524cb6ae5b0677efc25b2eb013c6460001b611110565b6103b67f758e43c9c4a47855d429841245d665751688631e371a85e157efba320518824660001b611110565b6103c06000611113565b905090565b60006103f37f602d703e7a3463d0b2913b4d7c736d6e93aa47c592d30130a5fb23661f387fc560001b611110565b61041f7fd92ca58ca8f09a1b909bdd3af2a5255217324a2fb94d5c63dfd72706b1f0c2be60001b611110565b61044b7fce58fdce94a345ca7f0205ee619845552d0f91153b411c934a02dbc4471def9b60001b611110565b6104777fa8e66ddad752fa23ae2c4293ded6f9402ffa751c96d0218df08bfc9b09099cfb60001b611110565b60008054906101000a900473ffffffffffffffffffffffffffffffffffffffff1673ffffffffffffffffffffffffffffffffffffffff163373ffffffffffffffffffffffffffffffffffffffff1614610505576040517f08c379a00000000000000000000000000000000000000000000000000000000081526004016104fc906114d3565b60405180910390fd5b6105317fbc9e3da51dfef2b8eac39e6513e991b832dd324794e59c2d2638ed90f8474e0960001b611110565b61055d7f3b1220f6016edd4d18672df61176b4c84e8e5f2fb05b76c1da9435d0ddb5aa1760001b611110565b6105897ff0c77d6e6316d02d885bb02d2073b3da8b4692c1d6b4f920db0a641b44e0a83a60001b61130c565b6105b57f77e13b8593e7e12310c1452823e7a02ecc5a463cec3ecbde2ff8192321733ab760001b61130c565b6105e17f94397dda418c4bf79ed52425a25acc479fbabf59d4ea8bc951fbed1c9dee7a4460001b61130c565b6000600160008473ffffffffffffffffffffffffffffffffffffffff1673ffffffffffffffffffffffffffffffffffffffff16815260200190815260200160002060006101000a81548160ff0219169083151502179055506106657fe5603880c1820625865f991adc14b2c344665b4e33b23ee9b52b97e82ce5a2d960001b61130c565b6106917f3031eaef18d5ee8a2dad1b53ddada3bd685cc8d319dc3b7e8b7771e817c9846d60001b61130c565b8173ffffffffffffffffffffffffffffffffffffffff167fca5069937e68fd197927055037f59d7c90bf75ac104e6e375539ef480c3ad6ee60405160405180910390a26107007f9fcd398c5bfca0bb92365b10bfc906453efb0366249a322ffab9bfbc1409957a60001b61130c565b61072c7f2052f7d2abc32702f2f1512468c4c1dba227e7234c8297f7497302eea5d8884260001b61130c565b60019050919050565b806107627f7857655e54e638e4d11460115aaa038d07429f5112ebc2fbed6e4997fe1f80ff60001b61130c565b61078e7fa53034f14a99f9d75f722c0c6361c35f8d9a4d1bea6293be2b5c1be1a0b5ead760001b61130c565b6107ba7f48b439b3118506b0f04db61a990896493af16a7543fcc204267fcde6222b280b60001b61130c565b6107e67f07d0c9da2a5b6d6e6501d51501602d6d297e1c2791fc1df7236e809ba9535bab60001b61130c565b600160008273ffffffffffffffffffffffffffffffffffffffff1673ffffffffffffffffffffffffffffffffffffffff16815260200190815260200160002060009054906101000a900460ff1615610873576040517f08c379a000000000000000000000000000000000000000000000000000000000815260040161086a906114f3565b60405180910390fd5b61089f7fd468095937d422d9505cf758f253d2940975442bc402128b219ed77f722dcb6e60001b61130c565b6108cb7f1bbef53f1d34145e2b39cd5630468dd99cd5a9e16721d21654210825751e099860001b61130c565b5050565b60006108fd7f602d703e7a3463d0b2913b4d7c736d6e93aa47c592d30130a5fb23661f387fc560001b611110565b6109297fd92ca58ca8f09a1b909bdd3af2a5255217324a2fb94d5c63dfd72706b1f0c2be60001b611110565b6109557fce58fdce94a345ca7f0205ee619845552d0f91153b411c934a02dbc4471def9b60001b611110565b6109817fa8e66ddad752fa23ae2c4293ded6f9402ffa751c96d0218df08bfc9b09099cfb60001b611110565b60008054906101000a900473ffffffffffffffffffffffffffffffffffffffff1673ffffffffffffffffffffffffffffffffffffffff163373ffffffffffffffffffffffffffffffffffffffff1614610a0f576040517f08c379a0000000000000000000000000000000000000000000000000000000008152600401610a06906114d3565b60405180910390fd5b610a3b7fbc9e3da51dfef2b8eac39e6513e991b832dd324794e59c2d2638ed90f8474e0960001b611110565b610a677f3b1220f6016edd4d18672df61176b4c84e8e5f2fb05b76c1da9435d0ddb5aa1760001b611110565b610a937f40ae5d150755cd45b9e6ce16271e7f8857404a011dd48932dfd1d28c2cfc2fab60001b61130c565b610abf7f3aef4d35d2c04975f114d0caa963fe27dabd580738491fe6571f388ecfc63e4660001b61130c565b610aeb7f4ffa4d66e4a6f3cec9dea2efc5c21294acc2ca51e8efad91a72e932373ec675560001b61130c565b60018060008473ffffffffffffffffffffffffffffffffffffffff1673ffffffffffffffffffffffffffffffffffffffff16815260200190815260200160002060006101000a81548160ff021916908315150217905550610b6e7f1eb3d2ce26039a182ef37cc932abd4377c5885adebefb4bca082fad5424cd1ac60001b61130c565b610b9a7f0419125394d5ce89924afcb515f704cd85e783b2341493a21bece0db95f12d9e60001b61130c565b8173ffffffffffffffffffffffffffffffffffffffff167faf85b60d26151edd11443b704d424da6c43d0468f2235ebae3d1904dbc32304960405160405180910390a2610c097fb3503f87b1b84cfafbbd50892f9b79871748329c82534d03b2aa200de4996de460001b61130c565b610c357ff11f632d7f30cace63dfed659e395e5a057f42019bd01f67c5538b356c1de7ac60001b61130c565b60019050919050565b6000610c6c7faa4946c997c8d9e185e5bd336239e1538bdf6277c9ed07f24cb161390305e91a60001b611110565b610c987fd6f35532eb599961386a69d528965512fde632ded832cc75c4c00c3940329d5460001b611110565b610cc47f8bca74d9c11ad28e5835b85881063c665f723ad95fc5562a92463eb078e4f3d860001b611110565b60008054906101000a900473ffffffffffffffffffffffffffffffffffffffff16905090565b6000610d187fb0c2e6f183fe1e952f3a1517bdaca9797fbe580fb512587453105ebf263e8c9a60001b61130c565b610d447f90033007c698997a884d17d522253ff019e3460ea75e849c661fe8959c26716260001b61130c565b610d707fb9b578c89e4b429da2a14f91ada59a7b8933fc81af697fb5c2f49bfc7e2841cd60001b61130c565b600160008373ffffffffffffffffffffffffffffffffffffffff1673ffffffffffffffffffffffffffffffffffffffff16815260200190815260200160002060009054906101000a900460ff169050919050565b6000610df27f602d703e7a3463d0b2913b4d7c736d6e93aa47c592d30130a5fb23661f387fc560001b611110565b610e1e7fd92ca58ca8f09a1b909bdd3af2a5255217324a2fb94d5c63dfd72706b1f0c2be60001b611110565b610e4a7fce58fdce94a345ca7f0205ee619845552d0f91153b411c934a02dbc4471def9b60001b611110565b610e767fa8e66ddad752fa23ae2c4293ded6f9402ffa751c96d0218df08bfc9b09099cfb60001b611110565b60008054906101000a900473ffffffffffffffffffffffffffffffffffffffff1673ffffffffffffffffffffffffffffffffffffffff163373ffffffffffffffffffffffffffffffffffffffff1614610f04576040517f08c379a0000000000000000000000000000000000000000000000000000000008152600401610efb906114d3565b60405180910390fd5b610f307fbc9e3da51dfef2b8eac39e6513e991b832dd324794e59c2d2638ed90f8474e0960001b611110565b610f5c7f3b1220f6016edd4d18672df61176b4c84e8e5f2fb05b76c1da9435d0ddb5aa1760001b611110565b610f887f9aa7cd56eb2ac8d3b9bf1f6e158294dd47d37dfe00f658a4b73daa0386d1f46860001b611110565b610fb47feefd7473f3aabb47af946cffca9d74e2dd864f3650e5b1ebfc69b804ace87cd660001b611110565b610fe07fa51d59d286e7dccccb5b9b5278e33d0c86d8e76fb04ecc55e7ea55a6bf98e6b460001b611110565b61100c7ff3325b1053562c6b0ac8b7f027861c875b61314777aaef9ee53f50787b867e6e60001b611110565b600073ffffffffffffffffffffffffffffffffffffffff168273ffffffffffffffffffffffffffffffffffffffff16141561107c576040517f08c379a000000000000000000000000000000000000000000000000000000000815260040161107390611513565b60405180910390fd5b6110a87f7177fa699f1df126f12f33649e41ffd5caa883d0911fc942e721eaccb24e310260001b611110565b6110d47f15fdbcd8997f71a0a67378bd867901f94e00f560bd927bbb0f21a100b8c004a560001b611110565b6111007f73d28aa364c2a1dc068fa42fe1db16e2f7273cc3b0041c387fdccceca80c486960001b611110565b61110982611113565b9050919050565b50565b60006111417fffbd551eda40f61b75fb62dbc2366015eaa140275f02aa75a64bb3624ca64bd460001b611110565b61116d7fa3dc7e70b0578cc1633c282231ad7ee46b6b7bd2fa9608e891b7e79e5b3adec260001b611110565b6111997f953dd6cf33a824a0abf82953b205dec4a75ea9e79907ad371d317dde2b906e9e60001b611110565b8173ffffffffffffffffffffffffffffffffffffffff1660008054906101000a900473ffffffffffffffffffffffffffffffffffffffff1673ffffffffffffffffffffffffffffffffffffffff167f8be0079c531659141344cd1fd0a4f28419497f9722a3daafe3b4186f6b6457e060405160405180910390a361123f7facd515e058d76ef4227325ace4506dd5297b07ace98a9d69fbba8f94ac80707560001b611110565b61126b7fdb859cb4f5928267124b0c6414069ecdc975bef4ac6a8126595cdff120ddbb5c60001b611110565b816000806101000a81548173ffffffffffffffffffffffffffffffffffffffff021916908373ffffffffffffffffffffffffffffffffffffffff1602179055506112d77f7d098a2222d95e17d6c6065057352a8ff1208ea7fc4d41fdf20464591d646cab60001b611110565b6113037f18f09ccabdd02e9d02bbd82a7d4c54ced54e03711c605f8eb6f6bbdbf993b22660001b611110565b60019050919050565b50565b60008135905061131e81611582565b92915050565b60006020828403121561133657600080fd5b60006113448482850161130f565b91505092915050565b61135681611544565b82525050565b61136581611556565b82525050565b6000611378602f83611533565b91507f4f776e61626c65203a2046756e6374696f6e2063616c6c656420627920756e6160008301527f7574686f72697a656420757365722e00000000000000000000000000000000006020830152604082019050919050565b60006113de601c83611533565b91507f467265657a61626c65203a207461726765742069732066726f7a656e000000006000830152602082019050919050565b600061141e604583611533565b91507f4f776e61626c652f7472616e736665724f776e657273686970203a2063616e6e60008301527f6f74207472616e73666572206f776e65727368697020746f207a65726f20616460208301527f64726573730000000000000000000000000000000000000000000000000000006040830152606082019050919050565b60006020820190506114b2600083018461134d565b92915050565b60006020820190506114cd600083018461135c565b92915050565b600060208201905081810360008301526114ec8161136b565b9050919050565b6000602082019050818103600083015261150c816113d1565b9050919050565b6000602082019050818103600083015261152c81611411565b9050919050565b600082825260208201905092915050565b600061154f82611562565b9050919050565b60008115159050919050565b600073ffffffffffffffffffffffffffffffffffffffff82169050919050565b61158b81611544565b811461159657600080fd5b5056fea2646970667358221220dc14cd4743eb450b0ae6e3c67133cda9de95c64f3fcb84689930a689080216ef64736f6c63430008000033",
  "linkReferences": {},
  "deployedLinkReferences": {}
}