{
  "_format": "hh-sol-artifact-1",
  "contractName": "Freezable",
  "sourceName": "contracts/library/Freezable.sol",
  "abi": [
    {
      "anonymous": false,
      "inputs": [
        {
          "indexed": true,
          "internalType": "address",
          "name": "target",
          "type": "address"
        }
      ],
      "name": "Freeze",
      "type": "event"
    },
    {
      "anonymous": false,
      "inputs": [
        {
          "indexed": true,
          "internalType": "address",
          "name": "currentOwner",
          "type": "address"
        },
        {
          "indexed": true,
          "internalType": "address",
          "name": "newOwner",
          "type": "address"
        }
      ],
      "name": "OwnershipTransferred",
      "type": "event"
    },
    {
      "anonymous": false,
      "inputs": [
        {
          "indexed": true,
          "internalType": "address",
          "name": "target",
          "type": "address"
        }
      ],
      "name": "Unfreeze",
      "type": "event"
    },
    {
      "inputs": [
        {
          "internalType": "address",
          "name": "target",
          "type": "address"
        }
      ],
      "name": "freeze",
      "outputs": [
        {
          "internalType": "bool",
          "name": "success",
          "type": "bool"
        }
      ],
      "stateMutability": "nonpayable",
      "type": "function"
    },
    {
      "inputs": [
        {
          "internalType": "address",
          "name": "target",
          "type": "address"
        }
      ],
      "name": "isFrozen",
      "outputs": [
        {
          "internalType": "bool",
          "name": "frozen",
          "type": "bool"
        }
      ],
      "stateMutability": "view",
      "type": "function"
    },
    {
      "inputs": [],
      "name": "owner",
      "outputs": [
        {
          "internalType": "address",
          "name": "ownerAddress",
          "type": "address"
        }
      ],
      "stateMutability": "view",
      "type": "function"
    },
    {
      "inputs": [],
      "name": "renounceOwnership",
      "outputs": [
        {
          "internalType": "bool",
          "name": "success",
          "type": "bool"
        }
      ],
      "stateMutability": "nonpayable",
      "type": "function"
    },
    {
      "inputs": [
        {
          "internalType": "address",
          "name": "newOwner",
          "type": "address"
        }
      ],
      "name": "transferOwnership",
      "outputs": [
        {
          "internalType": "bool",
          "name": "success",
          "type": "bool"
        }
      ],
      "stateMutability": "nonpayable",
      "type": "function"
    },
    {
      "inputs": [
        {
          "internalType": "address",
          "name": "target",
          "type": "address"
        }
      ],
      "name": "unFreeze",
      "outputs": [
        {
          "internalType": "bool",
          "name": "success",
          "type": "bool"
        }
      ],
      "stateMutability": "nonpayable",
      "type": "function"
    }
  ],
  "bytecode": "0x608060405234801561001057600080fd5b506100437f27f6888e68809cffd107c6d6cd9330ad00d3ab2683d0bc460a37cc6d15b2d4e360001b6101ab60201b60201c565b6100757f7f3742095077cccaa3582a028877eeef819bf77fba393af551462842e42363d160001b6101ab60201b60201c565b6100a77faab8ac08ed7eda70c304fc3d27763697ad7d15b0eadb53ff1d83f81c73e25aff60001b6101ab60201b60201c565b336000806101000a81548173ffffffffffffffffffffffffffffffffffffffff021916908373ffffffffffffffffffffffffffffffffffffffff1602179055506101197f4b07da9d0fb033c0435dcb930f4db429cc327f13d13f603e5d852d6a7ef2e01b60001b6101ab60201b60201c565b61014b7f9fab8e02d6a51a353362b22f8f42db9b55a516b1701529b89916ebb03c39579b60001b6101ab60201b60201c565b3373ffffffffffffffffffffffffffffffffffffffff16600073ffffffffffffffffffffffffffffffffffffffff167f8be0079c531659141344cd1fd0a4f28419497f9722a3daafe3b4186f6b6457e060405160405180910390a36101ae565b50565b61139e80620001be6000396000f3fe608060405234801561001057600080fd5b50600436106100625760003560e01c8063715018a61461006757806383cfab42146100855780638d1fdf2f146100b55780638da5cb5b146100e5578063e583983614610103578063f2fde38b14610133575b600080fd5b61006f610163565b60405161007c91906112a7565b60405180910390f35b61009f600480360381019061009a9190611153565b61038e565b6040516100ac91906112a7565b60405180910390f35b6100cf60048036038101906100ca9190611153565b6106fe565b6040516100dc91906112a7565b60405180910390f35b6100ed610a6d565b6040516100fa919061128c565b60405180910390f35b61011d60048036038101906101189190611153565b610b19565b60405161012a91906112a7565b60405180910390f35b61014d60048036038101906101489190611153565b610bf3565b60405161015a91906112a7565b60405180910390f35b60006101917f602d703e7a3463d0b2913b4d7c736d6e93aa47c592d30130a5fb23661f387fc560001b610f3f565b6101bd7fd92ca58ca8f09a1b909bdd3af2a5255217324a2fb94d5c63dfd72706b1f0c2be60001b610f3f565b6101e97fce58fdce94a345ca7f0205ee619845552d0f91153b411c934a02dbc4471def9b60001b610f3f565b6102157fa8e66ddad752fa23ae2c4293ded6f9402ffa751c96d0218df08bfc9b09099cfb60001b610f3f565b60008054906101000a900473ffffffffffffffffffffffffffffffffffffffff1673ffffffffffffffffffffffffffffffffffffffff163373ffffffffffffffffffffffffffffffffffffffff16146102a3576040517f08c379a000000000000000000000000000000000000000000000000000000000815260040161029a906112c2565b60405180910390fd5b6102cf7fbc9e3da51dfef2b8eac39e6513e991b832dd324794e59c2d2638ed90f8474e0960001b610f3f565b6102fb7f3b1220f6016edd4d18672df61176b4c84e8e5f2fb05b76c1da9435d0ddb5aa1760001b610f3f565b6103277fd764470c5f1e167ee15b7406c44263326240f7563185d01bd33b2c797dd027ee60001b610f3f565b6103537f8f16fcf9404736cc2c98959dffb406e3830524cb6ae5b0677efc25b2eb013c6460001b610f3f565b61037f7f758e43c9c4a47855d429841245d665751688631e371a85e157efba320518824660001b610f3f565b6103896000610f42565b905090565b60006103bc7f602d703e7a3463d0b2913b4d7c736d6e93aa47c592d30130a5fb23661f387fc560001b610f3f565b6103e87fd92ca58ca8f09a1b909bdd3af2a5255217324a2fb94d5c63dfd72706b1f0c2be60001b610f3f565b6104147fce58fdce94a345ca7f0205ee619845552d0f91153b411c934a02dbc4471def9b60001b610f3f565b6104407fa8e66ddad752fa23ae2c4293ded6f9402ffa751c96d0218df08bfc9b09099cfb60001b610f3f565b60008054906101000a900473ffffffffffffffffffffffffffffffffffffffff1673ffffffffffffffffffffffffffffffffffffffff163373ffffffffffffffffffffffffffffffffffffffff16146104ce576040517f08c379a00000000000000000000000000000000000000000000000000000000081526004016104c5906112c2565b60405180910390fd5b6104fa7fbc9e3da51dfef2b8eac39e6513e991b832dd324794e59c2d2638ed90f8474e0960001b610f3f565b6105267f3b1220f6016edd4d18672df61176b4c84e8e5f2fb05b76c1da9435d0ddb5aa1760001b610f3f565b6105527ff0c77d6e6316d02d885bb02d2073b3da8b4692c1d6b4f920db0a641b44e0a83a60001b61113b565b61057e7f77e13b8593e7e12310c1452823e7a02ecc5a463cec3ecbde2ff8192321733ab760001b61113b565b6105aa7f94397dda418c4bf79ed52425a25acc479fbabf59d4ea8bc951fbed1c9dee7a4460001b61113b565b6000600160008473ffffffffffffffffffffffffffffffffffffffff1673ffffffffffffffffffffffffffffffffffffffff16815260200190815260200160002060006101000a81548160ff02191690831515021790555061062e7fe5603880c1820625865f991adc14b2c344665b4e33b23ee9b52b97e82ce5a2d960001b61113b565b61065a7f3031eaef18d5ee8a2dad1b53ddada3bd685cc8d319dc3b7e8b7771e817c9846d60001b61113b565b8173ffffffffffffffffffffffffffffffffffffffff167fca5069937e68fd197927055037f59d7c90bf75ac104e6e375539ef480c3ad6ee60405160405180910390a26106c97f9fcd398c5bfca0bb92365b10bfc906453efb0366249a322ffab9bfbc1409957a60001b61113b565b6106f57f2052f7d2abc32702f2f1512468c4c1dba227e7234c8297f7497302eea5d8884260001b61113b565b60019050919050565b600061072c7f602d703e7a3463d0b2913b4d7c736d6e93aa47c592d30130a5fb23661f387fc560001b610f3f565b6107587fd92ca58ca8f09a1b909bdd3af2a5255217324a2fb94d5c63dfd72706b1f0c2be60001b610f3f565b6107847fce58fdce94a345ca7f0205ee619845552d0f91153b411c934a02dbc4471def9b60001b610f3f565b6107b07fa8e66ddad752fa23ae2c4293ded6f9402ffa751c96d0218df08bfc9b09099cfb60001b610f3f565b60008054906101000a900473ffffffffffffffffffffffffffffffffffffffff1673ffffffffffffffffffffffffffffffffffffffff163373ffffffffffffffffffffffffffffffffffffffff161461083e576040517f08c379a0000000000000000000000000000000000000000000000000000000008152600401610835906112c2565b60405180910390fd5b61086a7fbc9e3da51dfef2b8eac39e6513e991b832dd324794e59c2d2638ed90f8474e0960001b610f3f565b6108967f3b1220f6016edd4d18672df61176b4c84e8e5f2fb05b76c1da9435d0ddb5aa1760001b610f3f565b6108c27f40ae5d150755cd45b9e6ce16271e7f8857404a011dd48932dfd1d28c2cfc2fab60001b61113b565b6108ee7f3aef4d35d2c04975f114d0caa963fe27dabd580738491fe6571f388ecfc63e4660001b61113b565b61091a7f4ffa4d66e4a6f3cec9dea2efc5c21294acc2ca51e8efad91a72e932373ec675560001b61113b565b60018060008473ffffffffffffffffffffffffffffffffffffffff1673ffffffffffffffffffffffffffffffffffffffff16815260200190815260200160002060006101000a81548160ff02191690831515021790555061099d7f1eb3d2ce26039a182ef37cc932abd4377c5885adebefb4bca082fad5424cd1ac60001b61113b565b6109c97f0419125394d5ce89924afcb515f704cd85e783b2341493a21bece0db95f12d9e60001b61113b565b8173ffffffffffffffffffffffffffffffffffffffff167faf85b60d26151edd11443b704d424da6c43d0468f2235ebae3d1904dbc32304960405160405180910390a2610a387fb3503f87b1b84cfafbbd50892f9b79871748329c82534d03b2aa200de4996de460001b61113b565b610a647ff11f632d7f30cace63dfed659e395e5a057f42019bd01f67c5538b356c1de7ac60001b61113b565b60019050919050565b6000610a9b7faa4946c997c8d9e185e5bd336239e1538bdf6277c9ed07f24cb161390305e91a60001b610f3f565b610ac77fd6f35532eb599961386a69d528965512fde632ded832cc75c4c00c3940329d5460001b610f3f565b610af37f8bca74d9c11ad28e5835b85881063c665f723ad95fc5562a92463eb078e4f3d860001b610f3f565b60008054906101000a900473ffffffffffffffffffffffffffffffffffffffff16905090565b6000610b477fb0c2e6f183fe1e952f3a1517bdaca9797fbe580fb512587453105ebf263e8c9a60001b61113b565b610b737f90033007c698997a884d17d522253ff019e3460ea75e849c661fe8959c26716260001b61113b565b610b9f7fb9b578c89e4b429da2a14f91ada59a7b8933fc81af697fb5c2f49bfc7e2841cd60001b61113b565b600160008373ffffffffffffffffffffffffffffffffffffffff1673ffffffffffffffffffffffffffffffffffffffff16815260200190815260200160002060009054906101000a900460ff169050919050565b6000610c217f602d703e7a3463d0b2913b4d7c736d6e93aa47c592d30130a5fb23661f387fc560001b610f3f565b610c4d7fd92ca58ca8f09a1b909bdd3af2a5255217324a2fb94d5c63dfd72706b1f0c2be60001b610f3f565b610c797fce58fdce94a345ca7f0205ee619845552d0f91153b411c934a02dbc4471def9b60001b610f3f565b610ca57fa8e66ddad752fa23ae2c4293ded6f9402ffa751c96d0218df08bfc9b09099cfb60001b610f3f565b60008054906101000a900473ffffffffffffffffffffffffffffffffffffffff1673ffffffffffffffffffffffffffffffffffffffff163373ffffffffffffffffffffffffffffffffffffffff1614610d33576040517f08c379a0000000000000000000000000000000000000000000000000000000008152600401610d2a906112c2565b60405180910390fd5b610d5f7fbc9e3da51dfef2b8eac39e6513e991b832dd324794e59c2d2638ed90f8474e0960001b610f3f565b610d8b7f3b1220f6016edd4d18672df61176b4c84e8e5f2fb05b76c1da9435d0ddb5aa1760001b610f3f565b610db77f9aa7cd56eb2ac8d3b9bf1f6e158294dd47d37dfe00f658a4b73daa0386d1f46860001b610f3f565b610de37feefd7473f3aabb47af946cffca9d74e2dd864f3650e5b1ebfc69b804ace87cd660001b610f3f565b610e0f7fa51d59d286e7dccccb5b9b5278e33d0c86d8e76fb04ecc55e7ea55a6bf98e6b460001b610f3f565b610e3b7ff3325b1053562c6b0ac8b7f027861c875b61314777aaef9ee53f50787b867e6e60001b610f3f565b600073ffffffffffffffffffffffffffffffffffffffff168273ffffffffffffffffffffffffffffffffffffffff161415610eab576040517f08c379a0000000000000000000000000000000000000000000000000000000008152600401610ea2906112e2565b60405180910390fd5b610ed77f7177fa699f1df126f12f33649e41ffd5caa883d0911fc942e721eaccb24e310260001b610f3f565b610f037f15fdbcd8997f71a0a67378bd867901f94e00f560bd927bbb0f21a100b8c004a560001b610f3f565b610f2f7f73d28aa364c2a1dc068fa42fe1db16e2f7273cc3b0041c387fdccceca80c486960001b610f3f565b610f3882610f42565b9050919050565b50565b6000610f707fffbd551eda40f61b75fb62dbc2366015eaa140275f02aa75a64bb3624ca64bd460001b610f3f565b610f9c7fa3dc7e70b0578cc1633c282231ad7ee46b6b7bd2fa9608e891b7e79e5b3adec260001b610f3f565b610fc87f953dd6cf33a824a0abf82953b205dec4a75ea9e79907ad371d317dde2b906e9e60001b610f3f565b8173ffffffffffffffffffffffffffffffffffffffff1660008054906101000a900473ffffffffffffffffffffffffffffffffffffffff1673ffffffffffffffffffffffffffffffffffffffff167f8be0079c531659141344cd1fd0a4f28419497f9722a3daafe3b4186f6b6457e060405160405180910390a361106e7facd515e058d76ef4227325ace4506dd5297b07ace98a9d69fbba8f94ac80707560001b610f3f565b61109a7fdb859cb4f5928267124b0c6414069ecdc975bef4ac6a8126595cdff120ddbb5c60001b610f3f565b816000806101000a81548173ffffffffffffffffffffffffffffffffffffffff021916908373ffffffffffffffffffffffffffffffffffffffff1602179055506111067f7d098a2222d95e17d6c6065057352a8ff1208ea7fc4d41fdf20464591d646cab60001b610f3f565b6111327f18f09ccabdd02e9d02bbd82a7d4c54ced54e03711c605f8eb6f6bbdbf993b22660001b610f3f565b60019050919050565b50565b60008135905061114d81611351565b92915050565b60006020828403121561116557600080fd5b60006111738482850161113e565b91505092915050565b61118581611313565b82525050565b61119481611325565b82525050565b60006111a7602f83611302565b91507f4f776e61626c65203a2046756e6374696f6e2063616c6c656420627920756e6160008301527f7574686f72697a656420757365722e00000000000000000000000000000000006020830152604082019050919050565b600061120d604583611302565b91507f4f776e61626c652f7472616e736665724f776e657273686970203a2063616e6e60008301527f6f74207472616e73666572206f776e65727368697020746f207a65726f20616460208301527f64726573730000000000000000000000000000000000000000000000000000006040830152606082019050919050565b60006020820190506112a1600083018461117c565b92915050565b60006020820190506112bc600083018461118b565b92915050565b600060208201905081810360008301526112db8161119a565b9050919050565b600060208201905081810360008301526112fb81611200565b9050919050565b600082825260208201905092915050565b600061131e82611331565b9050919050565b60008115159050919050565b600073ffffffffffffffffffffffffffffffffffffffff82169050919050565b61135a81611313565b811461136557600080fd5b5056fea26469706673582212203e27b8c66a8ee13febebb012b0f9fbaba907384dbe1886df574940cc4650946e64736f6c63430008000033",
  "linkReferences": {},
  "deployedLinkReferences": {}
}