{
  "_format": "hh-sol-artifact-1",
  "contractName": "mockERC20",
  "sourceName": "contracts/mocks/mock.sol",
  "abi": [
    {
      "anonymous": false,
      "inputs": [
        {
          "indexed": true,
          "internalType": "address",
          "name": "owner",
          "type": "address"
        },
        {
          "indexed": true,
          "internalType": "address",
          "name": "spender",
          "type": "address"
        },
        {
          "indexed": false,
          "internalType": "uint256",
          "name": "amount",
          "type": "uint256"
        }
      ],
      "name": "Approval",
      "type": "event"
    },
    {
      "anonymous": false,
      "inputs": [
        {
          "indexed": true,
          "internalType": "address",
          "name": "burned",
          "type": "address"
        },
        {
          "indexed": false,
          "internalType": "uint256",
          "name": "amount",
          "type": "uint256"
        }
      ],
      "name": "Burn",
      "type": "event"
    },
    {
      "anonymous": false,
      "inputs": [
        {
          "indexed": true,
          "internalType": "address",
          "name": "target",
          "type": "address"
        }
      ],
      "name": "Freeze",
      "type": "event"
    },
    {
      "anonymous": false,
      "inputs": [
        {
          "indexed": true,
          "internalType": "address",
          "name": "from",
          "type": "address"
        },
        {
          "indexed": false,
          "internalType": "uint256",
          "name": "amount",
          "type": "uint256"
        },
        {
          "indexed": false,
          "internalType": "uint256",
          "name": "due",
          "type": "uint256"
        }
      ],
      "name": "Lock",
      "type": "event"
    },
    {
      "anonymous": false,
      "inputs": [
        {
          "indexed": true,
          "internalType": "address",
          "name": "receiver",
          "type": "address"
        },
        {
          "indexed": false,
          "internalType": "uint256",
          "name": "amount",
          "type": "uint256"
        }
      ],
      "name": "Mint",
      "type": "event"
    },
    {
      "anonymous": false,
      "inputs": [],
      "name": "MintFinished",
      "type": "event"
    },
    {
      "anonymous": false,
      "inputs": [
        {
          "indexed": true,
          "internalType": "address",
          "name": "currentOwner",
          "type": "address"
        },
        {
          "indexed": true,
          "internalType": "address",
          "name": "newOwner",
          "type": "address"
        }
      ],
      "name": "OwnershipTransferred",
      "type": "event"
    },
    {
      "anonymous": false,
      "inputs": [],
      "name": "Paused",
      "type": "event"
    },
    {
      "anonymous": false,
      "inputs": [
        {
          "indexed": true,
          "internalType": "address",
          "name": "from",
          "type": "address"
        },
        {
          "indexed": true,
          "internalType": "address",
          "name": "to",
          "type": "address"
        },
        {
          "indexed": false,
          "internalType": "uint256",
          "name": "amount",
          "type": "uint256"
        }
      ],
      "name": "Transfer",
      "type": "event"
    },
    {
      "anonymous": false,
      "inputs": [
        {
          "indexed": true,
          "internalType": "address",
          "name": "target",
          "type": "address"
        }
      ],
      "name": "Unfreeze",
      "type": "event"
    },
    {
      "anonymous": false,
      "inputs": [
        {
          "indexed": true,
          "internalType": "address",
          "name": "from",
          "type": "address"
        },
        {
          "indexed": false,
          "internalType": "uint256",
          "name": "amount",
          "type": "uint256"
        }
      ],
      "name": "Unlock",
      "type": "event"
    },
    {
      "anonymous": false,
      "inputs": [],
      "name": "Unpaused",
      "type": "event"
    },
    {
      "inputs": [
        {
          "internalType": "address",
          "name": "owner",
          "type": "address"
        },
        {
          "internalType": "address",
          "name": "spender",
          "type": "address"
        },
        {
          "internalType": "uint256",
          "name": "amount",
          "type": "uint256"
        }
      ],
      "name": "_approveTest",
      "outputs": [],
      "stateMutability": "nonpayable",
      "type": "function"
    },
    {
      "inputs": [
        {
          "internalType": "address",
          "name": "burned",
          "type": "address"
        },
        {
          "internalType": "uint256",
          "name": "amount",
          "type": "uint256"
        }
      ],
      "name": "_burnTest",
      "outputs": [],
      "stateMutability": "nonpayable",
      "type": "function"
    },
    {
      "inputs": [
        {
          "internalType": "address",
          "name": "from",
          "type": "address"
        },
        {
          "internalType": "uint256",
          "name": "amount",
          "type": "uint256"
        },
        {
          "internalType": "uint256",
          "name": "due",
          "type": "uint256"
        }
      ],
      "name": "_lockTest",
      "outputs": [],
      "stateMutability": "nonpayable",
      "type": "function"
    },
    {
      "inputs": [
        {
          "internalType": "address",
          "name": "recipient",
          "type": "address"
        },
        {
          "internalType": "uint256",
          "name": "amount",
          "type": "uint256"
        }
      ],
      "name": "_mintTest",
      "outputs": [],
      "stateMutability": "nonpayable",
      "type": "function"
    },
    {
      "inputs": [
        {
          "internalType": "address",
          "name": "addr",
          "type": "address"
        }
      ],
      "name": "_transferOwnershipTest",
      "outputs": [],
      "stateMutability": "nonpayable",
      "type": "function"
    },
    {
      "inputs": [
        {
          "internalType": "address",
          "name": "from",
          "type": "address"
        },
        {
          "internalType": "address",
          "name": "to",
          "type": "address"
        },
        {
          "internalType": "uint256",
          "name": "amount",
          "type": "uint256"
        }
      ],
      "name": "_transferTest",
      "outputs": [],
      "stateMutability": "nonpayable",
      "type": "function"
    },
    {
      "inputs": [
        {
          "internalType": "address",
          "name": "addr",
          "type": "address"
        },
        {
          "internalType": "uint256",
          "name": "idx",
          "type": "uint256"
        }
      ],
      "name": "_unlockTest",
      "outputs": [],
      "stateMutability": "nonpayable",
      "type": "function"
    },
    {
      "inputs": [
        {
          "internalType": "address",
          "name": "owner",
          "type": "address"
        },
        {
          "internalType": "address",
          "name": "spender",
          "type": "address"
        }
      ],
      "name": "allowance",
      "outputs": [
        {
          "internalType": "uint256",
          "name": "remaining",
          "type": "uint256"
        }
      ],
      "stateMutability": "view",
      "type": "function"
    },
    {
      "inputs": [
        {
          "internalType": "address",
          "name": "spender",
          "type": "address"
        },
        {
          "internalType": "uint256",
          "name": "amount",
          "type": "uint256"
        }
      ],
      "name": "approve",
      "outputs": [
        {
          "internalType": "bool",
          "name": "success",
          "type": "bool"
        }
      ],
      "stateMutability": "nonpayable",
      "type": "function"
    },
    {
      "inputs": [
        {
          "internalType": "address",
          "name": "owner",
          "type": "address"
        }
      ],
      "name": "balanceOf",
      "outputs": [
        {
          "internalType": "uint256",
          "name": "balance",
          "type": "uint256"
        }
      ],
      "stateMutability": "view",
      "type": "function"
    },
    {
      "inputs": [
        {
          "internalType": "uint256",
          "name": "amount",
          "type": "uint256"
        }
      ],
      "name": "burn",
      "outputs": [
        {
          "internalType": "bool",
          "name": "success",
          "type": "bool"
        }
      ],
      "stateMutability": "nonpayable",
      "type": "function"
    },
    {
      "inputs": [
        {
          "internalType": "address",
          "name": "burned",
          "type": "address"
        },
        {
          "internalType": "uint256",
          "name": "amount",
          "type": "uint256"
        }
      ],
      "name": "burnFrom",
      "outputs": [
        {
          "internalType": "bool",
          "name": "success",
          "type": "bool"
        }
      ],
      "stateMutability": "nonpayable",
      "type": "function"
    },
    {
      "inputs": [
        {
          "internalType": "address",
          "name": "from",
          "type": "address"
        },
        {
          "internalType": "uint256",
          "name": "amount",
          "type": "uint256"
        }
      ],
      "name": "checkLockTest",
      "outputs": [
        {
          "internalType": "uint256",
          "name": "",
          "type": "uint256"
        }
      ],
      "stateMutability": "view",
      "type": "function"
    },
    {
      "inputs": [],
      "name": "decimals",
      "outputs": [
        {
          "internalType": "uint8",
          "name": "tokenDecimals",
          "type": "uint8"
        }
      ],
      "stateMutability": "pure",
      "type": "function"
    },
    {
      "inputs": [],
      "name": "finishMint",
      "outputs": [
        {
          "internalType": "bool",
          "name": "success",
          "type": "bool"
        }
      ],
      "stateMutability": "nonpayable",
      "type": "function"
    },
    {
      "inputs": [
        {
          "internalType": "address",
          "name": "target",
          "type": "address"
        }
      ],
      "name": "freeze",
      "outputs": [
        {
          "internalType": "bool",
          "name": "success",
          "type": "bool"
        }
      ],
      "stateMutability": "nonpayable",
      "type": "function"
    },
    {
      "inputs": [],
      "name": "getTimeStamp",
      "outputs": [
        {
          "internalType": "uint256",
          "name": "",
          "type": "uint256"
        }
      ],
      "stateMutability": "view",
      "type": "function"
    },
    {
      "inputs": [
        {
          "internalType": "address",
          "name": "addr",
          "type": "address"
        }
      ],
      "name": "get_totalLocked",
      "outputs": [
        {
          "internalType": "uint256",
          "name": "",
          "type": "uint256"
        }
      ],
      "stateMutability": "view",
      "type": "function"
    },
    {
      "inputs": [],
      "name": "isFinished",
      "outputs": [
        {
          "internalType": "bool",
          "name": "finished",
          "type": "bool"
        }
      ],
      "stateMutability": "view",
      "type": "function"
    },
    {
      "inputs": [
        {
          "internalType": "address",
          "name": "target",
          "type": "address"
        }
      ],
      "name": "isFrozen",
      "outputs": [
        {
          "internalType": "bool",
          "name": "frozen",
          "type": "bool"
        }
      ],
      "stateMutability": "view",
      "type": "function"
    },
    {
      "inputs": [
        {
          "internalType": "address",
          "name": "locked",
          "type": "address"
        },
        {
          "internalType": "uint256",
          "name": "index",
          "type": "uint256"
        }
      ],
      "name": "lockInfo",
      "outputs": [
        {
          "internalType": "uint256",
          "name": "amount",
          "type": "uint256"
        },
        {
          "internalType": "uint256",
          "name": "due",
          "type": "uint256"
        }
      ],
      "stateMutability": "view",
      "type": "function"
    },
    {
      "inputs": [
        {
          "internalType": "address",
          "name": "receiver",
          "type": "address"
        },
        {
          "internalType": "uint256",
          "name": "amount",
          "type": "uint256"
        }
      ],
      "name": "mint",
      "outputs": [
        {
          "internalType": "bool",
          "name": "success",
          "type": "bool"
        }
      ],
      "stateMutability": "nonpayable",
      "type": "function"
    },
    {
      "inputs": [],
      "name": "name",
      "outputs": [
        {
          "internalType": "string",
          "name": "tokenName",
          "type": "string"
        }
      ],
      "stateMutability": "pure",
      "type": "function"
    },
    {
      "inputs": [],
      "name": "owner",
      "outputs": [
        {
          "internalType": "address",
          "name": "ownerAddress",
          "type": "address"
        }
      ],
      "stateMutability": "view",
      "type": "function"
    },
    {
      "inputs": [],
      "name": "pause",
      "outputs": [
        {
          "internalType": "bool",
          "name": "success",
          "type": "bool"
        }
      ],
      "stateMutability": "nonpayable",
      "type": "function"
    },
    {
      "inputs": [],
      "name": "paused",
      "outputs": [
        {
          "internalType": "bool",
          "name": "",
          "type": "bool"
        }
      ],
      "stateMutability": "view",
      "type": "function"
    },
    {
      "inputs": [
        {
          "internalType": "address",
          "name": "from",
          "type": "address"
        }
      ],
      "name": "releaseLock",
      "outputs": [
        {
          "internalType": "bool",
          "name": "success",
          "type": "bool"
        }
      ],
      "stateMutability": "nonpayable",
      "type": "function"
    },
    {
      "inputs": [],
      "name": "renounceOwnership",
      "outputs": [
        {
          "internalType": "bool",
          "name": "success",
          "type": "bool"
        }
      ],
      "stateMutability": "nonpayable",
      "type": "function"
    },
    {
      "inputs": [
        {
          "internalType": "uint256",
          "name": "time",
          "type": "uint256"
        }
      ],
      "name": "setTimeStamp",
      "outputs": [
        {
          "internalType": "uint256",
          "name": "",
          "type": "uint256"
        }
      ],
      "stateMutability": "view",
      "type": "function"
    },
    {
      "inputs": [
        {
          "internalType": "bool",
          "name": "v",
          "type": "bool"
        }
      ],
      "name": "set_mintingFinished",
      "outputs": [],
      "stateMutability": "nonpayable",
      "type": "function"
    },
    {
      "inputs": [],
      "name": "symbol",
      "outputs": [
        {
          "internalType": "string",
          "name": "tokenSymbol",
          "type": "string"
        }
      ],
      "stateMutability": "pure",
      "type": "function"
    },
    {
      "inputs": [
        {
          "internalType": "address",
          "name": "locked",
          "type": "address"
        }
      ],
      "name": "totalLocked",
      "outputs": [
        {
          "internalType": "uint256",
          "name": "amount",
          "type": "uint256"
        },
        {
          "internalType": "uint256",
          "name": "length",
          "type": "uint256"
        }
      ],
      "stateMutability": "view",
      "type": "function"
    },
    {
      "inputs": [],
      "name": "totalSupply",
      "outputs": [
        {
          "internalType": "uint256",
          "name": "total",
          "type": "uint256"
        }
      ],
      "stateMutability": "view",
      "type": "function"
    },
    {
      "inputs": [
        {
          "internalType": "address",
          "name": "to",
          "type": "address"
        },
        {
          "internalType": "uint256",
          "name": "amount",
          "type": "uint256"
        }
      ],
      "name": "transfer",
      "outputs": [
        {
          "internalType": "bool",
          "name": "success",
          "type": "bool"
        }
      ],
      "stateMutability": "nonpayable",
      "type": "function"
    },
    {
      "inputs": [
        {
          "internalType": "address",
          "name": "from",
          "type": "address"
        },
        {
          "internalType": "address",
          "name": "to",
          "type": "address"
        },
        {
          "internalType": "uint256",
          "name": "amount",
          "type": "uint256"
        }
      ],
      "name": "transferFrom",
      "outputs": [
        {
          "internalType": "bool",
          "name": "success",
          "type": "bool"
        }
      ],
      "stateMutability": "nonpayable",
      "type": "function"
    },
    {
      "inputs": [
        {
          "internalType": "address",
          "name": "newOwner",
          "type": "address"
        }
      ],
      "name": "transferOwnership",
      "outputs": [
        {
          "internalType": "bool",
          "name": "success",
          "type": "bool"
        }
      ],
      "stateMutability": "nonpayable",
      "type": "function"
    },
    {
      "inputs": [
        {
          "internalType": "address",
          "name": "recipient",
          "type": "address"
        },
        {
          "internalType": "uint256",
          "name": "amount",
          "type": "uint256"
        },
        {
          "internalType": "uint256",
          "name": "due",
          "type": "uint256"
        }
      ],
      "name": "transferWithLockUp",
      "outputs": [
        {
          "internalType": "bool",
          "name": "success",
          "type": "bool"
        }
      ],
      "stateMutability": "nonpayable",
      "type": "function"
    },
    {
      "inputs": [
        {
          "internalType": "address",
          "name": "target",
          "type": "address"
        }
      ],
      "name": "unFreeze",
      "outputs": [
        {
          "internalType": "bool",
          "name": "success",
          "type": "bool"
        }
      ],
      "stateMutability": "nonpayable",
      "type": "function"
    },
    {
      "inputs": [],
      "name": "unPause",
      "outputs": [
        {
          "internalType": "bool",
          "name": "success",
          "type": "bool"
        }
      ],
      "stateMutability": "nonpayable",
      "type": "function"
    },
    {
      "inputs": [
        {
          "internalType": "address",
          "name": "from",
          "type": "address"
        },
        {
          "internalType": "uint256",
          "name": "idx",
          "type": "uint256"
        }
      ],
      "name": "unlock",
      "outputs": [
        {
          "internalType": "bool",
          "name": "success",
          "type": "bool"
        }
      ],
      "stateMutability": "nonpayable",
      "type": "function"
    },
    {
      "inputs": [
        {
          "internalType": "address",
          "name": "from",
          "type": "address"
        }
      ],
      "name": "unlockAll",
      "outputs": [
        {
          "internalType": "bool",
          "name": "success",
          "type": "bool"
        }
      ],
      "stateMutability": "nonpayable",
      "type": "function"
    },
    {
      "inputs": [
        {
          "internalType": "address",
          "name": "addr",
          "type": "address"
        }
      ],
      "name": "whenNotFrozenTest",
      "outputs": [],
      "stateMutability": "nonpayable",
      "type": "function"
    }
  ],
  "bytecode": "0x60806040523480156200001157600080fd5b50620000467f27f6888e68809cffd107c6d6cd9330ad00d3ab2683d0bc460a37cc6d15b2d4e360001b6200028b60201b60201c565b6200007a7f7f3742095077cccaa3582a028877eeef819bf77fba393af551462842e42363d160001b6200028b60201b60201c565b620000ae7faab8ac08ed7eda70c304fc3d27763697ad7d15b0eadb53ff1d83f81c73e25aff60001b6200028b60201b60201c565b33600360006101000a81548173ffffffffffffffffffffffffffffffffffffffff021916908373ffffffffffffffffffffffffffffffffffffffff160217905550620001237f4b07da9d0fb033c0435dcb930f4db429cc327f13d13f603e5d852d6a7ef2e01b60001b6200028b60201b60201c565b620001577f9fab8e02d6a51a353362b22f8f42db9b55a516b1701529b89916ebb03c39579b60001b6200028b60201b60201c565b3373ffffffffffffffffffffffffffffffffffffffff16600073ffffffffffffffffffffffffffffffffffffffff167f8be0079c531659141344cd1fd0a4f28419497f9722a3daafe3b4186f6b6457e060405160405180910390a3620001e67f72278cf4ff2018f533bfb67fb7c3e17939448b310488a6a9a6d23fcef7ca204760001b6200028e60201b60201c565b6200021a7fe724dd49629714013129eb328d27f6b4ef00f7221b6c82a9aa62274424da345560001b6200028e60201b60201c565b6200024e7f67c50a209f57354978be66b78db639521855f256bf57a0d2225a30f76d05ad9060001b6200028e60201b60201c565b6200028433601260ff16600a62000266919062000668565b64012a05f200620002789190620007a5565b6200029160201b60201c565b506200084c565b50565b50565b6000620002c77ff5b34b4ba2e581dbce219c0a3075fffab2bbd2ea0f4aa8e27de13620ec95d78b60001b6200057f60201b60201c565b620002fb7f96311f78ecde7ddaeb9fd6c4cc32fbf4e2786df6f9c67451654a9caa4c9dd55c60001b6200057f60201b60201c565b6200032f7f0ba3eebba90166cba365632e6ebe2da7b3ac516ec833bfa20b0932b14368bcfb60001b6200057f60201b60201c565b816000546200033f9190620005b0565b600081905550620003797fafa61fc01ee0a41c6aed2063265d2684183f79464d1aacf6165810d944de317160001b6200057f60201b60201c565b620003ad7febe25b48ce599c57771eaa5b4cf0636bc70d3933b55c20a1cc5ca7042f323f0660001b6200057f60201b60201c565b81600160008573ffffffffffffffffffffffffffffffffffffffff1673ffffffffffffffffffffffffffffffffffffffff16815260200190815260200160002054620003fa9190620005b0565b600160008573ffffffffffffffffffffffffffffffffffffffff1673ffffffffffffffffffffffffffffffffffffffff16815260200190815260200160002081905550620004717f656a02f4132daefef8002b2be28eec8c412d4706e777985b06ff337261acc70c60001b6200057f60201b60201c565b620004a57fd2ec0ac2dfa374a79eb0f51555b94917173b8d4ec4abd91a1fc6a0eba544b5ef60001b6200057f60201b60201c565b8273ffffffffffffffffffffffffffffffffffffffff16600073ffffffffffffffffffffffffffffffffffffffff167fddf252ad1be2c89b69c2b068fc378daa952ba7f163c4a11628f55a4df523b3ef8460405162000505919062000593565b60405180910390a3620005417ffd62fac21eb5e3da6e4bf74f521cb8ddf72b1d1cdf5661983814e1b7b259e23760001b6200057f60201b60201c565b620005757f23486ab4771e7b1bdb825993239a1c8780f7f534af4acb01db818847b5c8660c60001b6200057f60201b60201c565b6001905092915050565b50565b6200058d8162000806565b82525050565b6000602082019050620005aa600083018462000582565b92915050565b6000620005bd8262000806565b9150620005ca8362000806565b9250827fffffffffffffffffffffffffffffffffffffffffffffffffffffffffffffffff0382111562000602576200060162000810565b5b828201905092915050565b6000808291508390505b60018511156200065f5780860481111562000637576200063662000810565b5b6001851615620006475780820291505b808102905062000657856200083f565b945062000617565b94509492505050565b6000620006758262000806565b9150620006828362000806565b9250620006b17fffffffffffffffffffffffffffffffffffffffffffffffffffffffffffffffff8484620006b9565b905092915050565b600082620006cb57600190506200079e565b81620006db57600090506200079e565b8160018114620006f45760028114620006ff5762000735565b60019150506200079e565b60ff84111562000714576200071362000810565b5b8360020a9150848211156200072e576200072d62000810565b5b506200079e565b5060208310610133831016604e8410600b84101617156200076f5782820a90508381111562000769576200076862000810565b5b6200079e565b6200077e84848460016200060d565b9250905081840481111562000798576200079762000810565b5b81810290505b9392505050565b6000620007b28262000806565b9150620007bf8362000806565b9250817fffffffffffffffffffffffffffffffffffffffffffffffffffffffffffffffff0483118215151615620007fb57620007fa62000810565b5b828202905092915050565b6000819050919050565b7f4e487b7100000000000000000000000000000000000000000000000000000000600052601160045260246000fd5b60008160011c9050919050565b6181bc806200085c6000396000f3fe608060405234801561001057600080fd5b506004361061025e5760003560e01c80637eee288d11610146578063c4f3a853116100c3578063dd62ed3e11610087578063dd62ed3e146107bd578063e4cc18be146107ed578063e58398361461080b578063f2fde38b1461083b578063f7b188a51461086b578063f9f8e436146108895761025e565b8063c4f3a853146106f2578063cc3f122814610722578063d1c469161461073e578063d8fb93371461076e578063da235b221461079f5761025e565b80638d1fdf2f1161010a5780638d1fdf2f146106255780638da5cb5b1461065557806395d89b4114610673578063a9059cbb14610691578063b2520a7c146106c15761025e565b80637eee288d1461056f5780637fbbdc8e1461059f57806383cfab42146105bb5780638456cb59146105eb5780638797b766146106095761025e565b806338b82092116101df5780635c975abb116101a35780635c975abb1461049957806370a08231146104b7578063715018a6146104e7578063764920f41461050557806379cc6790146105215780637b352962146105515761025e565b806338b82092146103d15780633b0b04241461040157806340c10f191461041d57806342966c681461044d57806351481b8d1461047d5761025e565b806310cf9f7a1161022657806310cf9f7a1461031957806313e43bc61461033557806318160ddd1461036557806323b872dd14610383578063313ce567146103b35761025e565b806306fdde031461026357806307a1d88c14610281578063095ea7b31461029d57806309a997c0146102cd5780630ed9b8d6146102e9575b600080fd5b61026b6108b9565b6040516102789190617cdf565b60405180910390f35b61029b600480360381019061029691906174f7565b61097a565b005b6102b760048036038101906102b291906174f7565b610989565b6040516102c49190617cc4565b60405180910390f35b6102e760048036038101906102e291906174f7565b610b9d565b005b61030360048036038101906102fe91906174f7565b610bac565b6040516103109190617f01565b60405180910390f35b610333600480360381019061032e9190617443565b610d90565b005b61034f600480360381019061034a91906175ab565b610f2a565b60405161035c9190617f01565b60405180910390f35b61036d610f3f565b60405161037a9190617f01565b60405180910390f35b61039d600480360381019061039891906174a8565b610fcd565b6040516103aa9190617cc4565b60405180910390f35b6103bb611794565b6040516103c89190617f45565b60405180910390f35b6103eb60048036038101906103e69190617533565b611821565b6040516103f89190617cc4565b60405180910390f35b61041b600480360381019061041691906174a8565b611c32565b005b610437600480360381019061043291906174f7565b611c43565b6040516104449190617cc4565b60405180910390f35b610467600480360381019061046291906175ab565b6122ec565b6040516104749190617cc4565b60405180910390f35b61049760048036038101906104929190617582565b6125dd565b005b6104a16125fa565b6040516104ae9190617cc4565b60405180910390f35b6104d160048036038101906104cc9190617443565b612695565b6040516104de9190617f01565b60405180910390f35b6104ef612762565b6040516104fc9190617cc4565b60405180910390f35b61051f600480360381019061051a9190617533565b61298f565b005b61053b600480360381019061053691906174f7565b6129a0565b6040516105489190617cc4565b60405180910390f35b610559612d21565b6040516105669190617cc4565b60405180910390f35b610589600480360381019061058491906174f7565b612dbc565b6040516105969190617cc4565b60405180910390f35b6105b960048036038101906105b491906174f7565b612fce565b005b6105d560048036038101906105d09190617443565b612fdd565b6040516105e29190617cc4565b60405180910390f35b6105f361334f565b6040516106009190617cc4565b60405180910390f35b610623600480360381019061061e9190617443565b6137c3565b005b61063f600480360381019061063a9190617443565b6137d0565b60405161064c9190617cc4565b60405180910390f35b61065d613b42565b60405161066a9190617ca9565b60405180910390f35b61067b613bf0565b6040516106889190617cdf565b60405180910390f35b6106ab60048036038101906106a691906174f7565b613cb1565b6040516106b89190617cc4565b60405180910390f35b6106db60048036038101906106d691906174f7565b61438c565b6040516106e9929190617f1c565b60405180910390f35b61070c60048036038101906107079190617443565b614581565b6040516107199190617cc4565b60405180910390f35b61073c600480360381019061073791906174a8565b6148f0565b005b61075860048036038101906107539190617443565b614901565b6040516107659190617cc4565b60405180910390f35b61078860048036038101906107839190617443565b614cb6565b604051610796929190617f1c565b60405180910390f35b6107a7614e21565b6040516107b49190617f01565b60405180910390f35b6107d760048036038101906107d2919061746c565b614e29565b6040516107e49190617f01565b60405180910390f35b6107f5614f34565b6040516108029190617cc4565b60405180910390f35b61082560048036038101906108209190617443565b615350565b6040516108329190617cc4565b60405180910390f35b61085560048036038101906108509190617443565b61542a565b6040516108629190617cc4565b60405180910390f35b610873615778565b6040516108809190617cc4565b60405180910390f35b6108a3600480360381019061089e9190617443565b615beb565b6040516108b09190617f01565b60405180910390f35b60606108e77f038e2ee8a7d09ede5e854cbddb8ba3e91676f0f916ce8e23bcc017f05422899a60001b615c34565b6109137f66c81af586ed14c841b9022d6027ffb843784f1c88d1ee36b80a778b2084127a60001b615c34565b61093f7fd90940530f784a7ced40a72774eeef46d947e5e4e2043e5044b0dab4b54e0fce60001b615c34565b6040518060400160405280600c81526020017f4d45544120434f4e434552540000000000000000000000000000000000000000815250905090565b6109848282615c37565b505050565b60006109b77f79ece27512dcafd4a2e84d16140fd293497168f6898a7767aab53b455653aa2e60001b615c34565b6109e37faf82ae8cd78c780b0ff1a039b051dd5813c2bc1ed0301297da95fd638fd36fee60001b615c34565b610a0f7f070c0399185f74b16fce0e93879e8511cdb0b5307a152f8eaa90782db2c2ebe360001b615c34565b610a3b7f4138117d35aa0ce6328740fd7b4ec8c50ae10d35b8adf009552bb53e1d3df4b560001b615c34565b600073ffffffffffffffffffffffffffffffffffffffff168373ffffffffffffffffffffffffffffffffffffffff161415610aab576040517f08c379a0000000000000000000000000000000000000000000000000000000008152600401610aa290617d21565b60405180910390fd5b610ad77f5bc066c18b227eaad9b70e90a77491975f8bfd3022ab2131ce2a5893465ed35a60001b615c34565b610b037f802788552ae412d1e7ac83560088a7130d7eb21bf9de3ba355dc0be676868ea060001b615c34565b610b2f7ffafbe14bca7603dda65c0f1cdcc7f04a4e4a9d47c6243a7c61e598547bf2d3c960001b615c34565b610b3a338484615ed7565b50610b677fe14b3545f1bbec2cc6eb03cfd3c7c82e9743dd4be41f19806a48ed63413650c260001b615c34565b610b937f98615477d898e422126fe81ce52b10eeee91f1d366b8d928183e202767a052db60001b615c34565b6001905092915050565b610ba782826160fe565b505050565b60008282610bdc7f815389bb9cfc926a45c1e951b018788f507acd9feb32746931f278a279e69c9660001b6166c1565b610c087f7c3cd08a781998598e069c81e0e2e7f4b0ca3737522cb63e1957769fd8ea82e760001b6166c1565b610c347f6b808c6201dd471626107b8b6f489335aa5f9da0b602c58664878c06b4fbaef960001b6166c1565b610c607f12d24acfa9a515212ba02da453dab0cdeef7bfc834a6d477357987e1056e1b8e60001b6166c1565b80600560008473ffffffffffffffffffffffffffffffffffffffff1673ffffffffffffffffffffffffffffffffffffffff16815260200190815260200160002054610cab9190617f7c565b600160008473ffffffffffffffffffffffffffffffffffffffff1673ffffffffffffffffffffffffffffffffffffffff168152602001908152602001600020541015610d2c576040517f08c379a0000000000000000000000000000000000000000000000000000000008152600401610d2390617e81565b60405180910390fd5b610d587fe52166e483f7fcb1c7ac73cb94e699bcd9779f70f417d4b8b058dc93a242e8d860001b6166c1565b610d847fa58f134bd38321e4292e3fd3541bbafd3c7d0de03dd6dabba902dfa1a466d71160001b6166c1565b60019250505092915050565b80610dbd7f7857655e54e638e4d11460115aaa038d07429f5112ebc2fbed6e4997fe1f80ff60001b6166c4565b610de97fa53034f14a99f9d75f722c0c6361c35f8d9a4d1bea6293be2b5c1be1a0b5ead760001b6166c4565b610e157f48b439b3118506b0f04db61a990896493af16a7543fcc204267fcde6222b280b60001b6166c4565b610e417f07d0c9da2a5b6d6e6501d51501602d6d297e1c2791fc1df7236e809ba9535bab60001b6166c4565b600760008273ffffffffffffffffffffffffffffffffffffffff1673ffffffffffffffffffffffffffffffffffffffff16815260200190815260200160002060009054906101000a900460ff1615610ece576040517f08c379a0000000000000000000000000000000000000000000000000000000008152600401610ec590617ea1565b60405180910390fd5b610efa7fd468095937d422d9505cf758f253d2940975442bc402128b219ed77f722dcb6e60001b6166c4565b610f267f1bbef53f1d34145e2b39cd5630468dd99cd5a9e16721d21654210825751e099860001b6166c4565b5050565b60008142610f389190617f7c565b9050919050565b6000610f6d7f4bd0717e43b8925d8dc9141772f6f7636d0a0433f73e026e820647b8542f642860001b6166c7565b610f997f6139b5f12a832006485094b9ab0b86ab709b2e24393460d219c038de945a1c2060001b6166c7565b610fc57fa923e4a0fadcfa145eb2c46659577bdf2a694b551fa185a45d26646a9fb2d58760001b6166c7565b600054905090565b600083610ffc7f7857655e54e638e4d11460115aaa038d07429f5112ebc2fbed6e4997fe1f80ff60001b6166c4565b6110287fa53034f14a99f9d75f722c0c6361c35f8d9a4d1bea6293be2b5c1be1a0b5ead760001b6166c4565b6110547f48b439b3118506b0f04db61a990896493af16a7543fcc204267fcde6222b280b60001b6166c4565b6110807f07d0c9da2a5b6d6e6501d51501602d6d297e1c2791fc1df7236e809ba9535bab60001b6166c4565b600760008273ffffffffffffffffffffffffffffffffffffffff1673ffffffffffffffffffffffffffffffffffffffff16815260200190815260200160002060009054906101000a900460ff161561110d576040517f08c379a000000000000000000000000000000000000000000000000000000000815260040161110490617ea1565b60405180910390fd5b6111397fd468095937d422d9505cf758f253d2940975442bc402128b219ed77f722dcb6e60001b6166c4565b6111657f1bbef53f1d34145e2b39cd5630468dd99cd5a9e16721d21654210825751e099860001b6166c4565b6111917f2d141b28692a95ba911e4c36d8e55eadb8a2ed3561fdca6ffdcf5e425d3cb9ed60001b6166ca565b6111bd7f762fc2e5cc6fc1796b65928689cc0599aa664dc802ac9e349dc4e9006907ca9760001b6166ca565b6111e97f2408833b8485e1714d9b9c6da0fe93acc9bb6855dbc2e185ff21c26941f92b7460001b6166ca565b6112157f9157306eb06bf3a910b8c10f5c650afc09326ba985a50c059040c50d180aa9a860001b6166ca565b600660009054906101000a900460ff1615611265576040517f08c379a000000000000000000000000000000000000000000000000000000000815260040161125c90617e01565b60405180910390fd5b6112917f55f8034b329988d55d671e0e19dd83a05fc76ecf0db9c244131cb1364548e77160001b6166ca565b6112bd7fb075144e5752c7969f50f287c9343f26e4dfdd364ba0325d053d40a9dacfd3a260001b6166ca565b84836112eb7f815389bb9cfc926a45c1e951b018788f507acd9feb32746931f278a279e69c9660001b6166c1565b6113177f7c3cd08a781998598e069c81e0e2e7f4b0ca3737522cb63e1957769fd8ea82e760001b6166c1565b6113437f6b808c6201dd471626107b8b6f489335aa5f9da0b602c58664878c06b4fbaef960001b6166c1565b61136f7f12d24acfa9a515212ba02da453dab0cdeef7bfc834a6d477357987e1056e1b8e60001b6166c1565b80600560008473ffffffffffffffffffffffffffffffffffffffff1673ffffffffffffffffffffffffffffffffffffffff168152602001908152602001600020546113ba9190617f7c565b600160008473ffffffffffffffffffffffffffffffffffffffff1673ffffffffffffffffffffffffffffffffffffffff16815260200190815260200160002054101561143b576040517f08c379a000000000000000000000000000000000000000000000000000000000815260040161143290617e81565b60405180910390fd5b6114677fe52166e483f7fcb1c7ac73cb94e699bcd9779f70f417d4b8b058dc93a242e8d860001b6166c1565b6114937fa58f134bd38321e4292e3fd3541bbafd3c7d0de03dd6dabba902dfa1a466d71160001b6166c1565b6114bf7f63bf2b8589bc54a16238de0bee844fae3384966dff4568b83213353bc5b6741a60001b615c34565b6114eb7fe7e254050ffc3e568cbc59cf9c549b4503195bb9cb0b5cbca1139767d630df0960001b615c34565b6115177fc4370a7a27d9b9fe51d226745f01a24da6e261471d7dc377b64032abbe8e493e60001b615c34565b6115437f5b2a09ffe510e082d17bcdfedb667db86ffb2cc90d40fb7fdaa85cd6ad0ad4a760001b615c34565b600073ffffffffffffffffffffffffffffffffffffffff168673ffffffffffffffffffffffffffffffffffffffff1614156115b3576040517f08c379a00000000000000000000000000000000000000000000000000000000081526004016115aa90617dc1565b60405180910390fd5b6115df7fb1d03881507a13a4ee3495c4e0bc08faa5bfa447b46d547d2da532f6ca3f999c60001b615c34565b61160b7f1ba22df690e337b07c2a5c336d1df272d36ea714375675d3265a518e95c5e96a60001b615c34565b6116377ff86b3e8b16258b24b30aa358e0415146abe0b49936713d856773c0778d1b9d3460001b615c34565b6116428787876166cd565b5061166f7f9c75478380016476b8e9f0a0846549ef0abda84d7dffe37ffd90753635d3834660001b615c34565b61169b7fc83608c154c963a122be0716e5c29c501bca4f3715a19a8f4b3978fd4ad6454660001b615c34565b61172d873387600260008c73ffffffffffffffffffffffffffffffffffffffff1673ffffffffffffffffffffffffffffffffffffffff16815260200190815260200160002060003373ffffffffffffffffffffffffffffffffffffffff1673ffffffffffffffffffffffffffffffffffffffff168152602001908152602001600020546117289190617fd2565b615ed7565b5061175a7ff9daceb6de2c856afca16cf2902305185b16e3cb6df1b7661370d55224d25fb760001b615c34565b6117867fd7c8693eef558ba7881aa1e7c2f800793c081485eb4ca1ac2c8fd66f56167adf60001b615c34565b600193505050509392505050565b60006117c27fa9706dcb43bbc150605fdc90bf88f3ed99f9dc82de910b2e4c22a9f9cca9ed5560001b615c34565b6117ee7f4879be81a006df5d74a6e7441e3e91dd0598bb24c88eb8e120e092433477c03860001b615c34565b61181a7fc6a03c0d6bc78f018f632f564c6703cbfbbf41ea127ca1fd53d61746656e349d60001b615c34565b6012905090565b600061184f7f602d703e7a3463d0b2913b4d7c736d6e93aa47c592d30130a5fb23661f387fc560001b6169e7565b61187b7fd92ca58ca8f09a1b909bdd3af2a5255217324a2fb94d5c63dfd72706b1f0c2be60001b6169e7565b6118a77fce58fdce94a345ca7f0205ee619845552d0f91153b411c934a02dbc4471def9b60001b6169e7565b6118d37fa8e66ddad752fa23ae2c4293ded6f9402ffa751c96d0218df08bfc9b09099cfb60001b6169e7565b600360009054906101000a900473ffffffffffffffffffffffffffffffffffffffff1673ffffffffffffffffffffffffffffffffffffffff163373ffffffffffffffffffffffffffffffffffffffff1614611963576040517f08c379a000000000000000000000000000000000000000000000000000000000815260040161195a90617e41565b60405180910390fd5b61198f7fbc9e3da51dfef2b8eac39e6513e991b832dd324794e59c2d2638ed90f8474e0960001b6169e7565b6119bb7f3b1220f6016edd4d18672df61176b4c84e8e5f2fb05b76c1da9435d0ddb5aa1760001b6169e7565b6119e77fba47def93d88035397c38c4776884af68ca95e44d0b173add97c2e76543a973e60001b6166c1565b611a137f82d4057625e8d5b1a6f7f7f35da24c14f9c91cfed2259e6222de98fc170e438560001b6166c1565b611a3f7f55637d5c6a13d6fd30dce6914f1c5fc3c1a54e2da400f72cdbc94186acb16c8a60001b6166c1565b611a6b7ffe69b6584f988e9b17ff4b67d8173616b1d12a55ccc8ddb652830da52254986e60001b6166c1565b600073ffffffffffffffffffffffffffffffffffffffff168473ffffffffffffffffffffffffffffffffffffffff161415611adb576040517f08c379a0000000000000000000000000000000000000000000000000000000008152600401611ad290617d01565b60405180910390fd5b611b077ff22ca7bdfa34aebef057c9ccade46943c7154b3819034114dd6f80e8642173ed60001b6166c1565b611b337f20dc8f27e9df4bb1a8a978262d9379ab59e215b4a29a43d50200c80922ce289060001b6166c1565b611b5f7f5fc3a7fdaf7d01685827c677c0e2a22f213fa993c110f6b62826be9e7785344060001b6166c1565b611b6a3385856166cd565b50611b977f7d4bcfcdf79be615c36a20b0eb976463ff06b6179a6368fe8c589114c860f3b960001b6166c1565b611bc37fa25ddc085c7fd8e703efb58ebe9f1cf08f580c55c455c5810d7fd6b4d4ddc6b060001b6166c1565b611bce8484846169ea565b50611bfb7f86b91e70df8c5b115c380de31a7090bcf614df7d37750e6e651b14938dab88d060001b6166c1565b611c277f94e9d9106edddc2c6952b0f78cdf5c287beedb3ce6fdc04ca3bcd2a46738003e60001b6166c1565b600190509392505050565b611c3d838383615ed7565b50505050565b6000611c717f602d703e7a3463d0b2913b4d7c736d6e93aa47c592d30130a5fb23661f387fc560001b6169e7565b611c9d7fd92ca58ca8f09a1b909bdd3af2a5255217324a2fb94d5c63dfd72706b1f0c2be60001b6169e7565b611cc97fce58fdce94a345ca7f0205ee619845552d0f91153b411c934a02dbc4471def9b60001b6169e7565b611cf57fa8e66ddad752fa23ae2c4293ded6f9402ffa751c96d0218df08bfc9b09099cfb60001b6169e7565b600360009054906101000a900473ffffffffffffffffffffffffffffffffffffffff1673ffffffffffffffffffffffffffffffffffffffff163373ffffffffffffffffffffffffffffffffffffffff1614611d85576040517f08c379a0000000000000000000000000000000000000000000000000000000008152600401611d7c90617e41565b60405180910390fd5b611db17fbc9e3da51dfef2b8eac39e6513e991b832dd324794e59c2d2638ed90f8474e0960001b6169e7565b611ddd7f3b1220f6016edd4d18672df61176b4c84e8e5f2fb05b76c1da9435d0ddb5aa1760001b6169e7565b611e097f2d141b28692a95ba911e4c36d8e55eadb8a2ed3561fdca6ffdcf5e425d3cb9ed60001b6166ca565b611e357f762fc2e5cc6fc1796b65928689cc0599aa664dc802ac9e349dc4e9006907ca9760001b6166ca565b611e617f2408833b8485e1714d9b9c6da0fe93acc9bb6855dbc2e185ff21c26941f92b7460001b6166ca565b611e8d7f9157306eb06bf3a910b8c10f5c650afc09326ba985a50c059040c50d180aa9a860001b6166ca565b600660009054906101000a900460ff1615611edd576040517f08c379a0000000000000000000000000000000000000000000000000000000008152600401611ed490617e01565b60405180910390fd5b611f097f55f8034b329988d55d671e0e19dd83a05fc76ecf0db9c244131cb1364548e77160001b6166ca565b611f357fb075144e5752c7969f50f287c9343f26e4dfdd364ba0325d053d40a9dacfd3a260001b6166ca565b611f617f88bd7ec5231ace57e478526977fd6a1140dd447f3b04a94c3d7af771280f664260001b616f62565b611f8d7fbbe2bf84d2fb2cb94cb78a7312c31304d7bbcdc7afe591d5ae97a94c528113b660001b616f62565b611fb97f879feb04fb82d415d054451428b547e1554730555a2c0ac29d2454b9dc42cfda60001b616f62565b611fe57fcb72399a55633038df8aa5555e9c5fa62a4b74cb267142072eeb2f646f27373360001b616f62565b600073ffffffffffffffffffffffffffffffffffffffff168373ffffffffffffffffffffffffffffffffffffffff161415612055576040517f08c379a000000000000000000000000000000000000000000000000000000000815260040161204c90617de1565b60405180910390fd5b6120817f32b5349398d5a1af8f07d125306fe80ff119de09eb92fc9214ea91026456013560001b616f62565b6120ad7f18f23ebe8dad30faabe066b5bd530516a92c9c6a8be7cbdc18e52131c8b6d22f60001b616f62565b6120d97fc6fc700b0bef551cf6c5cd173d9e26906cb529e7a54cbf7e14eb7e8c1b5bb67360001b616f62565b6121057fc8244b3fd53297ce87a7c9ff82c876513a5dcf4c05cba029fe93dfe4730a8b4760001b616f62565b600860009054906101000a900460ff1615612155576040517f08c379a000000000000000000000000000000000000000000000000000000000815260040161214c90617e21565b60405180910390fd5b6121817f262a25ea4d37286c72760776ba28e41c180e7dd6b5d5998ad271b19c75ddc0b260001b616f62565b6121ad7f0e741746880226cc9543ae4a8f604481797e5b82e971bae9c950884689015faa60001b616f62565b6121d97ffde04324b2749bd10021632a8a62c1bf6e9c2cab8e43918abf31ce52aa9d466d60001b616f62565b6121e38383615c37565b506122107f622cbe70c73aca346b18ee00734bb6b2ec91542a005289c310f867cc44ca8dd760001b616f62565b61223c7f2353f60d0de3e51547f0744df0678663a33e44dfc5b7228012c609c3e05d831560001b616f62565b8273ffffffffffffffffffffffffffffffffffffffff167f0f6798a560793a54c3bcfe86a93cde1e73087d944c0ea20544137d4121396885836040516122829190617f01565b60405180910390a26122b67fb1ac20ebf386629835a15fdb922544f5d8bc6a55a0c56c8107b64c8aafc1f5ba60001b616f62565b6122e27fde24a3fbfb655422a544a9e060e32639d75c7dbd76b1610ee26ee0176d8e5cf760001b616f62565b6001905092915050565b600061231a7f2d141b28692a95ba911e4c36d8e55eadb8a2ed3561fdca6ffdcf5e425d3cb9ed60001b6166ca565b6123467f762fc2e5cc6fc1796b65928689cc0599aa664dc802ac9e349dc4e9006907ca9760001b6166ca565b6123727f2408833b8485e1714d9b9c6da0fe93acc9bb6855dbc2e185ff21c26941f92b7460001b6166ca565b61239e7f9157306eb06bf3a910b8c10f5c650afc09326ba985a50c059040c50d180aa9a860001b6166ca565b600660009054906101000a900460ff16156123ee576040517f08c379a00000000000000000000000000000000000000000000000000000000081526004016123e590617e01565b60405180910390fd5b61241a7f55f8034b329988d55d671e0e19dd83a05fc76ecf0db9c244131cb1364548e77160001b6166ca565b6124467fb075144e5752c7969f50f287c9343f26e4dfdd364ba0325d053d40a9dacfd3a260001b6166ca565b6124727f4c5db109ab78930fe6fc6a3ceb55aad96d1bf3976a5ffa77f131ee58bc8fd12e60001b616f65565b61249e7fd24186510cadf12a18c9eb69e39d741861ecb83a335b2b8cef311b49eaad28e260001b616f65565b6124ca7f3e8350ebba81c7029a90e706fb3310d07cd0b23f4df0d90210e2ada8839f8c5a60001b616f65565b6124d43383616f68565b90506125027fdc270d59eedc78cafaef337d6d0b458f4d52417c531f8eb71f3c7903f12a81ce60001b616f65565b61252e7fec88da6f6b12b163b2a12479ae0cbfae63ab77749111da93baadb3126259a48e60001b616f65565b3373ffffffffffffffffffffffffffffffffffffffff167fcc16f5dbb4873280815c1ee09dbd06736cffcc184412cf7a71a0fdb75d397ca5836040516125749190617f01565b60405180910390a26125a87f08dec0902065d68a5aab6f91c1680a581ee4897480fecd9193b2800e6d04906d60001b616f65565b6125d47fa04d743f65c0670c9319038f1aee60ed2dfaa35ee78ae0ec2dcc82eb38c4e54a60001b616f65565b60019050919050565b80600860006101000a81548160ff02191690831515021790555050565b60006126287f18fd889876da8653209424c3b48aae05037c99148444d1f123285764514a163160001b6166ca565b6126547fdea3630ec8ab224c78df94ac29eb2adbe43b3863cd21e7e33b99a13233d84e1b60001b6166ca565b6126807f3867282a1046a33e7eebcd0cf7ee7c84d175483b315e64aa4fad22062072eaf760001b6166ca565b600660009054906101000a900460ff16905090565b60006126c37f63d295beaeb28bdbc193016cc8db2dd674fa62e4c9eb2adede324b4ed0dcc13a60001b6166c7565b6126ef7fef8017e2b9dd0981fba78692d267a31bf202fd38eed3b29f2fcc070b07e83c8660001b6166c7565b61271b7fef4aecba4f8d960f10deeca16d897ebc96fee031ac05337eecf578cbe9d24fb760001b6166c7565b600160008373ffffffffffffffffffffffffffffffffffffffff1673ffffffffffffffffffffffffffffffffffffffff168152602001908152602001600020549050919050565b60006127907f602d703e7a3463d0b2913b4d7c736d6e93aa47c592d30130a5fb23661f387fc560001b6169e7565b6127bc7fd92ca58ca8f09a1b909bdd3af2a5255217324a2fb94d5c63dfd72706b1f0c2be60001b6169e7565b6127e87fce58fdce94a345ca7f0205ee619845552d0f91153b411c934a02dbc4471def9b60001b6169e7565b6128147fa8e66ddad752fa23ae2c4293ded6f9402ffa751c96d0218df08bfc9b09099cfb60001b6169e7565b600360009054906101000a900473ffffffffffffffffffffffffffffffffffffffff1673ffffffffffffffffffffffffffffffffffffffff163373ffffffffffffffffffffffffffffffffffffffff16146128a4576040517f08c379a000000000000000000000000000000000000000000000000000000000815260040161289b90617e41565b60405180910390fd5b6128d07fbc9e3da51dfef2b8eac39e6513e991b832dd324794e59c2d2638ed90f8474e0960001b6169e7565b6128fc7f3b1220f6016edd4d18672df61176b4c84e8e5f2fb05b76c1da9435d0ddb5aa1760001b6169e7565b6129287fd764470c5f1e167ee15b7406c44263326240f7563185d01bd33b2c797dd027ee60001b6169e7565b6129547f8f16fcf9404736cc2c98959dffb406e3830524cb6ae5b0677efc25b2eb013c6460001b6169e7565b6129807f758e43c9c4a47855d429841245d665751688631e371a85e157efba320518824660001b6169e7565b61298a6000617208565b905090565b61299a8383836169ea565b50505050565b60006129ce7f2d141b28692a95ba911e4c36d8e55eadb8a2ed3561fdca6ffdcf5e425d3cb9ed60001b6166ca565b6129fa7f762fc2e5cc6fc1796b65928689cc0599aa664dc802ac9e349dc4e9006907ca9760001b6166ca565b612a267f2408833b8485e1714d9b9c6da0fe93acc9bb6855dbc2e185ff21c26941f92b7460001b6166ca565b612a527f9157306eb06bf3a910b8c10f5c650afc09326ba985a50c059040c50d180aa9a860001b6166ca565b600660009054906101000a900460ff1615612aa2576040517f08c379a0000000000000000000000000000000000000000000000000000000008152600401612a9990617e01565b60405180910390fd5b612ace7f55f8034b329988d55d671e0e19dd83a05fc76ecf0db9c244131cb1364548e77160001b6166ca565b612afa7fb075144e5752c7969f50f287c9343f26e4dfdd364ba0325d053d40a9dacfd3a260001b6166ca565b612b267f47c7aad33cc5a40ef611f699135a32711124813682e054b5023ec1292b50ceb060001b616f65565b612b527fdad56fbd3863dc503713b0e85a2136f9c5e6d70c9a351fccd580381bcab50b1360001b616f65565b612b7e7ff3f2b26be29701236e5cb1e2f95c0178b369ca42192276f5449679607438f4ca60001b616f65565b612b888383616f68565b50612bb57f725d68408a52aa8d84dae04894944bc642ebd49987d0b007a370d24762e9eee160001b616f65565b612be17ffe4bdbf2b503d8d13c3647ae7e052db8696bf0fdd4d3157285014f50e11a6acc60001b616f65565b8273ffffffffffffffffffffffffffffffffffffffff167fcc16f5dbb4873280815c1ee09dbd06736cffcc184412cf7a71a0fdb75d397ca583604051612c279190617f01565b60405180910390a2612c5b7fdfed24d914de80a3f42f93340858a5e4ab4dd5cee6dc6d5c18edf4843f890ff560001b616f65565b612c877f129233e6f18dc128892cd53e960338936db17c26295b27af4a941a5e5f0e1a3460001b616f65565b612d19833384600260008873ffffffffffffffffffffffffffffffffffffffff1673ffffffffffffffffffffffffffffffffffffffff16815260200190815260200160002060003373ffffffffffffffffffffffffffffffffffffffff1673ffffffffffffffffffffffffffffffffffffffff16815260200190815260200160002054612d149190617fd2565b615ed7565b905092915050565b6000612d4f7fa872fbb5aa0d5461144a099e50f4008962510070ac4bdd4ee0da4b15d17cac3460001b616f62565b612d7b7f351523ee0272336df458c523a6ec7b69e802d30753bad8acfb288733df67b66b60001b616f62565b612da77f655b0610fc1a6b656b79fe80209d82d196d3b6c6ab3aa878a8947568fd555c3660001b616f62565b600860009054906101000a900460ff16905090565b6000612dea7f2cb6d3d0ab2664b744ed3cf0e1dfc11060dad291fe6f93a5caddcd9d5ddb68a360001b6166c1565b612e167f96718cc81e6bb2a3336aab3e071d488699bd3596c3db07fd80debedc8a3495a360001b6166c1565b612e427fe97541d45abd2dccb071cf4f4a870844ff42122be3682702291ebf12a4bec0a160001b6166c1565b612e6e7f6353e0b4029406c4d9755b56c832999480e5976ba639b0e425f82d899b12554b60001b6166c1565b42600460008573ffffffffffffffffffffffffffffffffffffffff1673ffffffffffffffffffffffffffffffffffffffff1681526020019081526020016000208381548110612ee6577f4e487b7100000000000000000000000000000000000000000000000000000000600052603260045260246000fd5b90600052602060002090600202016001015410612f38576040517f08c379a0000000000000000000000000000000000000000000000000000000008152600401612f2f90617da1565b60405180910390fd5b612f647f6341a8aab2469629fac9fabe6db5149bab01908fd51c79a76af7209fe1ea264060001b6166c1565b612f907f1f8e89514257959043627d81ed3a8cde4aaa29fa561858c4d4ea42c69c9e54b660001b6166c1565b612fbc7f080ec25b6df4b84275c1bb5e2df67e0fa1aec7a386182695f1ac5e76f279dfbf60001b6166c1565b612fc683836160fe565b905092915050565b612fd88282616f68565b505050565b600061300b7f602d703e7a3463d0b2913b4d7c736d6e93aa47c592d30130a5fb23661f387fc560001b6169e7565b6130377fd92ca58ca8f09a1b909bdd3af2a5255217324a2fb94d5c63dfd72706b1f0c2be60001b6169e7565b6130637fce58fdce94a345ca7f0205ee619845552d0f91153b411c934a02dbc4471def9b60001b6169e7565b61308f7fa8e66ddad752fa23ae2c4293ded6f9402ffa751c96d0218df08bfc9b09099cfb60001b6169e7565b600360009054906101000a900473ffffffffffffffffffffffffffffffffffffffff1673ffffffffffffffffffffffffffffffffffffffff163373ffffffffffffffffffffffffffffffffffffffff161461311f576040517f08c379a000000000000000000000000000000000000000000000000000000000815260040161311690617e41565b60405180910390fd5b61314b7fbc9e3da51dfef2b8eac39e6513e991b832dd324794e59c2d2638ed90f8474e0960001b6169e7565b6131777f3b1220f6016edd4d18672df61176b4c84e8e5f2fb05b76c1da9435d0ddb5aa1760001b6169e7565b6131a37ff0c77d6e6316d02d885bb02d2073b3da8b4692c1d6b4f920db0a641b44e0a83a60001b6166c4565b6131cf7f77e13b8593e7e12310c1452823e7a02ecc5a463cec3ecbde2ff8192321733ab760001b6166c4565b6131fb7f94397dda418c4bf79ed52425a25acc479fbabf59d4ea8bc951fbed1c9dee7a4460001b6166c4565b6000600760008473ffffffffffffffffffffffffffffffffffffffff1673ffffffffffffffffffffffffffffffffffffffff16815260200190815260200160002060006101000a81548160ff02191690831515021790555061327f7fe5603880c1820625865f991adc14b2c344665b4e33b23ee9b52b97e82ce5a2d960001b6166c4565b6132ab7f3031eaef18d5ee8a2dad1b53ddada3bd685cc8d319dc3b7e8b7771e817c9846d60001b6166c4565b8173ffffffffffffffffffffffffffffffffffffffff167fca5069937e68fd197927055037f59d7c90bf75ac104e6e375539ef480c3ad6ee60405160405180910390a261331a7f9fcd398c5bfca0bb92365b10bfc906453efb0366249a322ffab9bfbc1409957a60001b6166c4565b6133467f2052f7d2abc32702f2f1512468c4c1dba227e7234c8297f7497302eea5d8884260001b6166c4565b60019050919050565b600061337d7f602d703e7a3463d0b2913b4d7c736d6e93aa47c592d30130a5fb23661f387fc560001b6169e7565b6133a97fd92ca58ca8f09a1b909bdd3af2a5255217324a2fb94d5c63dfd72706b1f0c2be60001b6169e7565b6133d57fce58fdce94a345ca7f0205ee619845552d0f91153b411c934a02dbc4471def9b60001b6169e7565b6134017fa8e66ddad752fa23ae2c4293ded6f9402ffa751c96d0218df08bfc9b09099cfb60001b6169e7565b600360009054906101000a900473ffffffffffffffffffffffffffffffffffffffff1673ffffffffffffffffffffffffffffffffffffffff163373ffffffffffffffffffffffffffffffffffffffff1614613491576040517f08c379a000000000000000000000000000000000000000000000000000000000815260040161348890617e41565b60405180910390fd5b6134bd7fbc9e3da51dfef2b8eac39e6513e991b832dd324794e59c2d2638ed90f8474e0960001b6169e7565b6134e97f3b1220f6016edd4d18672df61176b4c84e8e5f2fb05b76c1da9435d0ddb5aa1760001b6169e7565b6135157f2d141b28692a95ba911e4c36d8e55eadb8a2ed3561fdca6ffdcf5e425d3cb9ed60001b6166ca565b6135417f762fc2e5cc6fc1796b65928689cc0599aa664dc802ac9e349dc4e9006907ca9760001b6166ca565b61356d7f2408833b8485e1714d9b9c6da0fe93acc9bb6855dbc2e185ff21c26941f92b7460001b6166ca565b6135997f9157306eb06bf3a910b8c10f5c650afc09326ba985a50c059040c50d180aa9a860001b6166ca565b600660009054906101000a900460ff16156135e9576040517f08c379a00000000000000000000000000000000000000000000000000000000081526004016135e090617e01565b60405180910390fd5b6136157f55f8034b329988d55d671e0e19dd83a05fc76ecf0db9c244131cb1364548e77160001b6166ca565b6136417fb075144e5752c7969f50f287c9343f26e4dfdd364ba0325d053d40a9dacfd3a260001b6166ca565b61366d7f76a5140ff0247dc1ba8a606a206b28f3204ecd77bfb9ecb27a7d553698b46e7c60001b6166ca565b6136997f1bcb12a35870af49fb090346f3d97b2d068f7582ce3dd60a0a741ed7402e4bd560001b6166ca565b6136c57fb989a1d399a256e44550fa1481eb65a46a81d357a6b4e9040900dca15e3ebf8960001b6166ca565b6001600660006101000a81548160ff02191690831515021790555061370c7fcd28e02d93b5b30e76b3471922c6f1322431d2a44ca9b1d543da466503fa09b560001b6166ca565b6137387feb1b4ccaa584c0835d2f3e1afaad46e5a838b3f9af857f712eed2d992e2c5b2160001b6166ca565b7f9e87fac88ff661f02d44f95383c817fece4bce600a3dab7a54406878b965e75260405160405180910390a16137907f10a26c6ae28c5b9694d106abe68cd705dda9f73b2f2010874909e3f928310bf060001b6166ca565b6137bc7f3818f8279eec71808d8732a3d9cf8e5310febfec66e5cddb162882e7e37063c160001b6166ca565b6001905090565b6137cc81617208565b5050565b60006137fe7f602d703e7a3463d0b2913b4d7c736d6e93aa47c592d30130a5fb23661f387fc560001b6169e7565b61382a7fd92ca58ca8f09a1b909bdd3af2a5255217324a2fb94d5c63dfd72706b1f0c2be60001b6169e7565b6138567fce58fdce94a345ca7f0205ee619845552d0f91153b411c934a02dbc4471def9b60001b6169e7565b6138827fa8e66ddad752fa23ae2c4293ded6f9402ffa751c96d0218df08bfc9b09099cfb60001b6169e7565b600360009054906101000a900473ffffffffffffffffffffffffffffffffffffffff1673ffffffffffffffffffffffffffffffffffffffff163373ffffffffffffffffffffffffffffffffffffffff1614613912576040517f08c379a000000000000000000000000000000000000000000000000000000000815260040161390990617e41565b60405180910390fd5b61393e7fbc9e3da51dfef2b8eac39e6513e991b832dd324794e59c2d2638ed90f8474e0960001b6169e7565b61396a7f3b1220f6016edd4d18672df61176b4c84e8e5f2fb05b76c1da9435d0ddb5aa1760001b6169e7565b6139967f40ae5d150755cd45b9e6ce16271e7f8857404a011dd48932dfd1d28c2cfc2fab60001b6166c4565b6139c27f3aef4d35d2c04975f114d0caa963fe27dabd580738491fe6571f388ecfc63e4660001b6166c4565b6139ee7f4ffa4d66e4a6f3cec9dea2efc5c21294acc2ca51e8efad91a72e932373ec675560001b6166c4565b6001600760008473ffffffffffffffffffffffffffffffffffffffff1673ffffffffffffffffffffffffffffffffffffffff16815260200190815260200160002060006101000a81548160ff021916908315150217905550613a727f1eb3d2ce26039a182ef37cc932abd4377c5885adebefb4bca082fad5424cd1ac60001b6166c4565b613a9e7f0419125394d5ce89924afcb515f704cd85e783b2341493a21bece0db95f12d9e60001b6166c4565b8173ffffffffffffffffffffffffffffffffffffffff167faf85b60d26151edd11443b704d424da6c43d0468f2235ebae3d1904dbc32304960405160405180910390a2613b0d7fb3503f87b1b84cfafbbd50892f9b79871748329c82534d03b2aa200de4996de460001b6166c4565b613b397ff11f632d7f30cace63dfed659e395e5a057f42019bd01f67c5538b356c1de7ac60001b6166c4565b60019050919050565b6000613b707faa4946c997c8d9e185e5bd336239e1538bdf6277c9ed07f24cb161390305e91a60001b6169e7565b613b9c7fd6f35532eb599961386a69d528965512fde632ded832cc75c4c00c3940329d5460001b6169e7565b613bc87f8bca74d9c11ad28e5835b85881063c665f723ad95fc5562a92463eb078e4f3d860001b6169e7565b600360009054906101000a900473ffffffffffffffffffffffffffffffffffffffff16905090565b6060613c1e7f247a38103a3f2a7fce27989584771642376e2a8a3755da0b18e76ac48f281c6b60001b615c34565b613c4a7f5a43c107e08e396f80c0b4878a11c0fad11ecc091d3e22e60441ab93bef55e1d60001b615c34565b613c767fbfb4fb29ec7e522e9efce878f4e81d3997b73f9a51b33f4b4ea4f8dd2a5acb7260001b615c34565b6040518060400160405280600481526020017f4d45434f00000000000000000000000000000000000000000000000000000000815250905090565b600033613ce07f7857655e54e638e4d11460115aaa038d07429f5112ebc2fbed6e4997fe1f80ff60001b6166c4565b613d0c7fa53034f14a99f9d75f722c0c6361c35f8d9a4d1bea6293be2b5c1be1a0b5ead760001b6166c4565b613d387f48b439b3118506b0f04db61a990896493af16a7543fcc204267fcde6222b280b60001b6166c4565b613d647f07d0c9da2a5b6d6e6501d51501602d6d297e1c2791fc1df7236e809ba9535bab60001b6166c4565b600760008273ffffffffffffffffffffffffffffffffffffffff1673ffffffffffffffffffffffffffffffffffffffff16815260200190815260200160002060009054906101000a900460ff1615613df1576040517f08c379a0000000000000000000000000000000000000000000000000000000008152600401613de890617ea1565b60405180910390fd5b613e1d7fd468095937d422d9505cf758f253d2940975442bc402128b219ed77f722dcb6e60001b6166c4565b613e497f1bbef53f1d34145e2b39cd5630468dd99cd5a9e16721d21654210825751e099860001b6166c4565b613e757f2d141b28692a95ba911e4c36d8e55eadb8a2ed3561fdca6ffdcf5e425d3cb9ed60001b6166ca565b613ea17f762fc2e5cc6fc1796b65928689cc0599aa664dc802ac9e349dc4e9006907ca9760001b6166ca565b613ecd7f2408833b8485e1714d9b9c6da0fe93acc9bb6855dbc2e185ff21c26941f92b7460001b6166ca565b613ef97f9157306eb06bf3a910b8c10f5c650afc09326ba985a50c059040c50d180aa9a860001b6166ca565b600660009054906101000a900460ff1615613f49576040517f08c379a0000000000000000000000000000000000000000000000000000000008152600401613f4090617e01565b60405180910390fd5b613f757f55f8034b329988d55d671e0e19dd83a05fc76ecf0db9c244131cb1364548e77160001b6166ca565b613fa17fb075144e5752c7969f50f287c9343f26e4dfdd364ba0325d053d40a9dacfd3a260001b6166ca565b3383613fcf7f815389bb9cfc926a45c1e951b018788f507acd9feb32746931f278a279e69c9660001b6166c1565b613ffb7f7c3cd08a781998598e069c81e0e2e7f4b0ca3737522cb63e1957769fd8ea82e760001b6166c1565b6140277f6b808c6201dd471626107b8b6f489335aa5f9da0b602c58664878c06b4fbaef960001b6166c1565b6140537f12d24acfa9a515212ba02da453dab0cdeef7bfc834a6d477357987e1056e1b8e60001b6166c1565b80600560008473ffffffffffffffffffffffffffffffffffffffff1673ffffffffffffffffffffffffffffffffffffffff1681526020019081526020016000205461409e9190617f7c565b600160008473ffffffffffffffffffffffffffffffffffffffff1673ffffffffffffffffffffffffffffffffffffffff16815260200190815260200160002054101561411f576040517f08c379a000000000000000000000000000000000000000000000000000000000815260040161411690617e81565b60405180910390fd5b61414b7fe52166e483f7fcb1c7ac73cb94e699bcd9779f70f417d4b8b058dc93a242e8d860001b6166c1565b6141777fa58f134bd38321e4292e3fd3541bbafd3c7d0de03dd6dabba902dfa1a466d71160001b6166c1565b6141a37ff52b2496ad91d5139b5168e965f3e47b674296496985f98011c358a5e3ff188260001b615c34565b6141cf7fc62751e48026ce0a0be98c9df960b1dd45bddba999b66ff2efb8c865b70aeee960001b615c34565b6141fb7fa3f1a2ac07308569067133b8debb904853dbed9d0acea090736b7cee2251fd4260001b615c34565b6142277ffff26741587fdaa162f01c499996b03fa687bab76800497ae9555e8e7e27ead260001b615c34565b600073ffffffffffffffffffffffffffffffffffffffff168673ffffffffffffffffffffffffffffffffffffffff161415614297576040517f08c379a000000000000000000000000000000000000000000000000000000000815260040161428e90617e61565b60405180910390fd5b6142c37f139ed574547a938087f4dc83189532f3386d1f3541e475415fbf70201ea0f1a060001b615c34565b6142ef7f5933a7a6371ac2f2bfcf1a7b1df67a020a8c44ad831f33b9ea2d3eb85c21d0ea60001b615c34565b61431b7f5e9dc7c6a7be2f1d272ff2deaa24a17bf4fa821759c5d356beef7a51bd56c3c260001b615c34565b6143263387876166cd565b506143537f4c83a9bc3ae4a5b3aebcee579c292c65a96e7c8982730dc8582dcf1ec4de9e0260001b615c34565b61437f7f997d1bd6989dd45f6bc1f2c57ec9c2243680ec16f792c832b82e468f211dc26360001b615c34565b6001935050505092915050565b6000806143bb7f6e45e45aa31c82f93a33b6b3f79a2d8e40c6e6355e3e51dbe0cf6243e549d8d860001b6166c1565b6143e77f4888ffae917628a5d0a712431154f7e4f225e89aec9870b421cd033b66df38a860001b6166c1565b6144137f2384bfeb18fbdd94a47f67cb48af8ba61d3d5766f014efa8333d4782aa062f0160001b6166c1565b6000600460008673ffffffffffffffffffffffffffffffffffffffff1673ffffffffffffffffffffffffffffffffffffffff168152602001908152602001600020848154811061448c577f4e487b7100000000000000000000000000000000000000000000000000000000600052603260045260246000fd5b90600052602060002090600202016040518060400160405290816000820154815260200160018201548152505090506144e77f061794d2bfc65a1d91cdb4c5bbfe4b109acaabbb92f66f91cfcfdddbc3f7e32560001b6166c1565b6145137ff46b7b207cc404d7171e21a67541cd66ecacbd1b2e653621c42ddad33a98f88d60001b6166c1565b806000015192506145467fc8138c4a59323194c7890ec4e2aba4b0d192fae17c6d5b4bcbc9936637c1a3be60001b6166c1565b6145727ff96398c032804ecd8e75332b674654b049e87435a60f859adaf575706eee30ef60001b6166c1565b80602001519150509250929050565b60006145af7fef85e393a629d0ff1964640f94474fc097edc281cf58b02fef4ea63f978b522960001b6166c1565b6145db7f2a51f727c3a0ebc9151982199a652dbabcf50447b963c7a34d6eb05cb2a25dc060001b6166c1565b6146077fff3b2bf4bf8540a6aa5a1f9ecc7289086caf39f767a84ddbfab5cdc91cc18e2b60001b6166c1565b60005b600460008473ffffffffffffffffffffffffffffffffffffffff1673ffffffffffffffffffffffffffffffffffffffff1681526020019081526020016000208054905081101561488e576146807f491b85396a193b9092daeff0fda6ccfed2c721f9d0cd08cc0c76fe3b022e2ab660001b6166c1565b808061468b906180b8565b9150506146ba7f247774f1210b7836027adda9b91788f5a7d319013b0f8aa1419e3590c720029960001b6166c1565b6146e67faa316729f9aac31f059044054807c1aa3442609b6c3451d873221228d7f9072160001b6166c1565b42600460008573ffffffffffffffffffffffffffffffffffffffff1673ffffffffffffffffffffffffffffffffffffffff1681526020019081526020016000206001836147339190617fd2565b8154811061476a577f4e487b7100000000000000000000000000000000000000000000000000000000600052603260045260246000fd5b906000526020600020906002020160010154101561485c576147ae7f10b9085aa10efbd9e61e94413cb9b37bc666d901d8952b4dfeb52bf5544813a360001b6166c1565b6147da7fb08a2f47e4975cc3395acce44770772220c5739e87a246115cd5713a72a2539860001b6166c1565b6148067f8be31f783ea83ad622c82d1b68903b6765fda2d9a7607a570fe102097ec25b6b60001b6166c1565b61481c836001836148179190617fd2565b6160fe565b506148497f41b13b19b40e38ea0f4f6a376b40193f0a8b19ae0e7a66955defd8ffde86bc8c60001b6166c1565b80806148549061808e565b915050614889565b6148887f4c8a3d5bdc08530fa25105cde3e104c4db1d641d9f254a69dce84603c8be83a160001b6166c1565b5b61460a565b506148bb7fd4fc5e7149f65df763de19c3dcdde71f14e056b809161bd06834db99e8d363bf60001b6166c1565b6148e77f502a592465df7506fcc1c6c593f6c9f8f0db179f2a663102da0f02d928bc63d560001b6166c1565b60019050919050565b6148fb8383836166cd565b50505050565b600061492f7f602d703e7a3463d0b2913b4d7c736d6e93aa47c592d30130a5fb23661f387fc560001b6169e7565b61495b7fd92ca58ca8f09a1b909bdd3af2a5255217324a2fb94d5c63dfd72706b1f0c2be60001b6169e7565b6149877fce58fdce94a345ca7f0205ee619845552d0f91153b411c934a02dbc4471def9b60001b6169e7565b6149b37fa8e66ddad752fa23ae2c4293ded6f9402ffa751c96d0218df08bfc9b09099cfb60001b6169e7565b600360009054906101000a900473ffffffffffffffffffffffffffffffffffffffff1673ffffffffffffffffffffffffffffffffffffffff163373ffffffffffffffffffffffffffffffffffffffff1614614a43576040517f08c379a0000000000000000000000000000000000000000000000000000000008152600401614a3a90617e41565b60405180910390fd5b614a6f7fbc9e3da51dfef2b8eac39e6513e991b832dd324794e59c2d2638ed90f8474e0960001b6169e7565b614a9b7f3b1220f6016edd4d18672df61176b4c84e8e5f2fb05b76c1da9435d0ddb5aa1760001b6169e7565b614ac77f1f6444d565679ac7bc8c08a84a87b24c2dbce6105aac58f9ddfb05786f2de10660001b6166c1565b614af37f1faf4aec25ef225184c2e9305d6497e13e1ff7a75370b36835a6ad70e2d0b19060001b6166c1565b614b1f7fd66229d0a49088e9ef5108cae8a5069ea707a51e367ce8af3c3ebb40a63614c460001b6166c1565b60005b600460008473ffffffffffffffffffffffffffffffffffffffff1673ffffffffffffffffffffffffffffffffffffffff16815260200190815260200160002080549050811015614c5457614b987f6548ca94d73b87075a5098ce9de9b6e1c61c6dd027486f41ddcbe31554fc98e160001b6166c1565b8080614ba3906180b8565b915050614bd27fdddc97b7ef9d6f2f0edf8b4e2e1bfa01a2b3d6e177e1cb81ba9d5a5897fc1a1560001b6166c1565b614bfe7f386edcedfd8e08882ae82335dfc87df01c33615c2fe8f839f1caa33136d64ad660001b6166c1565b614c1483600183614c0f9190617fd2565b6160fe565b50614c417ffee7e60330b4f3fdd489fb56475049825d82455ce63975193680dc931415637b60001b6166c1565b8080614c4c9061808e565b915050614b22565b50614c817f5d482ef02175ac7c7ba2736ff5aceb4446bfe56033ccb0f0c690cae0ea181dc560001b6166c1565b614cad7f2ec09992bf087c2fb64da5ecba7c86c2c050f25d70871769294c001ee47fa4f160001b6166c1565b60019050919050565b600080614ce57f7a0d2afff6449f72e1b35c1d6c1dd635afdd2aba935cc506919458fdac6a5ad560001b6166c1565b614d117f9aa2b6cf4dbca338aa4ec83e92fc313e73f3c6b8b325a2c79af05c031199389360001b6166c1565b614d3d7f9b950d50e4b0dff063535aeba35cc3dce098940da97056b678dc7795d3284adc60001b6166c1565b600560008473ffffffffffffffffffffffffffffffffffffffff1673ffffffffffffffffffffffffffffffffffffffff168152602001908152602001600020549150614dab7fb762bb69d0c89821ac2e95b6ae533e76f72904d2ed5b89f8d8e33928bb1e4cd960001b6166c1565b614dd77fa46e1e6faa373fba3d3d4125a57e456e6c1f013815da73692889f2e205472efa60001b6166c1565b600460008473ffffffffffffffffffffffffffffffffffffffff1673ffffffffffffffffffffffffffffffffffffffff168152602001908152602001600020805490509050915091565b600042905090565b6000614e577fd7e854e760fb61f0f6f26b2aebf58ba7ab72424d4964aa93eb04381727de79db60001b6166c7565b614e837fcebbe8c7b595ad5c80a9e711cc2d2989317c4c8a05089e7d7b3000289de356f960001b6166c7565b614eaf7f61b265e2a9d0ec1ae64a510867bbd78a2d0f725f41fce59266f619c20bf2c6e360001b6166c7565b600260008473ffffffffffffffffffffffffffffffffffffffff1673ffffffffffffffffffffffffffffffffffffffff16815260200190815260200160002060008373ffffffffffffffffffffffffffffffffffffffff1673ffffffffffffffffffffffffffffffffffffffff16815260200190815260200160002054905092915050565b6000614f627f602d703e7a3463d0b2913b4d7c736d6e93aa47c592d30130a5fb23661f387fc560001b6169e7565b614f8e7fd92ca58ca8f09a1b909bdd3af2a5255217324a2fb94d5c63dfd72706b1f0c2be60001b6169e7565b614fba7fce58fdce94a345ca7f0205ee619845552d0f91153b411c934a02dbc4471def9b60001b6169e7565b614fe67fa8e66ddad752fa23ae2c4293ded6f9402ffa751c96d0218df08bfc9b09099cfb60001b6169e7565b600360009054906101000a900473ffffffffffffffffffffffffffffffffffffffff1673ffffffffffffffffffffffffffffffffffffffff163373ffffffffffffffffffffffffffffffffffffffff1614615076576040517f08c379a000000000000000000000000000000000000000000000000000000000815260040161506d90617e41565b60405180910390fd5b6150a27fbc9e3da51dfef2b8eac39e6513e991b832dd324794e59c2d2638ed90f8474e0960001b6169e7565b6150ce7f3b1220f6016edd4d18672df61176b4c84e8e5f2fb05b76c1da9435d0ddb5aa1760001b6169e7565b6150fa7ff44f73fa7117201c6591f25052386627dd8c3f675b8524cdc6856255dc9aa3b660001b616f62565b6151267f6c517ba2f321f41147f9bb8d670a5d3400f63a05dcb5cb57c067c99bd3e55ecc60001b616f62565b6151527fb7985381407eb8286d9270846645a968adb34487539eb6256468ea037e55c19260001b616f62565b61517e7f119ca4df07d3b977c523241381a28550ca2542840ac2fef67c72d2427074f56d60001b616f62565b600860009054906101000a900460ff16156151ce576040517f08c379a00000000000000000000000000000000000000000000000000000000081526004016151c590617d41565b60405180910390fd5b6151fa7f70ee11964c3aa9215966313e40248c48d8bb6c8d3b37a15cd02fa52347488f6360001b616f62565b6152267f094508dc9d978ec0323c7492a347871fe2de0c09e4174ed287020da61fb23c2a60001b616f62565b6152527f1f6594b488b5822a9deef95b8fc32041e4f88ea09e11772329f6e24fc6c796c760001b616f62565b6001600860006101000a81548160ff0219169083151502179055506152997f2ec1fdffcafb15edfeec53546996b73d83d480f813069f28321051e6a35437ef60001b616f62565b6152c57ff5e3c45c82be502d82892f0b073b3848a62c10f27cf0b3c6d6ea29831768900960001b616f62565b7fae5184fba832cb2b1f702aca6117b8d265eaf03ad33eb133f19dde0f5920fa0860405160405180910390a161531d7fb8a28c7d8e562844e187d43d5ba741414f0784c5e5e778ed7feda9de9507b4ff60001b616f62565b6153497fa16b981685a32329f1467b3b905ffa66f6511da333bd4a89824530d0f4a9195860001b616f62565b6001905090565b600061537e7fb0c2e6f183fe1e952f3a1517bdaca9797fbe580fb512587453105ebf263e8c9a60001b6166c4565b6153aa7f90033007c698997a884d17d522253ff019e3460ea75e849c661fe8959c26716260001b6166c4565b6153d67fb9b578c89e4b429da2a14f91ada59a7b8933fc81af697fb5c2f49bfc7e2841cd60001b6166c4565b600760008373ffffffffffffffffffffffffffffffffffffffff1673ffffffffffffffffffffffffffffffffffffffff16815260200190815260200160002060009054906101000a900460ff169050919050565b60006154587f602d703e7a3463d0b2913b4d7c736d6e93aa47c592d30130a5fb23661f387fc560001b6169e7565b6154847fd92ca58ca8f09a1b909bdd3af2a5255217324a2fb94d5c63dfd72706b1f0c2be60001b6169e7565b6154b07fce58fdce94a345ca7f0205ee619845552d0f91153b411c934a02dbc4471def9b60001b6169e7565b6154dc7fa8e66ddad752fa23ae2c4293ded6f9402ffa751c96d0218df08bfc9b09099cfb60001b6169e7565b600360009054906101000a900473ffffffffffffffffffffffffffffffffffffffff1673ffffffffffffffffffffffffffffffffffffffff163373ffffffffffffffffffffffffffffffffffffffff161461556c576040517f08c379a000000000000000000000000000000000000000000000000000000000815260040161556390617e41565b60405180910390fd5b6155987fbc9e3da51dfef2b8eac39e6513e991b832dd324794e59c2d2638ed90f8474e0960001b6169e7565b6155c47f3b1220f6016edd4d18672df61176b4c84e8e5f2fb05b76c1da9435d0ddb5aa1760001b6169e7565b6155f07f9aa7cd56eb2ac8d3b9bf1f6e158294dd47d37dfe00f658a4b73daa0386d1f46860001b6169e7565b61561c7feefd7473f3aabb47af946cffca9d74e2dd864f3650e5b1ebfc69b804ace87cd660001b6169e7565b6156487fa51d59d286e7dccccb5b9b5278e33d0c86d8e76fb04ecc55e7ea55a6bf98e6b460001b6169e7565b6156747ff3325b1053562c6b0ac8b7f027861c875b61314777aaef9ee53f50787b867e6e60001b6169e7565b600073ffffffffffffffffffffffffffffffffffffffff168273ffffffffffffffffffffffffffffffffffffffff1614156156e4576040517f08c379a00000000000000000000000000000000000000000000000000000000081526004016156db90617ee1565b60405180910390fd5b6157107f7177fa699f1df126f12f33649e41ffd5caa883d0911fc942e721eaccb24e310260001b6169e7565b61573c7f15fdbcd8997f71a0a67378bd867901f94e00f560bd927bbb0f21a100b8c004a560001b6169e7565b6157687f73d28aa364c2a1dc068fa42fe1db16e2f7273cc3b0041c387fdccceca80c486960001b6169e7565b61577182617208565b9050919050565b60006157a67f602d703e7a3463d0b2913b4d7c736d6e93aa47c592d30130a5fb23661f387fc560001b6169e7565b6157d27fd92ca58ca8f09a1b909bdd3af2a5255217324a2fb94d5c63dfd72706b1f0c2be60001b6169e7565b6157fe7fce58fdce94a345ca7f0205ee619845552d0f91153b411c934a02dbc4471def9b60001b6169e7565b61582a7fa8e66ddad752fa23ae2c4293ded6f9402ffa751c96d0218df08bfc9b09099cfb60001b6169e7565b600360009054906101000a900473ffffffffffffffffffffffffffffffffffffffff1673ffffffffffffffffffffffffffffffffffffffff163373ffffffffffffffffffffffffffffffffffffffff16146158ba576040517f08c379a00000000000000000000000000000000000000000000000000000000081526004016158b190617e41565b60405180910390fd5b6158e67fbc9e3da51dfef2b8eac39e6513e991b832dd324794e59c2d2638ed90f8474e0960001b6169e7565b6159127f3b1220f6016edd4d18672df61176b4c84e8e5f2fb05b76c1da9435d0ddb5aa1760001b6169e7565b61593e7ffd6916811fb3fb2d16082f81a6e5b13357eff5c419296d6418a7f58888ffd70460001b6166ca565b61596a7ffea925cad26b272546da964c995ad8ddb11e9aecf2a8271e41d8517373d23e7560001b6166ca565b6159967f436ab2b9b1cf34302bfc4a2fd917cd7c2e2877385e1b48b1d4b494ec95ea492260001b6166ca565b6159c27fe49e15a458202222d36dc25175a7b912d1ae384b509606ee33d90257a6f81e9160001b6166ca565b600660009054906101000a900460ff16615a11576040517f08c379a0000000000000000000000000000000000000000000000000000000008152600401615a0890617ec1565b60405180910390fd5b615a3d7f9ce174943bba426312f9a91b853a0729dbf125fc11b7593f639e60af42af9ef960001b6166ca565b615a697f57390424b042e110cb9e6e38b35ec7c87a4872b0dce4e62be097bea398b0e87060001b6166ca565b615a957f979768b8675c70ad1b286ef0075f49ae217e815a17e65c84f33b961d3e4cbe3a60001b6166ca565b615ac17ffc1bc7679a34d1ecb0805263316778150e7df2b56a858de118193392b1f2d31260001b6166ca565b615aed7f594e11142ce9fa56f49158fdfa6bfc0c7dbcd3f703c6f6f92df67ac1731f04d260001b6166ca565b6000600660006101000a81548160ff021916908315150217905550615b347f6633106554df78980011ccef8fc89d7bf99dbad0b3f6cbc70bcb1595e386e48060001b6166ca565b615b607f7860e6cb02f64c3bff67df62aebccaccc041bfb611f9c9c928b74c56ac33f4cc60001b6166ca565b7fa45f47fdea8a1efdd9029a5691c7f759c32b7c698632b563573e155625d1693360405160405180910390a1615bb87f6a3ca1cb1b18fe7ccd0632490b87ebcefc8e417a0ac140f3d7e6143a081dea7260001b6166ca565b615be47fb6358665602b49e712ddbbe8764bbc693eefa2eb74b76e64c858f182af3b26bd60001b6166ca565b6001905090565b6000600560008373ffffffffffffffffffffffffffffffffffffffff1673ffffffffffffffffffffffffffffffffffffffff168152602001908152602001600020549050919050565b50565b6000615c657ff5b34b4ba2e581dbce219c0a3075fffab2bbd2ea0f4aa8e27de13620ec95d78b60001b6166c7565b615c917f96311f78ecde7ddaeb9fd6c4cc32fbf4e2786df6f9c67451654a9caa4c9dd55c60001b6166c7565b615cbd7f0ba3eebba90166cba365632e6ebe2da7b3ac516ec833bfa20b0932b14368bcfb60001b6166c7565b81600054615ccb9190617f7c565b600081905550615cfd7fafa61fc01ee0a41c6aed2063265d2684183f79464d1aacf6165810d944de317160001b6166c7565b615d297febe25b48ce599c57771eaa5b4cf0636bc70d3933b55c20a1cc5ca7042f323f0660001b6166c7565b81600160008573ffffffffffffffffffffffffffffffffffffffff1673ffffffffffffffffffffffffffffffffffffffff16815260200190815260200160002054615d749190617f7c565b600160008573ffffffffffffffffffffffffffffffffffffffff1673ffffffffffffffffffffffffffffffffffffffff16815260200190815260200160002081905550615de37f656a02f4132daefef8002b2be28eec8c412d4706e777985b06ff337261acc70c60001b6166c7565b615e0f7fd2ec0ac2dfa374a79eb0f51555b94917173b8d4ec4abd91a1fc6a0eba544b5ef60001b6166c7565b8273ffffffffffffffffffffffffffffffffffffffff16600073ffffffffffffffffffffffffffffffffffffffff167fddf252ad1be2c89b69c2b068fc378daa952ba7f163c4a11628f55a4df523b3ef84604051615e6d9190617f01565b60405180910390a3615ea17ffd62fac21eb5e3da6e4bf74f521cb8ddf72b1d1cdf5661983814e1b7b259e23760001b6166c7565b615ecd7f23486ab4771e7b1bdb825993239a1c8780f7f534af4acb01db818847b5c8660c60001b6166c7565b6001905092915050565b6000615f057f33f3cba1c1e5643238af646b2f820eb3915b21dfaf29f150b9c5d3509b5e9eb860001b6166c7565b615f317f7b107c46bd96a8d240501f45debdba717f96443fb26dbc57800b19ddaf03591d60001b6166c7565b615f5d7f6198956d23c2f47fb18c22f65d748337b923d928f338c3dc5461a0770cb2f03b60001b6166c7565b81600260008673ffffffffffffffffffffffffffffffffffffffff1673ffffffffffffffffffffffffffffffffffffffff16815260200190815260200160002060008573ffffffffffffffffffffffffffffffffffffffff1673ffffffffffffffffffffffffffffffffffffffff1681526020019081526020016000208190555061600a7f4b17817eaec0d0710dc61c4990dbb27be893ae85f59e39a0f042cfb97312f07660001b6166c7565b6160367f684f7ff8cdfe5604c0c766ac7fdc127440d54cf272a3190f6e8fae0d2c3a741660001b6166c7565b8273ffffffffffffffffffffffffffffffffffffffff168473ffffffffffffffffffffffffffffffffffffffff167f8c5be1e5ebec7d5bd14f71427d1e84f3dd0314c0f7b2291e5b200ac8c7c3b925846040516160939190617f01565b60405180910390a36160c77f22d4eb550a8b23c248c58af0df9d713688102cee6fd6486ac69e06de4ef2617d60001b6166c7565b6160f37f7cf2d06a3848b92a2bf48bf7e92427ca062be9541a8763c4f591e30ac54f73b160001b6166c7565b600190509392505050565b600061612c7f31a13f956124ecab9d5fd6487bbe1cf2e3d4b8c4d15737837a6bdaec723eb26760001b6166c1565b6161587fb3e29a4d22bdc7783bb4bbd8c796e76b0c2e73f9eaa135d0168c5981175b379260001b6166c1565b6161847f6a4379942a3862120740396c8d4538314d8f9c0920f6fc2f57509aea17421ec760001b6166c1565b6000600460008573ffffffffffffffffffffffffffffffffffffffff1673ffffffffffffffffffffffffffffffffffffffff16815260200190815260200160002083815481106161fd577f4e487b7100000000000000000000000000000000000000000000000000000000600052603260045260246000fd5b906000526020600020906002020190506162397f8d0660fc8034d06212c7de2c12a1dee0eebcf3137a3c88794bf77ff7860d1c7960001b6166c1565b6162657fba154df6e07ea154d1f0644ea0d88eed0a774859dd633f114e2d8f5e6ec2d09b60001b6166c1565b8060000154600560008673ffffffffffffffffffffffffffffffffffffffff1673ffffffffffffffffffffffffffffffffffffffff168152602001908152602001600020546162b49190617fd2565b600560008673ffffffffffffffffffffffffffffffffffffffff1673ffffffffffffffffffffffffffffffffffffffff168152602001908152602001600020819055506163237f7f1189d484113a9ff1cdc771bfb9bd89deb28489d621d58bc816085eccf8cb0a60001b6166c1565b61634f7fc4ad37eaba050d0848e32a2faf9a5f19aca5568a493d2841bfd886298704c18460001b6166c1565b8373ffffffffffffffffffffffffffffffffffffffff167f6381d9813cabeb57471b5a7e05078e64845ccdb563146a6911d536f24ce960f182600001546040516163999190617f01565b60405180910390a26163cd7f8e3bc901bce05d5b34fc9d7750a398a782349107c8a5a0dfa2eb5f6590f146d960001b6166c1565b6163f97fcff011c2c4dd15b424820fa1bd9bba686278de746a33f3f01a2a31403214d4d160001b6166c1565b600460008573ffffffffffffffffffffffffffffffffffffffff1673ffffffffffffffffffffffffffffffffffffffff1681526020019081526020016000206001600460008773ffffffffffffffffffffffffffffffffffffffff1673ffffffffffffffffffffffffffffffffffffffff168152602001908152602001600020805490506164879190617fd2565b815481106164be577f4e487b7100000000000000000000000000000000000000000000000000000000600052603260045260246000fd5b9060005260206000209060020201600460008673ffffffffffffffffffffffffffffffffffffffff1673ffffffffffffffffffffffffffffffffffffffff1681526020019081526020016000208481548110616543577f4e487b7100000000000000000000000000000000000000000000000000000000600052603260045260246000fd5b906000526020600020906002020160008201548160000155600182015481600101559050506165947f47c5f1dcdb925fa919361524bc46ed6abd247fae7fe6c569457a779c9a89a82a60001b6166c1565b6165c07ff6380285ac6003914b58a85e7762b36317de18085125772e68065a7727a2467360001b6166c1565b600460008573ffffffffffffffffffffffffffffffffffffffff1673ffffffffffffffffffffffffffffffffffffffff168152602001908152602001600020805480616635577f4e487b7100000000000000000000000000000000000000000000000000000000600052603160045260246000fd5b600190038181906000526020600020906002020160008082016000905560018201600090555050905561668a7f41013fa6ad483130eb884124c549bbc4cc2820ffd1e0720df6a01fe341633d3f60001b6166c1565b6166b67f92cebed54f7f343956af482bfd0a9f0cdb0d9d3a42cd770e33ff7f7ba77c8a4160001b6166c1565b600191505092915050565b50565b50565b50565b50565b60006166fb7f0e1d569c8d08235768f7d58b8053b45b8140a801e7920ecbb6bd627f01ecc99d60001b6166c7565b6167277f7b3aac197fa4bbd55094466b3bd51e8405bdad6a42771f2d67e1d0fe15af3cc660001b6166c7565b6167537faabe647ff9ac1d0a6c28882dfe74283d4b1ab6414cc3140f4a481414ef76a17760001b6166c7565b81600160008673ffffffffffffffffffffffffffffffffffffffff1673ffffffffffffffffffffffffffffffffffffffff1681526020019081526020016000205461679e9190617fd2565b600160008673ffffffffffffffffffffffffffffffffffffffff1673ffffffffffffffffffffffffffffffffffffffff1681526020019081526020016000208190555061680d7f55baddd9b71203ebc4e580086a00ed3e80e8b7b91ddd7757e98e002135b934e260001b6166c7565b6168397ffd703893fbcde19fe2d4814f7a209acf8e53741a36ec436e267244955fa187d460001b6166c7565b81600160008573ffffffffffffffffffffffffffffffffffffffff1673ffffffffffffffffffffffffffffffffffffffff168152602001908152602001600020546168849190617f7c565b600160008573ffffffffffffffffffffffffffffffffffffffff1673ffffffffffffffffffffffffffffffffffffffff168152602001908152602001600020819055506168f37fdf5b421fe0e96563421c540f1f7c7c782c81e6f89b7786d4bf6d1c7b68dc868a60001b6166c7565b61691f7f4c43201c073182f3efc6ab66f1499310f3e543f0de5d4c0df82076217b6f3aea60001b6166c7565b8273ffffffffffffffffffffffffffffffffffffffff168473ffffffffffffffffffffffffffffffffffffffff167fddf252ad1be2c89b69c2b068fc378daa952ba7f163c4a11628f55a4df523b3ef8460405161697c9190617f01565b60405180910390a36169b07f32a80d106eb5e675772df47142949f745459bc4a74f86e9ec7befad50c47db9860001b6166c7565b6169dc7f4293ed5ebc243de390fd150d985b286eb51a46ee7d6b05301aa8793a004fc66060001b6166c7565b600190509392505050565b50565b6000616a187fa3a24e4e9efa944dd19cb8f26ba33616698a075a59bda9fa0c8744674643e89160001b6166c1565b616a447f95d727d7c9fc4c2164f162b8bd217e415f95ac75e05a3557468028eb5eaa62fc60001b6166c1565b616a707f807f4f16c3b93aafd4518b533f39b06a03f3e45524b493991e97f8f53ec72f0e60001b6166c1565b616a9c7f0e8a7fa9068b4e39fecb9ce4fd13bea3de7ad4700e19f17d752846490ccc55e060001b6166c1565b428211616ade576040517f08c379a0000000000000000000000000000000000000000000000000000000008152600401616ad590617d81565b60405180910390fd5b616b0a7f610400df25962a116f9e7b21427e42202ee81e8f629c618457bd337bf1ecc8e160001b6166c1565b616b367f27de6b61dae9e1ea5a97311be3c5a04b4908cbb21a0e17a102c42b7cd1ecc2bd60001b6166c1565b616b627f67978346c6302e4379408ecd09b8ec2c8a6b2a48431b34cdb1209f4d80a4761b60001b6166c1565b616b8e7f4dc05eaaa74fd5bef6b5d72d7bc20b0ba4af1734cf8b69ac03c55f6e61af72ab60001b6166c1565b600560008573ffffffffffffffffffffffffffffffffffffffff1673ffffffffffffffffffffffffffffffffffffffff1681526020019081526020016000205483616bd99190617f7c565b600160008673ffffffffffffffffffffffffffffffffffffffff1673ffffffffffffffffffffffffffffffffffffffff168152602001908152602001600020541015616c5a576040517f08c379a0000000000000000000000000000000000000000000000000000000008152600401616c5190617d61565b60405180910390fd5b616c867ff208589d3470795ed2380c105f6a3e8fa721a2c90f5024a8efa279d6ffde029760001b6166c1565b616cb27fc0d8e749f0c6dc13ebd81a3170e447f00e99c2c4b9cf5e1bad8ce65c33c6e70c60001b6166c1565b616cde7f0410107923ffa8d91c971760efce30e79f4940a50bea82366377e8e8f84f989360001b6166c1565b82600560008673ffffffffffffffffffffffffffffffffffffffff1673ffffffffffffffffffffffffffffffffffffffff16815260200190815260200160002054616d299190617f7c565b600560008673ffffffffffffffffffffffffffffffffffffffff1673ffffffffffffffffffffffffffffffffffffffff16815260200190815260200160002081905550616d987f7b277c3e30954ded55759366433a83850617b11d141c2d22b50450cd8330668560001b6166c1565b616dc47f4f87aa7f30af03c6212f4797caf55ad7694843d284827ce040edcd5e29485b8360001b6166c1565b600460008573ffffffffffffffffffffffffffffffffffffffff1673ffffffffffffffffffffffffffffffffffffffff168152602001908152602001600020604051806040016040528085815260200184815250908060018154018082558091505060019003906000526020600020906002020160009091909190915060008201518160000155602082015181600101555050616e837f9e38198c313e6609e4e24968c4bdece1c2b714802a389d5be2f2f837d062bdc760001b6166c1565b616eaf7f28b5b2e7f1ab4d6b3eebae4f92f223d8912d12d29de02cb7e5b9b4035863db0360001b6166c1565b8373ffffffffffffffffffffffffffffffffffffffff167f49eaf4942f1237055eb4cfa5f31c9dfe50d5b4ade01e021f7de8be2fbbde557b8484604051616ef7929190617f1c565b60405180910390a2616f2b7f4ec20439d5f1eebff88c296148f6c2b19fc22013b1da15e20502d5509a85687660001b6166c1565b616f577fab6441d39da930fe8a82dbcba476265b60551c1b48a1638e0a6e67bb1594c81d60001b6166c1565b600190509392505050565b50565b50565b6000616f967fb09e2d2820e3dfe0614c4806134f6c92d6129e6b4acdf355aa9ec88e57c3059c60001b6166c7565b616fc27f81550d9ecacda3a6c727ebcec73c06102c004e6c238e01e3802d7906a7cbe51260001b6166c7565b616fee7f06482ec4395d44ed4a4c1b43d035b1702e387fdc22447d5f4a8300b6cb49c63f60001b6166c7565b81600160008573ffffffffffffffffffffffffffffffffffffffff1673ffffffffffffffffffffffffffffffffffffffff168152602001908152602001600020546170399190617fd2565b600160008573ffffffffffffffffffffffffffffffffffffffff1673ffffffffffffffffffffffffffffffffffffffff168152602001908152602001600020819055506170a87f9f857bd235805b835cb5ec9aa7d80ede9ec2e0512873c7b4a1472c45f06a27fb60001b6166c7565b6170d47f313f7ca1caab3fbf02628ae35c8311f444a6fb5e19b4497888405878042a74ed60001b6166c7565b816000546170e29190617fd2565b6000819055506171147f13d301f7a3b584754b822f7583dbd506dfa4b3560499acfb48da7fd2bdc99a2160001b6166c7565b6171407fb0bf6af58f19fc64dc3ddb41864b8b49cfaf37d0334663ffe55b48b7dce1347a60001b6166c7565b600073ffffffffffffffffffffffffffffffffffffffff168373ffffffffffffffffffffffffffffffffffffffff167fddf252ad1be2c89b69c2b068fc378daa952ba7f163c4a11628f55a4df523b3ef8460405161719e9190617f01565b60405180910390a36171d27fb834186aeb560398cae59805ce2b8b85de6be145a26f8fe4134dc22ff0c40fd160001b6166c7565b6171fe7ff86514a579608e11139f809c07edf5b3d474c0873e7d6a58d178877f7a88ba6860001b6166c7565b6001905092915050565b60006172367fffbd551eda40f61b75fb62dbc2366015eaa140275f02aa75a64bb3624ca64bd460001b6169e7565b6172627fa3dc7e70b0578cc1633c282231ad7ee46b6b7bd2fa9608e891b7e79e5b3adec260001b6169e7565b61728e7f953dd6cf33a824a0abf82953b205dec4a75ea9e79907ad371d317dde2b906e9e60001b6169e7565b8173ffffffffffffffffffffffffffffffffffffffff16600360009054906101000a900473ffffffffffffffffffffffffffffffffffffffff1673ffffffffffffffffffffffffffffffffffffffff167f8be0079c531659141344cd1fd0a4f28419497f9722a3daafe3b4186f6b6457e060405160405180910390a36173367facd515e058d76ef4227325ace4506dd5297b07ace98a9d69fbba8f94ac80707560001b6169e7565b6173627fdb859cb4f5928267124b0c6414069ecdc975bef4ac6a8126595cdff120ddbb5c60001b6169e7565b81600360006101000a81548173ffffffffffffffffffffffffffffffffffffffff021916908373ffffffffffffffffffffffffffffffffffffffff1602179055506173cf7f7d098a2222d95e17d6c6065057352a8ff1208ea7fc4d41fdf20464591d646cab60001b6169e7565b6173fb7f18f09ccabdd02e9d02bbd82a7d4c54ced54e03711c605f8eb6f6bbdbf993b22660001b6169e7565b60019050919050565b60008135905061741381618141565b92915050565b60008135905061742881618158565b92915050565b60008135905061743d8161816f565b92915050565b60006020828403121561745557600080fd5b600061746384828501617404565b91505092915050565b6000806040838503121561747f57600080fd5b600061748d85828601617404565b925050602061749e85828601617404565b9150509250929050565b6000806000606084860312156174bd57600080fd5b60006174cb86828701617404565b93505060206174dc86828701617404565b92505060406174ed8682870161742e565b9150509250925092565b6000806040838503121561750a57600080fd5b600061751885828601617404565b92505060206175298582860161742e565b9150509250929050565b60008060006060848603121561754857600080fd5b600061755686828701617404565b93505060206175678682870161742e565b92505060406175788682870161742e565b9150509250925092565b60006020828403121561759457600080fd5b60006175a284828501617419565b91505092915050565b6000602082840312156175bd57600080fd5b60006175cb8482850161742e565b91505092915050565b6175dd81618006565b82525050565b6175ec81618018565b82525050565b60006175fd82617f60565b6176078185617f6b565b935061761781856020860161805b565b61762081618130565b840191505092915050565b6000617638603e83617f6b565b91507f45524332304c6f636b61626c652f7472616e73666572576974684c6f636b557060008301527f203a2043616e6e6f742073656e6420746f207a65726f206164647265737300006020830152604082019050919050565b600061769e602983617f6b565b91507f617070726f7665203a2053686f756c64206e6f7420617070726f7665207a657260008301527f6f206164647265737300000000000000000000000000000000000000000000006020830152604082019050919050565b6000617704602e83617f6b565b91507f45524332304d696e7461626c652f66696e6973684d696e74696e67203a20416c60008301527f72656164792066696e69736865640000000000000000000000000000000000006020830152604082019050919050565b600061776a604083617f6b565b91507f45524332304c6f636b61626c652f6c6f636b203a206c6f636b656420746f746160008301527f6c2073686f756c6420626520736d616c6c6572207468616e2062616c616e63656020830152604082019050919050565b60006177d0602b83617f6b565b91507f45524332304c6f636b61626c652f6c6f636b203a2043616e6e6f74207365742060008301527f64756520746f20706173740000000000000000000000000000000000000000006020830152604082019050919050565b6000617836602e83617f6b565b91507f45524332304c6f636b61626c652f756e6c6f636b3a2063616e6e6f7420756e6c60008301527f6f636b206265666f7265206475650000000000000000000000000000000000006020830152604082019050919050565b600061789c602e83617f6b565b91507f7472616e7366657246726f6d203a2053686f756c64206e6f742073656e64207460008301527f6f207a65726f20616464726573730000000000000000000000000000000000006020830152604082019050919050565b6000617902603483617f6b565b91507f45524332304d696e7461626c652f6d696e74203a2053686f756c64206e6f742060008301527f6d696e7420746f207a65726f20616464726573730000000000000000000000006020830152604082019050919050565b6000617968603983617f6b565b91507f506175736564203a20546869732066756e6374696f6e2063616e206f6e6c792060008301527f62652063616c6c6564207768656e206e6f7420706175736564000000000000006020830152604082019050919050565b60006179ce602f83617f6b565b91507f45524332304d696e7461626c652f6d696e74203a2043616e6e6f74206d696e7460008301527f2061667465722066696e697368656400000000000000000000000000000000006020830152604082019050919050565b6000617a34602f83617f6b565b91507f4f776e61626c65203a2046756e6374696f6e2063616c6c656420627920756e6160008301527f7574686f72697a656420757365722e00000000000000000000000000000000006020830152604082019050919050565b6000617a9a602a83617f6b565b91507f7472616e73666572203a2053686f756c64206e6f742073656e6420746f207a6560008301527f726f2061646472657373000000000000000000000000000000000000000000006020830152604082019050919050565b6000617b00603383617f6b565b91507f45524332304c6f636b61626c652f43616e6e6f742073656e64206d6f7265207460008301527f68616e20756e6c6f636b656420616d6f756e74000000000000000000000000006020830152604082019050919050565b6000617b66601c83617f6b565b91507f467265657a61626c65203a207461726765742069732066726f7a656e000000006000830152602082019050919050565b6000617ba6603583617f6b565b91507f506175736564203a20546869732066756e6374696f6e2063616e206f6e6c792060008301527f62652063616c6c6564207768656e2070617573656400000000000000000000006020830152604082019050919050565b6000617c0c604583617f6b565b91507f4f776e61626c652f7472616e736665724f776e657273686970203a2063616e6e60008301527f6f74207472616e73666572206f776e65727368697020746f207a65726f20616460208301527f64726573730000000000000000000000000000000000000000000000000000006040830152606082019050919050565b617c9481618044565b82525050565b617ca38161804e565b82525050565b6000602082019050617cbe60008301846175d4565b92915050565b6000602082019050617cd960008301846175e3565b92915050565b60006020820190508181036000830152617cf981846175f2565b905092915050565b60006020820190508181036000830152617d1a8161762b565b9050919050565b60006020820190508181036000830152617d3a81617691565b9050919050565b60006020820190508181036000830152617d5a816176f7565b9050919050565b60006020820190508181036000830152617d7a8161775d565b9050919050565b60006020820190508181036000830152617d9a816177c3565b9050919050565b60006020820190508181036000830152617dba81617829565b9050919050565b60006020820190508181036000830152617dda8161788f565b9050919050565b60006020820190508181036000830152617dfa816178f5565b9050919050565b60006020820190508181036000830152617e1a8161795b565b9050919050565b60006020820190508181036000830152617e3a816179c1565b9050919050565b60006020820190508181036000830152617e5a81617a27565b9050919050565b60006020820190508181036000830152617e7a81617a8d565b9050919050565b60006020820190508181036000830152617e9a81617af3565b9050919050565b60006020820190508181036000830152617eba81617b59565b9050919050565b60006020820190508181036000830152617eda81617b99565b9050919050565b60006020820190508181036000830152617efa81617bff565b9050919050565b6000602082019050617f166000830184617c8b565b92915050565b6000604082019050617f316000830185617c8b565b617f3e6020830184617c8b565b9392505050565b6000602082019050617f5a6000830184617c9a565b92915050565b600081519050919050565b600082825260208201905092915050565b6000617f8782618044565b9150617f9283618044565b9250827fffffffffffffffffffffffffffffffffffffffffffffffffffffffffffffffff03821115617fc757617fc6618101565b5b828201905092915050565b6000617fdd82618044565b9150617fe883618044565b925082821015617ffb57617ffa618101565b5b828203905092915050565b600061801182618024565b9050919050565b60008115159050919050565b600073ffffffffffffffffffffffffffffffffffffffff82169050919050565b6000819050919050565b600060ff82169050919050565b60005b8381101561807957808201518184015260208101905061805e565b83811115618088576000848401525b50505050565b600061809982618044565b915060008214156180ad576180ac618101565b5b600182039050919050565b60006180c382618044565b91507fffffffffffffffffffffffffffffffffffffffffffffffffffffffffffffffff8214156180f6576180f5618101565b5b600182019050919050565b7f4e487b7100000000000000000000000000000000000000000000000000000000600052601160045260246000fd5b6000601f19601f8301169050919050565b61814a81618006565b811461815557600080fd5b50565b61816181618018565b811461816c57600080fd5b50565b61817881618044565b811461818357600080fd5b5056fea2646970667358221220427a61529710303362954f75d4c96aa306aac44c3faff61b1e871ec85f03668064736f6c63430008000033",
  "linkReferences": {},
  "deployedLinkReferences": {}
}